:020000040002F8
:10600000C85C0020DD630200E5630200E763020074
:10601000E9630200EB630200ED6302000000000090
:10602000000000000000000000000000EF6302001C
:10603000F163020000000000F3630200F563020058
:10604000196D0200F763020029710200F763020074
:10605000F7630200F76302008D6A0200F763020033
:10606000F7630200F7630200F7630200F7630200C0
:10607000F7630200F7630200F7630200F7630200B0
:10608000F76302006D6D0200F7630200F763020020
:10609000716E0200F7630200796E0200F76302007E
:1060A000F7630200F7630200F7630200F763020080
:1060B000F7630200F7630200000000000000000028
:1060C000F7630200F7630200F7630200F763020060
:1060D000A16D0200F7630200F763020000000000F8
:1060E00000000000000000000000000000000000B0
:1060F00000000000000000000000000000000000A0
:10610000000000000000000000000000000000008F
:10611000000000000000000000000000000000007F
:10612000000000000000000000000000000000006F
:10613000000000000000000000000000000000005F
:10614000000000000000000000000000000000004F
:10615000000000000000000000000000000000003F
:10616000000000000000000000000000000000002F
:10617000000000000000000000000000000000001F
:10618000000000000000000000000000000000000F
:1061900000000000000000000000000000000000FF
:1061A00000000000000000000000000000000000EF
:1061B00000000000000000000000000000000000DF
:1061C00000000000000000000000000000000000CF
:1061D00000000000000000000000000000000000BF
:1061E00000000000000000000000000000000000AF
:1061F000000000000000000000000000000000009F
:10620000DFF80CD000F004FC0048004755A802005D
:10621000C85C002000B583B002900091019244F266
:10622000010071466A4601F09BFA03B000BD000010
:1062300030B450E8012F93B2C48923448489A34227
:1062400028BF1B1B0489A34202BFBFF32F8F00206E
:1062500007E0C3EA020340E80134002CE9D14FF023
:1062600001000A6030BC704750E8012FC2EA0242C8
:1062700040E801210029F7D1704730B450E8022FDF
:106280001FFAA2F3C488A34202BFBFF32F8F0020DE
:106290000DE0C48923448489A34228BF1B1BC2EAA2
:1062A000034340E80234002CE8D14FF001000A60BB
:1062B00030BC704750E8022FC2EA224240E8022177
:1062C0000029F7D17047034653E8022FD988B2EB73
:1062D000324F4FF0000017BF92B241EA014142EA4B
:1062E000014104E05A68B2EB324F08BF012043E895
:1062F0000212002AE8D1704730B4044654E8000F77
:106300000D4644E80053002BF8D1156030BC7047AF
:1063100030B4044654E8000F40EA010544E8005355
:10632000002BF7D1156030BC704730B4044654E8F8
:10633000000F00EA010544E80053002BF7D1156077
:1063400030BC704730B4044654E8000F80EA0105C1
:1063500044E80053002BF7D1156030BC704730B4CF
:10636000044654E8000F00EB010544E80053002BFD
:10637000F7D1156030BC704730B4044654E8000FC4
:10638000A0EB010544E80053002BF7D1156030BCA9
:10639000704770B404464FF0000054E8006F0D6879
:1063A000AE4207BF44E80023012044E800630E60CA
:1063B000002B1CBF0020F0E770BC704730B40446CF
:1063C00054E8000F88422CBF451A054644E80053A4
:1063D000002BF5D1156030BC70470000064880479F
:1063E00006480047FEE7FEE7FEE7FEE7FEE7FEE7BA
:1063F000FEE7FEE7FEE7FEE7916E020001620200A3
:106400002DE9F05F0546002092469B4688460646E9
:10641000814640241BE0284641464746224600F07C
:106420009BFA53465A46C01A914110D3114618465A
:10643000224600F016F82D1A67EB01084F46224657
:106440000120002100F00DF817EB00094E41201E3D
:10645000A4F10104DFDC484631462A464346BDE844
:10646000F09F202A04DB203A00FA02F10020704756
:106470009140C2F1200320FA03F319439040704782
:1064800000487047C001030038B5D0E90221491E19
:1064900001EB410102EBC1014268C1EB011102EBCA
:1064A00081010268C1EB011102EB8102D0E90431E4
:1064B00001EB410103EB81013023A1F5527191FB06
:1064C000F3F4174D6C4302EBC41291FBF3F403FB9E
:1064D000141100921A2902DB124B1A4400920C226A
:1064E00091FBF2F3104C6343009C04EBC313009345
:1064F00091FBF2F302FB13110C4A08E0491E40F233
:10650000A324535C6343009C04EBC3130093002952
:10651000F4DC0146684600F035FA009838BD00000A
:106520003F0C0F008051010067C20300C40103004B
:1065300070B5054601B90721541A241DB4F5B67F7C
:1065400009DD286800F036F9A04204DC2868401C08
:106550002860012070BD002C05DA2868401E2860E4
:1065600000F028F90444072094FBF0F0401C70BDB3
:106570002DE9F04F89B01D468A468046002401AFC0
:106580004FF0070B0192079057F8241011F8010BF8
:1065900047F8241048B125280DD0BAF1010F06D9CB
:1065A00008F8010BAAF1010A5CE0641E5AE0002021
:1065B00009B0BDE8F08F11F8010B47F8241000284E
:1065C000F3D002264FF030095A284BD020DC4D285A
:1065D00073D014DC442871D008DC2528DDD0412894
:1065E0002AD042282ED043283CD130E0462847D03C
:1065F000472857D0482862D0492833D161E0523823
:1066000008282FD2DFE800F0787AA6838A97A6A818
:106610006138192826D2DFE800F00D1318202E2546
:106620003513255C252560642566256D2573752544
:106630008B9BA0006AA000E070A0A9690091B4E063
:106640007DA000E088482969F8E788A007E069692B
:10665000642091FBF0F0133082E0E86880E0641C75
:1066600047F82400002C8FDA002088F800000799F2
:10667000A8EB01009CE7E8684FF02009009070E06B
:106680007EA0ECE7686900F26C700090D5E9061214
:106690006846FFF74DFF0099642091FBF0F200FB84
:1066A00012105DE06869042600F26C700090D5E974
:1066B00006126846FFF73CFF53E010E048E0A86888
:1066C0004EE0A8680C21173090FBF1F201FB12009C
:1066D00001E0E8690326401C42E02869FBE768689E
:1066E0003EE069A0BBE7A8680C2801DA67A0B6E71E
:1066F00067A0B4E767A0B2E769A0B0E728682FE019
:1067000069A0ACE7A869012608BB072028E0D5E905
:106710000610401AC01D90FBFBF021E0686900F2F2
:106720006C700090D5E906126846FFF701FF17E08C
:106730000126A86914E0A9695846891D91FBF0F269
:106740000BFB1211EA69511AC91D91FBFBF007E01E
:1067500056A084E758A082E70426686900F26C70AE
:10676000009000218DF8181006A80A2113E0009A65
:1067700092FBF1F301FB1322303200F8012D009A55
:1067800092FBF1F2009232B901E000F8019D321E55
:10679000A6F10106F9DC321EA6F10106E7DC5EE790
:1067A00010F8011B0029FBD100994A1E0092002914
:1067B000F6DC54E781070CD1642190FBF1F201FB78
:1067C000120151B94FF4C87190FBF1F201FB1200B4
:1067D00018B1002000F26D1070470120FAE70000A8
:1067E00053756E004D6F6E005475650057656400FB
:1067F00054687500467269005361740053756E6485
:106800006179004D6F6E64617900547565736461E0
:1068100079005765646E65736461790054687572B8
:1068200073646179004672696461790053617475BB
:1068300072646179000000004A616E004665620082
:106840004D617200417072004D6179004A756E00B1
:106850004A756C0041756700536570004F637400A2
:106860004E6F760044656300D0010300256120254A
:1068700062202565202554202559000025592D2505
:106880006D2D2564000000000A000000414D00004D
:10689000504D000025493A254D3A255320257000DA
:1068A00025483A254D00000009000000256D2F25E0
:1068B000642F25790000000025483A254D3A2553DC
:1068C0000000000040EA01039B0703D009E008C96B
:1068D000121F08C0042AFAD203E011F8013B00F8A5
:1068E000013B521EF9D27047D2B201E000F8012BF1
:1068F000491EFBD270470022F6E710B513460A4640
:1069000004461946FFF7F0FF204610BD421C10F860
:10691000011B0029FBD1801A7047034611F8012B97
:1069200000F8012B002AF9D11846704730B50B4604
:10693000014600202022012409E021FA02F59D42AF
:1069400005D303FA02F5491B04FA02F52844151E83
:10695000A2F10102F1DC30BD202A04DB203A21FA49
:1069600002F00021704721FA02F3D040C2F1200268
:106970009140084319467047014900F003B80000F0
:10698000983C002010B500683C22B0FBF2F302FBFB
:106990001303B0FBF2F00B60B0FBF2F302FB130346
:1069A000B0FBF2F018224B60B0FBF2F302FB1303D2
:1069B000B0FBF2F0021D8B600723B2FBF3F403FB84
:1069C0001422800040F2B55300F66C308A61B0FBAF
:1069D000F3F2B0FBF3F403FB1400443280084A6185
:1069E000C8613B2802D3920700D0401C0022074C0C
:1069F00013460A61E25C824203D8801A5B1C0B6179
:106A0000F8E7401CC860084610BD000026020300DD
:106A1000064C074D06E0E06840F0010394E80700EB
:106A200098471034AC42F6D3FFF7EEFB400A030060
:106A3000600A030070B58C1810F8015B15F00703AD
:106A400001D110F8013B2A1106D110F8012B03E007
:106A500010F8016B01F8016B5B1EF9D12B0705D40F
:106A60000023521E0DD401F8013BFAE710F8013B58
:106A7000CB1A921C03E013F8015B01F8015B521E74
:106A8000F9D5A142D8D3002070BD00002DE9F04F08
:106A900089B00027002008904FF4807007900126ED
:106AA000002412E0079804F0A5FF40B100BF7B4826
:106AB0000068304018B1079804F08EFF3743760025
:106AC0000798001D80B20790641C082CEAD34FF48D
:106AD000BE7004F08FFF50B14FF4BE7004F07CFF25
:106AE00047F0004708AA0121002004F05BFFF8B23C
:106AF00000B3012600241BE006EA0700B0B100BF86
:106B0000674850F82400C0F30420804600BF644862
:106B100050F82400C0F301408146204602F0CCFC2E
:106B2000054615B149464046A84700BF7600641C9B
:106B3000082CE1D307F0004000287DD0002006900B
:106B40000590002505E04FF0FF3004A941F825002D
:106B50006D1C002DF7D000BF0020069000245FE0E0
:106B60005048005D0390039820F0C0094D4800573D
:106B7000401C002853D004A9484604F03BF90028E3
:106B80004DD003984FEA901A484602F0DDFC80464B
:106B900002F092FC0290029810B9BAF1030F3DD1B5
:106BA000BAF1030F03D105A9484604F02EF900BF3E
:106BB00000BF4FF0A041084600F5E06151F82910F0
:106BC000C1F3014800BF08A9484604F013F9834601
:106BD000BBF1000F02D0B8F1020F05D0BBF1000FDE
:106BE0001BD1B8F1030F18D1BAF1030F0FD1B8F1CF
:106BF000020F01D1032000E00220019048460199D4
:106C000004F078FE0698401CC0B2069000BF0298BF
:106C100018B151464846029A904700BF00BF641C15
:106C2000042C9DD3069888B34FF0010803AA0121D4
:106C3000002004F0B7FE00E02DE000250BE003A8E3
:106C400050F8250008A951F82510884202D04FF0CD
:106C5000000802E06D1C002DF1D000BFB8F1000F5C
:106C600002D00020069010E000250CE003A850F8A8
:106C7000250008A941F8250005A850F8250004A919
:106C800041F825006D1C002DF0D000BF06980028AB
:106C90007FF462AF00BF09B0BDE8F08F046300402D
:106CA000106500406C32002000F01F02012191406D
:106CB000024A430942F823107047000080E200E0D6
:106CC00000F01F02012191404209920002F1E022EE
:106CD000C2F800117047000000F01F02012191402E
:106CE000024A430942F823107047000000E200E026
:106CF00010B5002807DA4A07140E054A00F00F0302
:106D00001B1FD45403E04A07130E024A135410BD4C
:106D100018ED00E000E400E010B54FF4807004F0DE
:106D2000D9FA80B14FF4807004F0DDFA012004F04C
:106D3000E3FA0D48407930B901200B494871084603
:106D40000168002088474FF4827004F0C3FA50B104
:106D50004FF4827004F0C7FA022004F0CDFA024822
:106D600001680120884710BD242B002010B50020A9
:106D70000949086000210948C0F84411C0F84811C9
:106D8000C0F84C1100200549C1F8000102493C3906
:106D9000086008F0DFF910BD40110140001001400B
:106DA00010B50B48006890B100210948016001202E
:106DB0000849886008480068084909680844064985
:106DC00008600748006810B105480068804710BD9A
:106DD0004841024000400240D02A0020DC2A002026
:106DE000E02A002010B500F0A7F910BD2DE9F0470A
:106DF000074688461646C24607EB47011B4800EB8C
:106E0000C109D9F8140020B1012811D0022826D1D7
:106E10001EE0484600F0C8F90546B54201D20024FC
:106E200005E0344632465146484600F004FA18E080
:106E3000484600F0B9F90546B54201D2284600E0BF
:106E40003046044622465146484600F0F4F908E030
:106E500032465146484600F0B5F9044601E00024A8
:106E600000BF00BF2046BDE8F0870000283A0020A0
:106E700010B508F079F810BD10B505F05BFD10BD38
:106E800001480249086070470090D0031C2C002084
:106E900010B502F0A3FE28B192480088C0F3042088
:106EA0009149086002F0EEFE10B1904890494867A1
:106EB00002F010FF30B18B48E0380068C0F3423078
:106EC0008C49086002F030FF28B18B48006820F040
:106ED00080708949086002F03FFF48B1002087496F
:106EE00008604FF08041C1F810018249091F086015
:106EF00002F05CFF18B103207E496431086002F0A3
:106F00006DFF68B105207E49086001207C49783119
:106F1000086000207A49083108603F20091F086096
:106F200002F074FF002855D06E48E03000687549C3
:106F300008606C48E4300068091D08606948E83062
:106F40000068091D08606748EC300068091D08608A
:106F50006448F0300068091D08606248F430006839
:106F6000091D08605F48F8300068664920310860F4
:106F70005C48FC300068091D086063480068091D12
:106F800008606148001D0068091D08605E480830FF
:106F90000068091D08605C480C300068091D086025
:106FA000594810300068574940310860564814303D
:106FB0000068091D0860544818300068091D086001
:106FC00051481C300068091D08604F482030006897
:106FD000091D086002F0D8FD30B14248CC38006885
:106FE00000F04F004949086002F022FE40B14848D5
:106FF000006800F0010018B16FF00100444908601A
:1070000002F058FE28B14348006840F480604149CE
:10701000086039487438006840F4700036497439A3
:10702000086000BF00BF00BFBFF34F8F00BF00BFAD
:1070300000BF00BF00BF00BFBFF36F8F00BF00BF26
:1070400000BF3548006800F0004028B93248001DF4
:10705000006800F00040E8B301203049086000BF3C
:107060002F4800680028FBD015202B49086000BF7E
:107070002B4800680028FBD015212748001D01601F
:1070800000BF274800680028FBD000202349086083
:1070900000BF234800680028FBD000BF00BF00BF2E
:1070A00000BF00BFBFF34F8F00BF00BF00BF12483B
:1070B000F038006800F4E0601A490843001D0E49EA
:1070C000F039086000BF00BF00BFBFF34F8F00BFA3
:1070D00000BF00E003E000BF00BF00BFFDE7FFF717
:1070E000CFFE10BD24030010403501400DF0ADBAB5
:1070F00000C007403C050040FCED00E00C010040F2
:107100001056004020C5004024040010E40E00404A
:10711000000400403C1700400012001004E501404C
:1071200000E401400000FA0510B5024908688047F4
:1071300010BD00002C2B002010B5124C0220206145
:10714000606111A0A0611349E1614FF400712162F7
:107150000021A1626162E1620BA0A0640E49E164BA
:10716000102121650021A1656165E1650BA1E01D8C
:10717000FFF7D3FB0AA12046FFF7CFFB2020A07129
:1071800010BD0000103A00205465726D696E616C8C
:1071900000000000883A0020883C0020525454002F
:1071A000534547474552000010B501460A69CB6870
:1071B0009A4204D88C68641EE41AA01801E0D41A1C
:1071C000601E10BD2DE9F0470446894617464FF072
:1071D000000AE56800BFD4F81080A84503D9A8EBE1
:1071E0000500461E04E0A5EB0800401CA1680E1A2D
:1071F000A068401BB04201D9304601E0A068401BA6
:107200000646BE4201D2304600E038460646616876
:10721000481932464946FFF755FBB244B144BF1BFB
:107220003544A068A84200D10025E560002FD2D1E6
:107230005046BDE8F0872DE9F047044689461546DB
:10724000E668A068871BAF4208D9616888192A469A
:107250004946FFF737FB7019E06010E0B8466168F7
:10726000881942464946FFF72DFBA5EB070809EBB5
:10727000070142466068FFF725FBC4F80C80BDE8B3
:10728000F08700000FB4054B10B503A9044A02981B
:1072900000F048F810BC5DF814FB0000B79F020036
:1072A000B02B002002E008C8121F08C1002AFAD142
:1072B00070477047002001E001C1121F002AFBD176
:1072C000704700000146202908DA012088400A4A58
:1072D000104008B1012070470020FCE7402909DA7E
:1072E000A1F12000012202FA00F008B10120F2E72A
:1072F0000020F0E70120EEE7FC06FFBD00BFEFF342
:107300001081084672B670470146082901D3002053
:10731000704719B1012901D0042901D10020F7E7F4
:107320000120F5E72DE9FF4F8BB09A460F46054641
:10733000002606E025280BD052460D9990476D1C7B
:10734000761C28780028F5D10FB03046BDE8F08FC4
:107350000024A0460122604900E0044315F8013FE3
:10736000203B02FA03F00842F7D128782E2817D1E3
:1073700015F8010F44F004042A280ED06FF02F02F4
:107380002878A0F1300109290AD808EB880102EB1E
:10739000410100EB01086D1CF2E757F8048B6D1CEE
:1073A000287869283ED006DC0028CDD063280BD091
:1073B000642804D136E0732810D075284BD052468B
:1073C0000D999047761C85E017F8040B8DF80000A6
:1073D00000208DF80100E946012003E057F8049BE6
:1073E0004FF0FF3061074FF0000401D40AE0641C45
:1073F00044450DDA8442FADB19F804100029F6D16D
:1074000006E0641C8442FCDB19F804100029F8D162
:10741000264404E019F8010B52460D999047641E6A
:10742000F8D257E001CF4FF00A0B002802DA4042B1
:107430002D2102E0210504D52B218DF824100121F6
:1074400003E0E10705D02021F7E70DF120090891BD
:107450000CE00021F9E701CF4FF00A0BF9E759469C
:10746000FFF764FA01F1300209F8012D0028F6D186
:10747000ADEB090000F1200B600701D44FF00108CB
:10748000D84502DDA8EB0B0000E000208046002478
:1074900006E009A85246005D0D999047641C761CD1
:1074A00008988442F5DB04E0302052460D9990475D
:1074B000761CB8F10001A8F10108F5DC05E019F827
:1074C000010B52460D999047761CBBF10001ABF1C0
:1074D000010BF4DC6D1C34E7092801000246002191
:1074E00004E0505C08B101207047491C0629F8D31C
:1074F0000020F9E770B504460D4604F1AB00FFF734
:10750000EDFF0646012D06D0022D0DD0032D11D022
:10751000042D19D113E0A07928B194F8240010B9F2
:107520000EB1012070BD00BFE07910B10EB1022094
:10753000F8E700BF207A08B10320F3E700BF607AC4
:1075400008B10420EEE700BF0020EBE70146481C2D
:10755000052290FBF2F302FB1300C0B2704710B596
:1075600001220221002001F065FC044600BF1CB18D
:10757000072C01D0204610BD00BF072202210120A8
:1075800001F058FC044600BF1CB1072C01D0204676
:10759000F1E700BF0A220021084601F04BFC044637
:1075A00000BF1CB1072C01D02046E4E700BF00203B
:1075B000E1E7000030B5ABB0AC216846FFF79BF9BE
:1075C00002208DF8000000208DF8020005208DF8C3
:1075D00003000121ADF84C101149149101218DF8DF
:1075E0007C104021229144F2506123910D48299052
:1075F00069460D4800F089FD044600BF25463DB1AF
:1076000000BF0AA240F27F212846FEF703FE00BF1A
:1076100000BF0121044800F075FD2BB030BD000013
:10762000C82A002015D60200802C00202E2E5C2EA9
:107630002E5C2E2E5C6D61696E2E630070B5032189
:10764000084800F049FE044600BF25463DB100BF92
:1076500005A24FF42F712846FEF7DCFD00BF00BFE6
:1076600070BD0000802C00202E2E5C2E2E5C2E2E55
:107670005C6D61696E2E630010B50446022001F056
:1076800073FA10BD10B5002407E00749096811F826
:107690003400012105F0D8FA641C044800788442C3
:1076A000F3D3002010BD0000382B00203C2B00201D
:1076B0002DE9F84306460D461746052F02D207204E
:1076C000BDE8F88305F0FAFB38B905F097FB0446EE
:1076D00000BF204600B1F3E700BF18480660184815
:1076E0000570184807600021174A1160516000209A
:1076F000164A1060506015E006EBC5081448006893
:10770000009098F802008DF8010098F80000114AE6
:10771000694605F0EFFA044600BF204600B1CFE706
:1077200000BF00BF281EA5F10101CDB2E4D10A4A75
:1077300000210A4800F05EF9C2E70000382B002063
:107740003C2B0020402B0020482B0020502B0020F9
:10775000A8FE020075A10200C1990200A4FE020069
:107760002DE9FE4307460E46144672B600BF04F0EC
:107770002BFD00BF00BF04F031FA0028FBD100BF91
:1077800000BF012F0CD06FF48050384488B1B0F5A1
:10779000405F24D06FF44051084400283BD111E0F1
:1077A0002A490988012242EA014029A104F00CFC7F
:1077B0003BE026490988012242EA01402CA104F05D
:1077C00003FC32E025462B88204909884FF0010C44
:1077D0004CEA01402FA16A6804F00CFC25E0254624
:1077E000A86805F081F98046D5E900108DE84300CE
:1077F00016490988012343EA014043462CA1AA689F
:1078000004F01CFC11490988012242EA014032A11E
:1078100004F0DAFB09E00D490988012242EA01403F
:10782000324632A104F0DAFB00BF00BF00BF35488A
:10783000006800F0010000B100BE00BF22463146E2
:10784000384600F061F8BDE8FE830000502C0020AF
:10785000534F46544445564943453A2041535345B6
:107860005254494F4E204641494C454400000000C7
:10787000534F46544445564943453A20494E564194
:107880004C4944204D454D4F5259204143434553A7
:1078900053000000415353455254494F4E20464136
:1078A000494C45442061742025733A257500000039
:1078B0004552524F52202575205B25735D2061741F
:1078C0002025733A25750D0A50432061743A203003
:1078D0007825303878000000456E64206F6620659A
:1078E00072726F72207265706F727400554E4B4EDB
:1078F0004F574E204641554C542061742030782516
:1079000030385800F0ED00E018B5012300939DF8E1
:1079100000301E4B186059609A606FF48043034436
:1079200063B1012B19D1194BDA60DB681B88174C46
:10793000A3612346DB685B68E3610EE0134B1A61C9
:107940001B699B68114C636123461B691B68A3611B
:1079500023461B695B68E36100BF00BF0B4B1B68DC
:107960000A4B5B68094B9B68084BDB68074B1B693C
:10797000064B5B69054B9B69044BDB6972B600BF24
:107980009DF80030002BFBD162B618BDE832002014
:1079900070B504460D46204602F0BCFA28B12946CF
:1079A000204602F0ABFA002070BD0520FCE703463C
:1079B00009B90E20704712B1501E104008B10920BD
:1079C000F8E71960501E988000209860D86000BFCA
:1079D000F0E770B504460D46204602F09BFAA188F8
:1079E000884205D82946204602F0A7FA002070BD3B
:1079F0000420FCE710B503460C4600BF0B48807816
:107A000008B9082010BD00BF0AB90720FAE70BB972
:107A10000720F7E71868007C08B10820F2E719682A
:107A2000002008744C744A6100BFEBE70833002063
:107A300010B506F0EBFC00200F49087048700B20D1
:107A4000887000200D4908600D4908700D490870C4
:107A50001420FFF729F907211420FFF749F9142012
:107A6000FFF72EF9002006F0A7FC06F09FFC064960
:107A70000860002010BD000008330020582B0020B3
:107A8000682B0020692B00205C2B00202DE9F041A1
:107A900004460E461746254600BF1048807810B9A8
:107AA0000820BDE8F08100BF0CB90820F9E7052ED9
:107AB00001D20720F5E7686908B90820F1E7687C7A
:107AC000012801D1304600E0002080463B46424676
:107AD0003146284607F0EEFAE3E7000008330020BD
:107AE00070B50446254600BF0848807808B90820CC
:107AF00070BD00BF0CB1686908B90820F8E7002024
:107B000028740221284607F004FBF1E7083300201F
:107B10002DE9F04104461048077821460F48FFF749
:107B200037FF8046A7B100200B49087001220C499D
:107B30000C4803F069FC054600BF2E4636B100BF75
:107B400009A2CE213046FEF765FB00BF00BF00BF93
:107B50004046BDE8F0810000862B00201434002050
:107B6000852B00206C2B00202E2E5C2E2E5C2E2EC2
:107B70005C2E2E5C2E2E5C2E2E5C636F6D706F6EF5
:107B8000656E74735C6C69627261726965735C7551
:107B90006172745C6170705F756172745F66696652
:107BA0006F2E63002DE9F04188B004460E4617465B
:107BB00098462B4807601EB9072008B0BDE8F08141
:107BC000B08882B227483168FFF7F1FE054600BF52
:107BD000284600B1F1E700BFB08982B22248B168FF
:107BE000FFF7E5FE054600BF284600B1E5E700BF08
:107BF00020221E496846FEF765FE60690690207CDB
:107C000008B1012000E000208DF814008DF81C80E0
:107C1000607C08B10E2000E000208DF81500E068BF
:107C20000290A06803902068019060680090104A5C
:107C30006946104803F0A2FB054600BF284600B184
:107C4000BBE700BF00200C4908702068401C28B129
:107C500001220A49074803F0D7FBAEE70020ACE752
:107C6000802B00201434002024340020B8FE0200B1
:107C700055F502006C2B0020862B0020852B002060
:107C80002DE9F041054629461448FFF7A2FE0646B5
:107C900006BB134C002720781249085C20B1201D38
:107CA00005F006FC074608E020780E49085C20B97C
:107CB00004F10C0005F0B0FA074600BF57B90A49B5
:107CC0000648FFF765FE28B901220749044803F07A
:107CD000BDFB06463046BDE8F0810000243400209C
:107CE0006C2B0020202B0020842B002010B5044694
:107CF000204606F0E9FC10BD70B5044625460E4846
:107D00008068B0B1ADB9FFF7F9FA06460A480068D5
:107D10000A490860084840684FF0E021C1F80401B2
:107D20000020054988601EB900BF62B600BF00BFD1
:107D300000BF00BF70BD00003434002000E100E04F
:107D4000F8B505460C4617462088001DB84201D9F3
:107D50000C20F8BD684679DF064600BF304600B10A
:107D6000F7E700BF0320218868542088401C20804A
:107D70001920218868542088401C208020884119BF
:107D8000BDF8000007F0F2FD2188084420800020A3
:107D9000DFE770B505460C462068401C28B1206816
:107DA00003F0CDFD206803F08DFD6068401C18B124
:107DB0000021606803F06CFD2868A169C0F82415F3
:107DC00000BF617D227D286841EA0203C0F86C355E
:107DD00000BFD4E90012286804F0BFFE207D01280E
:107DE00014D1A068401C18B10021A06803F050FD18
:107DF000E068401C28B1E06803F0A1FDE06803F0F2
:107E000061FDD4E90221286804F090FE70BD70B5D0
:107E100005460C462068401C28B1206803F09AFDF6
:107E2000206803F05BFD6068401C18B100216068A9
:107E300003F03BFD2868A169C0F8241500BF617DEF
:107E4000227D286841EA0203C0F86C3500BFD4E9FE
:107E50000012286804F0AEFE207D012814D1A0682D
:107E6000401C18B10021A06803F01FFDE068401C11
:107E700028B1E06803F06EFDE06803F02FFDD4E95F
:107E80000221286804F082FE70BD0000002112E08B
:107E90000B48D0F81024012306E000BF107A884276
:107EA00001D1002302E05268002AF6D100BF0BB1D5
:107EB00008467047491C0A29EADB4FF0FF30F8E713
:107EC000EC3500202DE9F04104460F46154615B962
:107ED0000E20BDE8F0810020286000BF0CB90E2004
:107EE000F7E700BF00BF206808B90E20F1E700BF28
:107EF00000BFE088C11700EB91718910A0EB8101F0
:107F000009B10720E5E700BF384600F0F3FAC6B232
:107F1000142E01D10520DCE72079B04201DC0420D9
:107F2000D7E7E188206806FB010028600020D0E741
:107F30002DE9FC4105468846164600243788002076
:107F4000308095F82D0058B13A463146404600F051
:107F5000E9FA044600BF204608B1BDE8FC8100BF35
:107F6000A87850B13A4631464046FFF7E9FE04464C
:107F700000BF204600B1F0E700BFE87860B1E978C3
:107F800048B23B463246414601F0E0FF044600BF9E
:107F9000204600B1E1E700BF686868B1696891F9FF
:107FA00000003B463246414607F029FA044600BF2E
:107FB000204600B1D1E700BF288900280EDD4346E6
:107FC0000622022105F10800CDE9006707F0C6FD91
:107FD000044600BF204600B1BFE700BF288A002842
:107FE0000EDD43460722032105F11000CDE90067AD
:107FF00007F0B4FD044600BF204600B1ADE700BF66
:10800000288B00280EDD43461522142105F11800A7
:10801000CDE9006707F0A2FD044600BF204600B18D
:108020009BE700BF286A58B13B4632464146286A62
:1080300001F063FB044600BF204600B18DE700BF9E
:10804000686A58B13B4632464146686A02F072FCA3
:10805000044600BF204600B17FE700BF95F82C0022
:1080600000280BDD3B4632464146284606F02CFCF4
:10807000044600BF204600B16FE700BF287858B122
:108080003B4632464146284602F002FD044600BF08
:10809000204600B161E700BF20465EE7F8B5044620
:1080A0000E461546002000902B466A463146204673
:1080B00000F008F807460FB90020F8BDBDF8000031
:1080C0002044FAE730B504460D4604B10AB9002051
:1080D00030BD002103E0605C401C084481B2108880
:1080E000884203DC481C205C984201D0A942F2DBA4
:1080F000A94201DB0020EBE7881C1080605C401E79
:1081000080B2E5E780F83010704770B504460D4640
:1081100005B10CB90E2070BD05F1780001F08EFAA2
:1081200008B90720F7E70020A0702C2205F178019C
:10813000201DFEF7C7FB002084F83000D5F8A4000E
:108140006063D5F8A800A0634FF6FF70A4F8A800FC
:1081500004F19400C4F8A4000021B020C4F8AA10CF
:10816000A4F8AE100155207810B9FF2084F854000F
:1081700004F15500C4F894001F219820015304F124
:10818000980204F155012846FFF7D2FE064600BFCB
:10819000304600B1BFE700BF05F13C00A0B104F1DB
:1081A00074009C2108511F21A4F8A0109C200159A3
:1081B00004F1A00205F13C00FFF7BAFE064600BF3D
:1081C000304600B1A7E704E000219C200151A4F84B
:1081D000A010012151200155208B81B2482001536C
:1081E000012084F83C000021216450200155616980
:1081F000616404F13C02002104F1540072DF064680
:1082000000BF304600B186E700BF01202070304635
:1082100081E770B504460D462E462088102804D00C
:10822000112807D026280FD109E02146304605F055
:10823000BFFA0AE02146304605F04FFC05E0214632
:10824000304605F016FE00E000BF00BF70BD2DE90E
:10825000F04105460E463446022D02D0032D12D1C0
:1082600000E000BF607868B100206070A17820460F
:1082700000F032F8074627B1A06B10B13846A16B69
:10828000884700BF00E000BF00BFBDE8F08170B5C7
:10829000044694F8540074DF012084F8B2000020F2
:1082A00084F8B4000021502001550621204601F039
:1082B00068FE054600BF284600B170BD00BFA1782A
:1082C000204600F009F8054625B1A06B10B12846FC
:1082D000A16B88470020F0E770B504460E46207871
:1082E00008B9082070BDA67001F060FE18B1012029
:1082F00060700020F6E70021B020C4F8AA10A4F8AE
:10830000AE100155A07910B1A078012809D0E0790C
:1083100010B1A078012804D0E07970B1A0780228CB
:108320000BD1606B30B1012084F8B1000820616B83
:10833000884702E0002084F8B10031462046FFF76C
:10834000D9F8A070606BA0B1A078032802D0A07803
:1083500004280ED1607960B194F8B20048B90020C9
:1083600084F8B400012084F8B3000720616B8847CB
:1083700002E0002084F8B300182104F13C00FEF76D
:10838000BAFA012084F83C0004F12C0005F018FE34
:1083900020B194F82C105120015502E00121512008
:1083A000015594F8240060B104F12C0005F008FE9A
:1083B00020B194F828105220015502E001215220EA
:1083C0000155002150200155A078052824D2DFE86E
:1083D00000F01F030A11180004F13C01204606F0CA
:1083E00013FB054619E004F13C01204606F0F4FABF
:1083F000054612E004F13C01204606F017FB054655
:108400000BE004F13C01204606F03EFB054604E08B
:10841000002084F8310000E000BF00BFA07898B1D0
:1084200004F13C0204F15400D4F8A41072DF0546B4
:108430000DB1284656E794F8301094F8540073DFD5
:1084400005460DB128464DE7606B18B194F8310030
:10845000616B8847002045E72DE9F041044600BFE5
:1084600014B90E20BDE8F08100BF1C2221461C4833
:10847000FEF728FA1B481A490860206860B1206896
:108480007ADF05460DB12846ECE7164821680A68F0
:1084900002604968416005E012487BDF05460DB186
:1084A0002846DFE7002617E006EB86000E4901EBC1
:1084B000800700BF4FF6FF70388000BF0B4800EB0D
:1084C000461078600A4A0021381DFFF793FA0546E6
:1084D0000DB10320C6E7761C002EE5D00020C1E7D1
:1084E00074310020102B002060310020403100202A
:1084F00055FA020010B50446204600F005F808B110
:10850000204610BD1420FCE710B50446142C01DBF6
:10851000002010BD2146024802F07FFBF9E7000071
:10852000943100202DE9FC4105460C461746208871
:108530000930B84202D90C20BDE8FC8168466DDFE5
:10854000064600BF304600B1F6E700BF082021888C
:1085500068542088401C20801B2021886854208873
:10856000401C208020882844DDF801100160BDF8FF
:10857000051081802088801D20809DF80000400823
:1085800018B900202188685402E00120218868542D
:108590002088401C20800020CEE70000F8B505466A
:1085A0000F462888212849D006DC10280BD0112836
:1085B00037D0132871D15CE03B286FD052286FD0A0
:1085C0005628F7D191E053490988032242EA014035
:1085D00051A103F0F9FC072000F05AFC044600BF4B
:1085E00026463EB100BF4FA240F27F113046FDF754
:1085F00011FE00BF00BFA8884E49088008460188C8
:108600004D4802F0C7FC044600BF26463EB100BFFD
:1086100044A24FF4C1713046FDF7FCFD00BF00BF1E
:1086200075E03C490988032242EA014043A103F076
:10863000CBFC4FF6FF703F49088068E03549098858
:10864000042242EA014041A103F0BEFC0020009058
:10865000A88869468FDF044600BF26463EB100BFAA
:1086600030A24FF4CA713046FDF7D4FD00BF00BF01
:108670004DE000231A4685212E4800887FDF0446FE
:1086800000BF26463EB100BF26A24FF4CD71304652
:10869000FDF7C0FD00BF00BF39E037E014E0FFE7A1
:1086A00000231A46194623480088B1DF044600BF5C
:1086B00026463EB100BF1BA24FF4D0713046FDF7F5
:1086C000A9FD00BF00BF22E0A888132176DF044681
:1086D00000BF26463EB100BF12A240F2A7113046AD
:1086E000FDF798FD00BF00BF11E0A888132176DFD9
:1086F000044600BF26463EB100BF0AA24FF4D77120
:108700003046FDF787FD00BF00BF00E000BF00BF9F
:10871000F8BD0000502C0020436F6E6E65637465D9
:10872000640000002E2E5C2E2E5C2E2E5C6D616986
:108730006E2E6300C42A0020742C002044697363E9
:108740006F6E6E65637465640000000050485920C8
:1087500075706461746520726571756573742E003F
:1087600070B505460E462888102802D011282CD155
:1087700015E01748006860B901F06AF8044600BFC8
:1087800034B11448006818B1204612490968884776
:1087900000BF0F480068401C0D49086016E00C48F7
:1087A0000068401E0A4908600846006860B9FEF784
:1087B000D6FE044600BF34B10648006818B1204612
:1087C00004490968884700BF00E000BF00BF70BDD2
:1087D0000C2B0020082B002070B504460D46208885
:1087E000102806D0112808D012280ED0502810D1F9
:1087F00007E0204604F06AFF0CE0204605F054F93B
:1088000008E0204605F066FB04E0204604F046FF41
:1088100000E000BF00BF70BD2DE9F041044688466E
:10882000A5882088102804D0112817D01A2849D1EB
:1088300018E005F083FD284605F05CFD30B900BF67
:1088400022A2E3210420FDF7E5FC06E0E07B0128FD
:1088500003D029462C4802F0EFF933E0284605F012
:1088600091FD2FE0207A0121B1EB101F01DA0120E8
:1088700000E000200646207A0221B1EB101F01DA49
:10888000012000E0002007468EB129461E48001D49
:1088900002F0D2F92FB129461B48083002F0CCF97A
:1088A0000FE029461848083002F0A8F909E02946E7
:1088B0001548001D02F0A2F929461348083002F0BD
:1088C0009DF900BF00BFBDE8F08100002E2E5C2E98
:1088D0002E5C2E2E5C2E2E5C2E2E5C2E2E5C636F5C
:1088E0006D706F6E656E74735C626C655C636F6DEA
:1088F0006D6F6E5C626C655F636F6E6E5F737461EB
:1089000074652E63000000009C3100202DE9F041C9
:1089100086B00446884617461D4600BF1CB90E2087
:1089200006B0BDE8F08100BF01AA29466069FFF7E3
:10893000C9FA064600BF304600B1F1E700BF4FF666
:10894000FF70854201D0019808B90520E8E7019839
:10895000007808B90820E3E73888F42801DD07200B
:10896000DEE700200290039004900590A088ADF807
:108970000800CDF81480049701208DF80A0002A9A0
:108980002846AEDFCCE7000070B586B005460E463F
:108990001F4B0FCB01AC0FC400BF15B90E2006B0A2
:1089A00070BD00BF00BF0EB90E20F8E700BF3068F1
:1089B000A861294601A862DF044600BF204600B135
:1089C000EDE700BF28788DF816000120ADF81400FF
:1089D000AA1C05A9A8DF044600BF204600B1DEE7B7
:1089E00000BF3146284605F05CFD044600BF204626
:1089F00000B1D4E700BF3146284606F044FC0446E7
:108A000000BF204600B1CAE700BF0020C7E7000052
:108A1000F4FD020070B504460D4605B104B970BD01
:108A20002E462088102804D0502807D057280FD170
:108A300009E02146304604F081FE0AE02146304636
:108A400005F074FA05E02146304605F079F900E0BA
:108A500000BF00BF00BFE2E770B50446204606F045
:108A60007FFF054605F0010070BD000038B503F03A
:108A70001DFF044600BF25463DB100BF15A240F2D0
:108A8000C1112846FDF7C6FB00BF00BF00200090C3
:108A90006946012003F01EFD044600BF25463DB196
:108AA00000BF0CA240F2C7112846FDF7B3FB00BF80
:108AB00000BF684603F0CEFD044600BF25463DB129
:108AC00000BF04A240F2CB112846FDF7A3FB00BF74
:108AD00000BF38BD2E2E5C2E2E5C2E2E5C6D616983
:108AE0006E2E630001460148405C7047ACFD0200F9
:108AF00010B50146094B585C00BF4FF0A044234617
:108B000000BFD3F81045C44004F001040CB10120AB
:108B100000E00020024682F0010010BDACFD020022
:108B20007CB500240DE00848055D03260020009078
:108B30003346024601460190284602F059FE00BF26
:108B4000641C042CEFD37CBDACFD020010B50446C0
:108B500004F0010008B100F04BF804F0020008B185
:108B6000FFF7DEFF10BD000010B502460949885C22
:108B700000BF4FF0A0442146D1F8043501248440C1
:108B80009C43C1F80845012484401C40C1F80C45B1
:108B900000BF10BDA8FD020010B504460249085DE3
:108BA000012102F0E2FE10BDA8FD020010B504464E
:108BB0000249085D002102F0D8FE10BDA8FD0200A8
:108BC00010B50146094B585C00BF4FF0A044234646
:108BD00000BFD3F80445C44004F001040CB10120E7
:108BE00000E00020024682F0010010BDA8FD020056
:108BF0007CB500240CE00948055D00200090034688
:108C0000012211460190284602F0F2FD00BF641CCB
:108C1000042CF0D300F004F87CBD0000A8FD020095
:108C200010B5002403E02046FFF7B6FF641C042CB7
:108C3000F9D310BD10B5002403E02046FFF7B6FFBE
:108C4000641C042CF9D310BD02464FF0FF30002104
:108C500006E0054B5B5C934201D1084602E0491CEB
:108C60000429F6D300BF7047ACFD020070B505467D
:108C70000C4600260648056014B1204605F0FEFFAC
:108C80000448006810B9FEF76AFC0646304670BD1D
:108C9000082B00200C2B002010B5002000F01CFB3E
:108CA000044600BF1CB1062C01D0204610BD00BFF9
:108CB000012000F011FB044600BF1CB1062C01D0BE
:108CC0002046F3E700BF0020F0E700002DE9F04167
:108CD00006460F464FF0000800243046FFF7B4FF69
:108CE0000446042C3ED20FB3012F02D0022F38D1FC
:108CF00030E004EB4400214911F8008004EB44000B
:108D00000844407850B11E4A4FF400411D480068A5
:108D1000FEF7BCFE05460DB91948067004EB440089
:108D2000164908448078184908551AE01548006823
:108D3000FEF7D6FE1448005D04EB44010F4A1144CF
:108D40008978884205D104EB44001146084490F824
:108D5000028006E004EB44000849084490F80180D2
:108D600000BF00BFB8F1000F06D00848006818B176
:108D70004046064909688847BDE8F0811431002063
:108D8000002B0020B8FD0200012B0020FC2A00204F
:108D900010B50446042C03D22046FFF7A9FE10BDEF
:108DA0000020FCE770B50546042D06D0072D18D02D
:108DB0000A2D2FD105F096FE2DE0132117480088CB
:108DC00076DF0446082C0BD000BF26463EB100BF1C
:108DD00013A24FF4FF713046FDF71CFA00BF00BF2D
:108DE00019E00E4800884FF6FF71884211D11048F3
:108DF000FFF74DFA0446082C0BD000BF26463EB1C3
:108E000000BF07A24FF402713046FDF703FA00BF1E
:108E100000BF00E000BF00BF70BD0000C42A0020FA
:108E20002E2E5C2E2E5C2E2E5C6D61696E2E6300E4
:108E3000802C002030B503460020042B23D2012AC9
:108E400007D1012903D103F10E04E4B200E00024AC
:108E5000224679B1012902D0022911D104E003EBA5
:108E600043040A4D2A550DE003EB4304074D2C44FF
:108E7000627007E003EB4304044D2C44A27001E050
:108E8000072000BF00E0072030BD000014310020A3
:108E900070B5044600250548007800F0010018B1BF
:108EA000204600F05BF80546284670BDF42A0020F5
:108EB0002DE9F04105460F4600241F4805601F4874
:108EC000076005F0020000B3002606E0012211460B
:108ED0003046FFF7AFFF0446761C042E01D2002C6B
:108EE000F4D034B940F2666204211548FEF7E0FB85
:108EF000044614B9FEF7C6FB04462CB9114A0021FA
:108F00001148FEF777FD044600BF05F0010080B16F
:108F10000120FFF71BFE2CB90C4A00210C48FEF77C
:108F200069FD04462CB90B4A01210B48FEF762FD8E
:108F300004462046BDE8F081F42A0020FC2A0020E7
:108F4000BCFD020005940200B8FD0200C9A50200A4
:108F5000B0FD020079760200B4FD02002DE9F04771
:108F6000044600260025D748007820B10020D549C6
:108F7000087001F015FB182C79D2DFE804F00C1111
:108F8000124579ADF1FFEEEDECEBEAE9E8E7E6E555
:108F9000E4E3E2E1E0DF01F003FBCB4804708DE1A4
:108FA00000BF0020FFF70CFE58B10020FFF7F4FDD2
:108FB000022C02D14FF4E16001E04FF47A600546E3
:108FC00009E00020FFF7F2FD022C01D1C82001E0EA
:108FD0004FF4C8700546BC4804704FF40040A5FB30
:108FE00000204FF4FA73D71840F100015A00002313
:108FF0003846FDF705FA814600224946B348006825
:10900000FEF744FD064659E10020FFF7D9FD58B1AF
:109010000020FFF7C1FD032C02D14FF4487001E09E
:109020004FF47A60054609E00020FFF7BFFD032CEE
:1090300001D1C82001E04FF4C8700546A248047071
:109040004FF40040A5FB00204FF4FA73D71840F10D
:1090500000015A0000233846FDF7D2F9814600226C
:1090600049469A480068FEF711FD064626E124E1CC
:109070000020FFF7A5FD58B10020FFF78DFD042C5F
:1090800002D14FF47A6001E04FF47A6005460AE0BD
:109090000020FFF78BFD042C02D14FF4C87001E0D3
:1090A0004FF4C8700546884804704FF40040A5FB93
:1090B00000104FF4FA73CF1840F100015A0000235A
:1090C0003846FDF79DF98146002249467F480068F1
:1090D000FEF7DCFC0646F1E00020FFF771FD50B121
:1090E0000020FFF759FD052C01D1C82001E04FF405
:1090F0007A60054609E00020FFF758FD052C01D1F4
:10910000C82001E04FF4C87005466F4804704FF462
:109110000040A5FB00204FF4FA73D71840F100017E
:109120005A0000233846FDF76BF981460022494674
:1091300066480068FEF7AAFC0646BFE0B8E0B6E065
:10914000AAE0A1E098E092E05FE05DE05BE059E03A
:1091500057E051E042E033E024E015E00EE0FFE7A5
:109160000020FFF701FD58480470002240F6CD4171
:1091700056480068FEF78AFC06469FE00020FFF78D
:1091800015FD5148047099E001204E490870FFF721
:10919000EBFC002240F6CD414C480068FEF776FC1F
:1091A00006468BE0012047490870FFF7DDFC0022EE
:1091B0004FF4804145480068FEF768FC06467DE0B4
:1091C000012040490870FFF7CFFC002240F6CD4156
:1091D0003E480068FEF75AFC06466FE00120394918
:1091E0000870FFF7C1FC00224FF480413748006847
:1091F000FEF74CFC064661E0FFF71CFD32480470A8
:109200005CE000BF00BF00BF00BF31480068FEF750
:1092100067FC0646C4F1110515B30EBB012D18D924
:10922000A8B2C82148434FF4004180FB01304FF4FD
:10923000FA729F1840F10001520000233846FDF7F2
:10924000DFF881460022494621480068FEF71EFCEF
:1092500006460220FFF7AAFC01201E49087005E01F
:109260000220FFF799FC00201A49087026E001F05F
:1092700097F91548047021E001F092F90020FFF7FA
:1092800095FC1148047019E001F08AF90120FFF7FC
:109290008DFC0D48047011E001F082F90020FFF709
:1092A00085FC0120FFF782FC0748047006E000BF40
:1092B000FFF7C0FC0448047000E000BF00BF304668
:1092C000BDE8F087F12A0020F02A0020B0FD02005E
:1092D000B4FD0200F82A002010B504460121204602
:1092E00006F0CEFC10BD00002DE9FC4704460D46FB
:1092F0001646A71C4FF001080020019001A8FEF7B8
:10930000F5FC3048006828602E4800682D494968FF
:10931000411A2C488068401CA0EB010915E001218E
:10932000294801F0ADFC01F031FA82465146264849
:1093300001F0A6FC2348006822494968411A2148E7
:109340008068401CA0EB010900BF4F45E7D8B8F189
:10935000000F30D00021009176B1009921F0030177
:10936000491C0091009921F00401091D0091009908
:1093700064F3891100910DE0009921F00301891C2B
:109380000091009921F00401091D0091009964F3F6
:109390009F5100910B4909680A4A92681140094A95
:1093A0000C3202EB810000990160064909683944DA
:1093B0000C3A116000BF9DF80400FEF79DFC40468A
:1093C000BDE8FC87EC350020083A002070B5044663
:1093D0000D46A168481CA06020684554D4E90110DE
:1093E000884202D3204602F068F870BD0448406805
:1093F00003490968884201D1012070470020FCE739
:10940000EC35002010B5044620780221FFF75EFC01
:1094100010BD0000F8B5054615490320FFF748FDCB
:10942000044600BF26463EB100BF12A240F28E2184
:109430003046FCF7EFFE00BF00BF69460020FFF793
:1094400015FC044600BF26463EB100BF09A240F20B
:1094500091213046FCF7DEFE00BF00BF9DF8000002
:10946000022801D1012000E000202870F8BD000092
:10947000A58D02002E2E5C2E2E5C2E2E5C6D616959
:109480006E2E630010B50348007808B104F06EFE3C
:1094900010BD0000982A00204FF0FF31054A42F825
:1094A0002010082804DBFF23A0F108015032535498
:1094B000704700001C3200200146024850F821008D
:1094C000704700001C3200202DE9F04F03460C4687
:1094D0004FF0FF390AB1002000E0082084460AB1AD
:1094E000082000E00C208046614624E0154850F832
:1094F0002100401CF0B91D460846274616464FFA83
:1095000080FBDFF840A00AF1300A0AF805B0DFF866
:1095100034A04AF820704EB94FFA85FBA0F1080A32
:10952000DFF820E00EF1500E0EF80AB000BF4FFA3F
:1095300081F902E0491C4145D8D300BF4846BDE847
:10954000F08F00001C320020014601484056704751
:109550004C32002070B505460DB9094C01E0084CAD
:10956000083409E0204601F014F8064606B904E084
:1095700028467168884700BFF4E700BF70BD00004F
:109580001032002010B504462CB90120064948705D
:109590000020FFF7DFFF012C04D101200249887071
:1095A000FFF7D8FF10BD0000083200202DE9F0477A
:1095B00082461F480068002836D01D4800680568AC
:1095C00004F0F4FE07461B4804682146384605F0BF
:1095D000BFFCC61C1848007808B904F0F9FEAE427A
:1095E00001D2284600E03046044424F07F4420465F
:1095F00004F0D6FE04F0DAFE80463946404605F017
:10960000A7FC00F103093946204605F0A1FC81457D
:1096100009D904F0CBFE814604F0C2FE2F2003F0EE
:10962000FDFA05F0E3FD01E004F0F0FEBDE8F0878F
:10963000582B00205C2B00206A2B002001468878E4
:10964000012805D191F82000012801D100207047A0
:10965000886A042802D0486A042801D10020F6E76D
:109660000120F4E733B58BB00546002000900C983C
:1096700078B100240BE021460CA801F0CEFA28B105
:10968000009A501C009001A820F81240641C142C71
:10969000F1D32C2269462846FDF714F90DB030BDF0
:1096A00001460888062808DB0888B0F5486F06DD03
:1096B00008884FF6FF72904201D007207047488813
:1096C000062808DB4888B0F5486F06DD48884FF665
:1096D000FF72904201D00720F0E708884FF6FF7232
:1096E000904208D04888904205D008884A88904225
:1096F00001DD0720E2E70020E0E72DE9F041074621
:109700000D46144698462088801D404502D90C20FD
:10971000BDE8F0813846FFF7C3FF064600BF30467C
:1097200000B1F5E700BF0520218868542088401C5F
:1097300020801220218868542088401C20802288A4
:109740005119388806F012F92188084420802288AF
:109750005119788806F00AF92188084420800020F1
:10976000D6E7000010B5044600BF04A24FF495717F
:109770002046FCF74FFD00BF10BD00002E2E5C2ED2
:109780002E5C2E2E5C6D61696E2E630030B587B045
:109790001C216846FDF7AFF8002000904FF4203000
:1097A00001904FF47020029003208DF80C000020EF
:1097B000ADF80E008DF810000A4805900A48069092
:1097C0006846FEF749FE044600BF25463DB100BF8E
:1097D00006A240F241112846FCF71CFD00BF00BF65
:1097E00007B030BD5DD60200659702002E2E5C2EBC
:1097F0002E5C2E2E5C6D61696E2E6300F8B50546F9
:109800000C46607A88B9207A10B91048476801E0A0
:109810000E4887682A4639466068FEF737F90646DB
:1098200016B1304604F0F0FF0EE000202072074829
:10983000406948B101208DF80000ADF8025003489E
:1098400041696846884700BFF8BD000074310020B8
:1098500010B5012200210846FFF7ECFA044600BFCC
:109860001CB1072C01D0204610BD00BF07220221E9
:109870000120FFF7DFFA044600BF1CB1072C01D01E
:109880002046F1E700BF042202210020FFF7D2FAB0
:10989000044600BF1CB1072C01D02046E4E700BFFE
:1098A0000020E1E72DE9FF4105460C4625490988DE
:1098B000042242EA01402B46224623A102F09AFBF1
:1098C000002002900390ADF80840ADF80A400090E7
:1098D00001906A4602A9284690DF0646002E2CD049
:1098E000304603F001F9074616490988012242EA89
:1098F00001403B462A46204902F07CFBBDF80000AF
:1099000010B9BDF8020058B1BDF80230BDF8002012
:109910000C490988012747EA014018A102F06AFBB7
:10992000BDF8040048B1BDF80420064909880123A8
:1099300043EA0140214902F051FB304604B0BDE842
:10994000F0810000202C00205570646174696E67FE
:109950002064617461206C656E67746820746F2088
:109960002575206F6E20636F6E6E656374696F6E10
:1099700020307825782E00007C0203005468652092
:109980007265717565737465642054582F52582040
:109990007061636B6574206C656E677468206973B1
:1099A00020746F6F206C6F6E672062792025752F91
:1099B0002575206F63746574732E0000C802030060
:1099C0002DE9F04F85B04FF000095BE031480068A9
:1099D00000EBC904227801210020CDE900010846EE
:1099E0000099FCF73EFD074688462B4806C807EA63
:1099F000010008EA020100260246724081EA0600E0
:109A000002433BD02448D0E90010B94320EA0800C3
:109A1000214AC2E90010207803F0E6F906462278D0
:109A200001210020CDE9030108460399FCF719FD47
:109A30001A4B0CCB00EA020B01EA030A22783546E6
:109A40000020029028460299FCF70BFD8BEA000BE0
:109A50008AEA010A5BEA0A0B0FD16078012800D17B
:109A600000E00020704080F0010A606820B10AF038
:109A7000FF0120786268904700BF00BF09F1010034
:109A800000F0FF090648007881459FDB05B0BDE87E
:109A9000F08F0000382B0020502B0020482B002096
:109AA0003C2B002010B50021034801F015F90446B5
:109AB00084F3100010BD0000083A0020014614484D
:109AC0000078144A127890421DD011480078401C4A
:109AD0000F4A107010460078022801D10020107043
:109AE0000D480B4A127850F8220008600B4A0868AB
:109AF00012681044094A10601046006820F07F4048
:109B00001060012070470020086000BFFAE70000E5
:109B1000682B0020692B0020602B00205C2B00208C
:109B20002DE9F84305460E46174698466946104803
:109B3000006801F02BF8044614B90420BDE8F8834E
:109B40001C212046FCF7D7FE012020712560C4F8B7
:109B5000088008480068B6FBF0F0E060676169467D
:109B60000348006801F03CF804F0A0FB0020E5E7A2
:109B7000F4FE0200E8FE020010B50446D4E9032119
:109B8000501828DF10BD000013480078062820D1A7
:109B90001148001D007800F00F00D0B90E480830C1
:109BA000007800F0F000302801D1012070470A4809
:109BB0000830007800F0F000402801D10120F5E7DE
:109BC00005480830007800F0F000502801D101204D
:109BD000ECE70020EAE70000E00F00F0134800780F
:109BE000062820D11148001D007800F00F00D0B9E0
:109BF0000E480830007800F0F000302801D1012034
:109C000070470A480830007800F0F000402801D181
:109C10000120F5E705480830007800F0F0005028F2
:109C200001D10120ECE70020EAE70000E00F00F09E
:109C300013480078062820D11148001D007800F054
:109C40000F00D0B90E480830007800F0F00030283E
:109C500001D1012070470A480830007800F0F00078
:109C6000402801D10120F5E705480830007800F0D0
:109C7000F000502801D10120ECE70020EAE70000C5
:109C8000E00F00F00A48007806280ED10848001DB1
:109C9000007800F00F0040B905480830007800F067
:109CA000F000302801D1012070470020FCE70000BF
:109CB000E00F00F006480068062806D10448001DA1
:109CC0000068062801D1012070470020FCE7000051
:109CD0003001001013480078062820D11148001DDB
:109CE000007800F00F00D0B90E480830007800F07E
:109CF000F000302801D1012070470A480830007870
:109D000000F0F000402801D10120F5E705480830B7
:109D1000007800F0F000502801D10120ECE700208D
:109D2000EAE70000E00F00F00A48007806280ED1AC
:109D30000848001D007800F00F0040B905480830C1
:109D4000007800F0F000302801D101207047002099
:109D5000FCE70000E00F00F013480078062820D14F
:109D60001148001D007800F00F00D0B90E480830EF
:109D7000007800F0F000302801D1012070470A4837
:109D80000830007800F0F000402801D10120F5E70C
:109D900005480830007800F0F000502801D101207B
:109DA000ECE70020EAE70000E00F00F00A48007846
:109DB00006280ED10848001D007800F00F0040B9B9
:109DC00005480830007800F0F000302801D101206B
:109DD00070470020FCE70000E00F00F00A48007820
:109DE00006280ED10848001D007800F00F0040B989
:109DF00005480830007800F0F000302801D101203B
:109E000070470020FCE70000E00F00F00A480078EF
:109E100006280ED10848001D007800F00F0040B958
:109E200005480830007800F0F000502801D10120EA
:109E300070470020FCE70000E00F00F030B587B06D
:109E400004460D462068806808B907B030BD182167
:109E500001A8FCF750FD0295A0680690207910B18A
:109E6000012815D109E001208DF804002069039034
:109E7000E0680490606905900BE002208DF8040012
:109E80000749E0680968484303906069059000E06D
:109E900000BF00BF2068816801A8884700BFD4E7E1
:109EA000E8FE0200F0B5034600241FE0124E3068C1
:109EB00006689E4203D90668F61A06601AE006682C
:109EC0009B1B06683444002606600B4E35680A4F1B
:109ED000C6693E60C66846B10E1926F07F464660E8
:109EE000C66886601668C661156000BF02480068D3
:109EF0000028DBD100BFF0BD582B002070B5044610
:109F00000D462A460021204600F00EF8A068401CAD
:109F1000A06070BD01468A68C868801A7047014613
:109F20008A68C868801A704710B583680B448488B3
:109F300023400468E35C137010BDC26883881A4034
:109F400003689954C268521CC260704730B5044619
:109F50001088C01C984201D90C2030BD0220158801
:109F600048551088401C10800120158848551088DD
:109F7000401C108015884C551088401C1080002013
:109F8000EBE770B504460D469822115B0122D4F828
:109F90009400FEF783F8064606B1357004F13C02E2
:109FA00004F1940104F1540072DF70BD10B500207B
:109FB00001F08AFB10BD70B504460D46E0B2FDF716
:109FC0005FFE204670BD00003EB500BF9DF800005A
:109FD00020F00F00401C00909DF8000020F0F000E1
:109FE0001030009000BF0B2216A168467CDF0446AB
:109FF00000BF254635B100BF15A2A8212846FCF7B1
:10A0000009F900BF00BF0020019002901020ADF8B8
:10A0100004003C20ADF806000020ADF808004FF425
:10A02000C870ADF80A0001A87ADF044600BF2546D3
:10A0300035B100BF06A2B2212846FCF7EBF800BFFD
:10A0400000BF3EBD4E6F726469635F55415254005C
:10A050002E2E5C2E2E5C2E2E5C6D61696E2E6300A2
:10A0600070B505460C46608811490988884213D1AD
:10A07000208840F6772188420ED1A088C01E0D4965
:10A0800008800D490988032242EA014009490B88EA
:10A090000A880AA101F0AEFF2B886A880649098860
:10A0A000042646EA01400CA101F0A4FF70BD0000A7
:10A0B000C42A0020C62A0020502C0020446174616C
:10A0C000206C656E2069732073657420746F203076
:10A0D0007825582825642900415454204D54552092
:10A0E00065786368616E676520636F6D706C657419
:10A0F00065642E2063656E7472616C2030782578FB
:10A10000207065726970686572616C20307825789E
:10A110000000000070B51149114800F090FE04469F
:10A1200000BF25463DB100BF0EA24FF4F371284693
:10A13000FCF770F800BF00BFF721094800F070FE7F
:10A14000044600BF25463DB100BF06A240F2E9111A
:10A150002846FCF75FF800BF00BF70BD61A0020099
:10A16000602C00202E2E5C2E2E5C2E2E5C6D6169E4
:10A170006E2E63002DE9F04780468A46424601264E
:10A18000002730463946FCF76CF904460D461E4858
:10A190000068FDF7A5FC8146B9F1000F01D0BDE8CC
:10A1A000F0871A4903C920402940002358405940EC
:10A1B000084321D1404602F017FE30B1144903C9CB
:10A1C00020432943124A03C207E01148D0E9001096
:10A1D000A143A8430E4AC2E900100C4903C9204319
:10A1E00029430A4A03C200220A4801680648006857
:10A1F000FDF74CFC814605E0044903C9A043A9438F
:10A20000024A03C200BFCAE7A4FE0200502B00208E
:10A21000482B0020402B002010B501F0DFFC02F09D
:10A2200007F910BD70B504460D460948606009483D
:10A2300000F01FFD50B902F095FB064908741C237D
:10A240008C2205490548006800F08CFC002070BD98
:10A25000E8FE0200CC34002040340020F4FE02006E
:10A26000024600210CE001EB8100074B33F820008F
:10A27000904204D101EB810003EB80007047491C40
:10A280000029F0D00020F9E7603100202DE9FC5FC3
:10A2900083460E4691461F46DDE90C45002E01DA45
:10A2A000704200E0304682464FF0010803E09AFB1E
:10A2B000F9FA08F10108CA45F9DA474500D9B84664
:10A2C00034B1002E03DB05F00400042800D1641E25
:10A2D00005F0020000B167B105F0010048B944B1D2
:10A2E00004E0641E20215846FFF770F80CB1A04529
:10A2F000F7D3002E05DA76422D215846FFF766F88F
:10A3000007E005F00400042803D12B215846FFF78D
:10A310005DF805F0020002280DD105F0010050B9EA
:10A320004FB944B104E0641E30215846FFF74EF89F
:10A330000CB1A045F7D33B464A4631465846CDE9D5
:10A34000004505F02BFBBDE8FC9F00002DE9F04126
:10A3500005460E464FF48E71286802F0E0FB4FF47C
:10A36000A271286802F0DBFB1C49286802F0E6FBBA
:10A37000286802F05FFC044637462046394600282C
:10A3800009DA4A074FEA126C154A00F00F031B1F47
:10A3900002F803C003E04A07130E124A135400BF29
:10A3A00000BF286802F046FC0446204600F01F0269
:10A3B000012191400C4A430942F8231000BF00BF1D
:10A3C00000F01F02012191404209920002F1E022B7
:10A3D000C2F8001100BF00BFBDE8F081800002009C
:10A3E00018ED00E000E400E080E200E02DE9F0413B
:10A3F00005460E464FF48871286802F0C0FB4FF402
:10A400009071286802F0BBFB4FF49271286802F04B
:10A41000B6FB4FF4A271286802F0B1FB1C49286812
:10A4200002F0BDFB286802F00AFC044637462046CD
:10A430003946002809DA4A074FEA126C154A00F03B
:10A440000F031B1F02F803C003E04A07130E124A52
:10A45000135400BF00BF286802F0F1FB04462046F9
:10A4600000F01F02012191400C4A430942F82310D9
:10A4700000BF00BF00F01F0201219140420992007D
:10A4800002F1E022C2F8001100BF00BFBDE8F08178
:10A490001003020018ED00E000E400E080E200E0BC
:10A4A00030B502460020137803F003031BB1137884
:10A4B000C3F380034BB31378C3F38003CBB113789A
:10A4C00003F00303012B02D0022B10D107E0138805
:10A4D000C3F383139B1C0C6823440B6008E00B68D8
:10A4E0000225146805EB945423440B6000E000BF80
:10A4F0000AE00124136804EB93531488C4F389140D
:10A5000023440C6823440B60012030BD01460348FE
:10A51000007A08B1012070470020FCE7CC3400200D
:10A520002DE9F0410446A08800EB020CB4F8048049
:10A53000904501DD104600E0A088A8EB0005E0880A
:10A54000C618B4F80680984501DD184600E0E0889A
:10A55000A8EB00074888B4F80080404504DB488831
:10A56000B4F80280404502DD0020BDE8F081888813
:10A57000A84202D38888604501D90020F5E7C88841
:10A58000B84202D3C888B04201D90020EDE70120CB
:10A59000EBE70146086808B102680A6070470000EE
:10A5A00010B50848007850B1002405E0022C02D014
:10A5B0002046FEF7F1FA641C042CF7D301E0FEF705
:10A5C0002FFB10BDF82A002010B50446044800787F
:10A5D00000F0010018B103480078FEF7BFFC10BD81
:10A5E000F42A0020F02A002010B502F007FB00201A
:10A5F0000149887010BD000008320020F721018059
:10A6000017214180002101714171FB2181711B21C2
:10A61000C17170472DE9F041064600274748D0F840
:10A62000008078E016B13446E66947E04448007897
:10A6300000EB40014248001D00EBC105001F0078FF
:10A64000401C3F490870084600788978884202D14A
:10A6500000203B4908706C68287801281AD002282D
:10A6600002D0032817D107E0686804F0DFFC00B1CE
:10A670000127002020744EE007E0304908680021DF
:10A6800001742E4AC169116000BF2C48006800287F
:10A69000F3D140E000E03EE000BF207C00B13AE0B2
:10A6A000A8686060E868A0602869E0606869A061E7
:10A6B0002448007808B10020606000BF224960682B
:10A6C0000968401A20F07F402049884208D21E497C
:10A6D0006068096804F03CFCA168084420600FE051
:10A6E00019486168006804F033FC0546A068A84278
:10A6F00003D9A068401B206001E00020206000BF5B
:10A7000000206060A060012020740020E0612046ED
:10A7100004F058FC00BF002E84D109480078084995
:10A7200049788842F8D11FB904480068404502D0F2
:10A730000120BDE8F0810020FBE70000582B00203D
:10A74000083300206B2B00205C2B0020FFFF7F00D4
:10A7500070B54FF40041002001F0E8FC044600BF52
:10A7600025463DB100BF05A24FF427712846FBF7EF
:10A7700051FD00BF00BF01F01FFA70BD2E2E5C2EF0
:10A780002E5C2E2E5C6D61696E2E63002DE9FF41FB
:10A7900000272E4800F066FA2C48001F00F062FAED
:10A7A0002B48406803902A48856803982840284928
:10A7B0000C3101EB800800BF03A94046FFF770FE93
:10A7C00030B10398284022490C3101EB800800E0A9
:10A7D00000E0F1E700BF00240AE00398411C284094
:10A7E00003911B490C3151F820004DF82400641CE2
:10A7F000022CF2D3009800F0030001280DD00228AB
:10A8000014D1BDF806700421009801EB9050401E51
:10A81000039901EB9000039009E0BDF806700098E1
:10A82000C0F3831003990844039000E000BF00BF09
:10A830000648001F00F00FFA064616B104490398B7
:10A840004860384604B0BDE8F0810000043A0020BA
:10A85000EC35002008B504F003FFFFF779FF04F0A2
:10A86000CBFC00F073FC0421194800F0C1FC00206F
:10A87000184908806846FEF7CDFD03F00BFCFEF793
:10A88000F5F8FFF7A1FBFFF745FC04F069F8FCF7CA
:10A8900091FEFEF77BFF10A0FCF7F4FC13A0FCF781
:10A8A000F1FC16A0FCF7EEFC18A0FCF7EBFC20492D
:10A8B0000988032242EA014007A101F085FBFCF769
:10A8C000BDFE00BF04F0D2FAFFF7A6FCFAE70000D5
:10A8D000859402009A2A00200D0A43616C656E641B
:10A8E00061722064656D6F0D0A0A000073202D20CF
:10A8F0005365742074696D650D0A000067202D2072
:10A900004765742074696D650D0A000072202D2062
:10A9100052756E20636F6E74696E756F75732074F7
:10A92000696D6520757064617465730D0A0A0000B5
:10A93000502C00202DE9F04105460E46144698465D
:10A94000A888871C2088801C3844404502D90C20E8
:10A95000BDE8F081FE2F01D90C20F9E7781C218891
:10A9600070542088401C2080FF202188705420884B
:10A97000401C208022889119288804F0F7FF218844
:10A9800008442080A88800280DDDA86808B90720A1
:10A99000DEE7AA8823889819A968FBF793FF208827
:10A9A000A988084420800020D2E72DE9FF5F0746F0
:10A9B0008B46144698460397039FFD88B94608F1D5
:10A9C0000400B0FBF5F0029008F10400B0FBF5F1D3
:10A9D00005FB1100019008F1040020442844401EAA
:10A9E000B0FBF5F0C0B2009004E0D9F800900298F6
:10A9F000401E029002980028F7D1824601982E1A34
:10AA0000A64201D9204600E03046064620E00E98D6
:10AA100048B109F10402019BD1180BEB0A00324640
:10AA2000FBF750FF08E00BEB0A0109F10402019B60
:10AA3000D0183246FBF746FF00200190D9F800906D
:10AA4000A41BB244A54201D9204600E02846064690
:10AA5000002CDCD1BDE8FF9F70B503460C469CB1CD
:10AA600001F096FB054600220AE0084800EB82014F
:10AA700048881E68B04202D11A60002070BD521C86
:10AA8000AA42F2D30520F9E70020F7E7202C0020A6
:10AA90002DE9F84F05460F461446984628780128B8
:10AAA00004D1687810B90720BDE8F88F2088801C91
:10AAB000404508D82878012807D12088801C69786B
:10AAC0000844404501D90C20EEE72088A8EB00009F
:10AAD000801E86B200962188891CC81969467DDFD0
:10AAE000814600BF484600B1DEE700BF2878022853
:10AAF00006D1BDF80000B04202DC4FF0090A0BE0BD
:10AB00004FF0080A2878012805D16878B04202DCA5
:10AB10006878009000E00096BDF80000FE2801D99A
:10AB20000C20C1E7BDF80000401C21887854208823
:10AB3000401C2080208807F800A02088401C20802E
:10AB40002088BDF80010084420800020ACE770B5D4
:10AB500004462046FBF7B7FB05460DB1002070BD4B
:10AB60001120FCE710B5044609B90E2010BD92FB78
:10AB7000F3F003FB102008B10920F7E72160002063
:10AB80006060A060A281E38100BFEFE770B504467A
:10AB90000D4629462046FBF74BFB18B12A88216851
:10ABA000881870BD0020FCE770B505460C4620886B
:10ABB0006188884204D12846FBF77CFB012070BDE8
:10ABC0000020FCE770B504460D4629462046FBF7F9
:10ABD00054FB18B16A882168881870BD0020FCE712
:10ABE00070B505460C4620886188884204D1284605
:10ABF000FBF73AFB012070BD0020FCE770B505466D
:10AC00000C4604F01F0301229A40D143620905EB70
:10AC1000820000F040F8064670BD10B502464809B3
:10AC200052F8200001F01F040123A340184008B18E
:10AC3000012010BD0020FCE770B505460C4604F06D
:10AC40001F03012202FA03F1620905EB820000F002
:10AC50004EF8064670BD10B504460021204600F0AF
:10AC600025F810BD10B504460121204600F03FF83C
:10AC700010BD10B504460121204600F022F810BD99
:10AC8000F8B504460D466A4629462046FBF767FBA1
:10AC900006460098F8BDF8B504460D466A462946B2
:10ACA0002046FBF742FB06460098F8BDF8B504467F
:10ACB0000D466A4629462046FBF737FB06463046D6
:10ACC000F8BDF8B504460D466A4629462046FBF70E
:10ACD0001FFB06463046F8BDF8B504460D466A46E9
:10ACE00029462046FBF708FB06463046F8BDF8B576
:10ACF00004460D466A4629462046FBF709FB0646F0
:10AD00000098F8BDF8B504460D466A462946204627
:10AD1000FBF732FB06460098F8BDF8B5044600265E
:10AD2000002000906846FCF7E1FF20680068616839
:10AD3000884215D920680068401E2268106001789A
:10AD4000204600F033F80646207A21680978401A38
:10AD5000C5B220680079A84201DA2068057100BFF9
:10AD60009DF80000FCF7C8FF3046F8BD0246D068E9
:10AD7000081A938AB0FBF3F0C0B27047F8B50446E6
:10AD80000D462E46002000906846FCF7AFFF314686
:10AD90002046FFF7EBFF21680A68511C2368196001
:10ADA00010709DF80000FCF7A7FFF8BD0246938ADB
:10ADB000D06801FB0300704710B5014600BF09B918
:10ADC0000E2010BD00BF087A0B79C01AC2B2D1E9BB
:10ADD0000030186005E008680368581C0C682060A3
:10ADE0001A70101EA2F10103DAB2F4D10B681871C7
:10ADF00000BFE6E730B502460B46D40802F0070272
:10AE0000012090401D5D284030BD30B50B46C20882
:10AE100000F007009C5C012585402C439C5430BD0C
:10AE2000024600BF0AB90E20704700BF172901DB98
:10AE3000F72901DD0720F7E711800020F4E770B55E
:10AE400004460E4600BF0CB90E2070BD00BF26613F
:10AE5000F72020806080FB202071002505E0A11DE7
:10AE600001EBC500FFF7CAFB6D1C002DF7D00020D9
:10AE7000EBE700002DE9F047064688464546B488D2
:10AE8000012C01DBBDE8F0873088242820D006DCC7
:10AE9000102809D011280CD0232823D11DE03A28EE
:10AEA0000CD055281ED10EE03146284602F088FC11
:10AEB00019E03146284602F029FE14E031462846C2
:10AEC00002F0E2FE0FE03146284602F029FE0AE0D9
:10AED0003146284602F008FD05E03146284602F0DA
:10AEE0009FFD00E000BF00BFA81D00EBC40000797B
:10AEF00050B3A81D30F834102046A5DF0746B7B977
:10AF00000021A81D00EBC40001710121A81D00EB68
:10AF1000C4004171A91D31F834200F490988042368
:10AF200043EA014023460D4901F064F810E0112F77
:10AF30000ED0384601F0D8FD814607490988012224
:10AF400042EA01404A4600E003E005A101F046F86C
:10AF500000BF00BF96E70000202C00203402030051
:10AF600073645F626C655F67617474635F65786367
:10AF700068616E67655F6D74755F72657175657325
:10AF80007428292072657475726E65642025732E8D
:10AF900000000000024600BF0AB90E20704700BF43
:10AFA00000BF1078DE2801D00820F7E700BF5180ED
:10AFB0000020F3E7024600BF0AB90E20704700BF29
:10AFC00000BF09B90E20F9E700BF1078DE2801D1D3
:10AFD0000820F3E708685060DE2010704FF6FF701D
:10AFE00050800020EAE770B504460E4600BF06B95F
:10AFF00070BD00BF00BF04B9FAE700BF354600BF0F
:10B000002878DE2800D0F3E700BFA088698888424E
:10B0100002D1284604F067FD2088022806D00328C4
:10B0200009D0112811D0512817D109E0211D284637
:10B0300002F040FF12E0211D284602F03AFF0DE029
:10B04000211D284602F0E0FE08E0A08869888842B9
:10B0500002D14FF6FF70688000E000BF00BF00BF64
:10B06000C6E7000038B5094800680949096801EBDE
:10B07000D00000906846FBF77FFC04462C22214656
:10B080000448FBF71FFC034838BD0000044502409C
:10B09000D02A00205830002038B5194890ED000A19
:10B0A000B5EEC00AF1EE10FA26D01648006816492F
:10B0B000096801EBD00415480068201A00EE100A58
:10B0C000F8EE400A0E4890ED001AB6EE000A00EEC7
:10B0D000810ABCEEC00A10EE100A0C490968084447
:10B0E00000906846FBF748FC05462C222946084894
:10B0F000FBF7E8FB064838BDFFF7B4FFFBE70000AD
:10B10000D82A002004450240D02A0020D42A00205A
:10B110005830002070B5044614B1FFF7BDFF01E0C0
:10B12000FFF7A0FF05462B4603A250210648FBF778
:10B130001FFA054870BD00002578202D2025483ACB
:10B14000254D3A25530000008430002010B5012021
:10B150001F49086000201F4908600120810788609E
:10B1600000BF1C4800680028FBD040F6FF701A4959
:10B1700008604FF48020194908601949C1F8040398
:10B1800018480068C100144840300160012014498B
:10B19000086024200321002807DA4A07140E124A07
:10B1A00000F00F031B1FD45403E04A07130E0F4A8D
:10B1B000135400BF242000F01F02012191404209D6
:10B1C000920002F1E022C2F8001100BF10BD0000A1
:10B1D0001805004004010040084502404443024075
:10B1E00000400240DC2A002018ED00E000E400E00E
:10B1F000094A1060094A1160094A1268094B1B6824
:10B2000003EBD202074B1A600122074B9A60CB0076
:10B21000034A443213607047E02A0020DC2A0020F1
:10B2200004450240D02A0020004002402DE9F047AA
:10B2300004460D4616461F46DDE90889A4F26C70E7
:10B240001C49486108460561C6608760C0F80480F3
:10B25000C0F80090FBF718F917490860012017495A
:10B26000886017480068E0B113480068144909680D
:10B27000401A144908601448006811490968401AC6
:10B28000124908600F4890ED000AF8EE400A08469F
:10B2900090ED000AB8EE400A80EE801A0C4880ED6E
:10B2A000001A054800680649086007490860BDE8BB
:10B2B000F08700002C300020EC2A002000400240E3
:10B2C000D42A0020E82A0020D02A0020E42A0020E6
:10B2D000D82A002001464FF08040405808B1012094
:10B2E00070470020FCE708B500224FF080410A506B
:10B2F0000958009100BF08BD01490860704700006F
:10B3000008030040012291070A50704710B500243D
:10B310000C48007808B1852411E0002009498860B4
:10B3200048600861C860084801F056FC044601F016
:10B3300019FB08B901F046FC0120024908702046BB
:10B3400010BD0000083200208595020008B50020DD
:10B3500000906846FCF7CAFC0748C068401E0649D2
:10B36000C8600846C06808B9FFF73EF99DF80000BC
:10B37000FCF7C2FC08BD0000083200202DE9F041B6
:10B3800088B004460F46154626781A4840F82650DD
:10B390001949386941F82600787F184988552022D4
:10B3A00039466846FBF78EFA04964FF0000820787D
:10B3B0001249085C50B10DB1114800E0002002466E
:10B3C0006946201D01F044FF80460EE020780B49BD
:10B3D000085C50B90DB10B4800E0002002466946F8
:10B3E00004F10C0001F0FCFD8046404608B0BDE8C9
:10B3F000F0810000182B00201C2B0020202B0020A7
:10B400001DF8020029F602002DE9F04104460D4620
:10B410001646002720780C49085C30B13246294690
:10B42000201D01F055FF07460AE020780649085C18
:10B4300030B93246294604F10C0001F015FE0746EA
:10B440003846BDE8F0810000202B00202DE9F041B6
:10B4500004460D461646002720780C49085C30B19A
:10B4600032462946201D01F0CFFF07460AE020782A
:10B470000649085C30B93246294604F10C0001F057
:10B4800085FE07463846BDE8F0810000202B0020ED
:10B490000FB438B50446059810B938BC5DF814FBF4
:10B4A0000020009006A800906A462046059900F00A
:10B4B00012F80020009000BFEFE770B50446A068C6
:10B4C00000B970BDD4E90403A26821689847002040
:10B4D000A06000BFF5E72DE9FC5F82460D461446EB
:10B4E0000DB9BDE8FC9F00BF2E786D1C06B9E1E0E8
:10B4F000252E70D100274FF0010900BF2E782B2E8A
:10B500000CD02D2E02D0302E0CD103E047F00107D5
:10B510006D1C0AE047F002076D1C06E047F00407C7
:10B520006D1C02E04FF0000900BF00BFB9F1000F31
:10B53000E4D14FF0000800BF2A2E06D12168081D73
:10B540002060086880446D1C0DE02E78302E01DBF1
:10B55000392E00DD07E06D1CA6F1300008EB8801F4
:10B5600000EB4108E8E700BF4FF0000B2E782E2ECD
:10B5700010D16D1C00BF2E78302E01DB392E00DD7E
:10B5800007E06D1CA6F130000BEB8B0100EB410BCB
:10B59000F1E700BF2E7800BF6C2E01D0682E02D1DB
:10B5A0006D1C2E7800E000E0F6E700BF692E21D088
:10B5B00008DC252E6DD0582E39D0632E0CD0642E89
:10B5C0006CD116E0702E4CD0732E3ED0752E1FD04D
:10B5D000782E63D12AE065E02168081D2060D1F84B
:10B5E000009009F0FF00019050460199FDF7EEFE32
:10B5F00055E000BF2168081D2060D1F800905B462F
:10B600000A2249465046CDE90087FEF73FFE46E054
:10B610002168081D2060D1F800905B460A22494647
:10B620005046CDE9008704F0B9F938E000BF216841
:10B63000081D2060D1F800905B4610224946504614
:10B64000CDE9008704F0AAF929E02168081D2060EF
:10B65000086801903B4642465046019903F08CFB36
:10B660001DE02168081D2060D1F80090302150466F
:10B67000FDF7ACFE78215046FDF7A8FE002008211A
:10B680000B461022CDE900104946504604F086F9D9
:10B6900005E025215046FDF799FE00E000BF00BF00
:10B6A0006D1C03E031465046FDF790FE28780028D7
:10B6B0007FF41AAF00BF9AF80C0010B15046FFF7A4
:10B6C000FCFE00BF0DE7000070B504460CB1206819
:10B6D000D0B900250EE005EB85000E4901EB800492
:10B6E000206830B12068C1692046884708B1012030
:10B6F00070BD6D1C08480749401A1421B0FBF1F0D9
:10B70000A842E8D80020F3E72068C16920468847AE
:10B71000EEE70000000000000000000002460120EB
:10B72000044B58741846007A08B90120704700206D
:10B73000FCE70000CC34002070B504460D46012C17
:10B7400001D0032C0BD1002005494874012C01D1F4
:10B75000012000E000200249087402F05FFD70BD86
:10B76000CC34002070B504460E46022C02D0032CC7
:10B7700000D070BD1C48007A20B1012803D00228F7
:10B7800026D101E0F5E723E00025022C02D0032CAE
:10B790000CD105E01548006802F006FB054606E0FE
:10B7A0001248006802F0EEFA054600E000BF00BF54
:10B7B0006DB100200C490872022C00D100E00D2070
:10B7C00001460A480068FEF739FB02F005FD00BF9C
:10B7D00000BF0548407C10B902F020FD01E001F0F7
:10B7E000C7F800BFC5E70000CC3400209C2B002028
:10B7F000F0B5DDE9054500BF4FF0A0473E4641EA00
:10B80000420747EA830747EA042747EA054C06F55B
:10B81000E06747F820C0F0BDF0B5DDE9054500BFA1
:10B820004FF0A0473E4641EA420747EA830747EA0E
:10B83000042747EA054C06F5E06747F820C0F0BD4D
:10B84000F0B5DDE9054500BF4FF0A0473E4641EAAF
:10B85000420747EA830747EA042747EA054C06F50B
:10B86000E06747F820C0F0BDF0B5DDE9054500BF51
:10B870004FF0A0473E4641EA420747EA830747EABE
:10B88000042747EA054C06F5E06747F820C0F0BDFD
:10B890007CB505460C460020009023460246014632
:10B8A00001902846FFF7CCFF7CBD7CB505460C46D1
:10B8B0000020009023460246014601902846FFF7EB
:10B8C000D3FF7CBD1CB50446002000900346012236
:10B8D000114601902046FFF7B3FF1CBD1CB504467E
:10B8E0000020009003460122114601902046FFF7F8
:10B8F000BBFF1CBD10B50A4600BF4FF0A043194660
:10B9000001F5E06353F8203023F4403401F5E0639F
:10B9100043F8204053F8203043EA024401F5E06345
:10B9200043F8204010BD014600BF4FF0A040024642
:10B9300000BFD2F81005C84000F00100704700BFFA
:10B940004FF0A0410A46012303FA00F1C2F808159E
:10B9500000BF704700BF4FF0A0410A46012303FA21
:10B9600000F1C2F8081500BF704710B561B900BFFB
:10B9700000BF4FF0A0421346012404FA00F2C3F8BE
:10B980000C2500BF00BF0CE000BF00BF4FF0A0427D
:10B990001346012404FA00F2C3F8082500BF00BFD3
:10B9A00000BF10BD38B50B46074C24680094014613
:10B9B00006E05DF82140D4F810551560121D491CB1
:10B9C000C4188C42F5D838BD04FE02000146014877
:10B9D000084470470060004038B504462046FFF731
:10B9E000F5FF002101602046FFF7F0FF006800909E
:10B9F00000BF38BD10B504462046FFF7E7FF0068DA
:10BA0000012800D110BD0020FCE7000001490860BA
:10BA1000704700000463004070B504460E46FCF712
:10BA200035FA0546681C08B9284670BDE8B2207290
:10BA300000BF0A48D0F8100428B90848C0F81044DC
:10BA40000020606008E00548D0F81004406860609D
:10BA50000248D0F8100444602846E6E7EC350020A0
:10BA6000704710B5FBF7BEF910BD704738B50446F6
:10BA70000D4604484023044A29460090204600F021
:10BA800005F838BD45E80200EC3400202DE9F04F00
:10BA900093B082460E4617469846DDF870903046C1
:10BAA00000F06DFC18210DA8FAF725FF0D97CDF8D1
:10BAB0003880CDF8489000252B46082207A930464B
:10BAC00000F07AFC082509980A90BDF82000ADF82E
:10BAD0002C00BDF82200ADF82E0000208DF83100BA
