:020000040002F8
:1060000080830020156302001D6302001F630200ED
:1060100021630200236302002563020000000000E8
:1060200000000000000000000000000027630200E4
:1060300029630200000000002B6302002D630200B0
:106040000D6602002F630200A56C020005690200C4
:106050002F6302002F630200456402005D670200A7
:106060002F6302007D6C0200916C02002F6302001E
:106070002F6302002F6302002F6302002F630200D0
:106080002F630200656602002F6302002F63020087
:10609000596902002F6302005D6902002F6302004C
:1060A0002F6302002F6302002F6302002F630200A0
:1060B0002F6302002F6302000000000000000000B8
:1060C0002F6302002F6302002F6302002F63020080
:1060D000896602002F6302002F63020000000000A7
:1060E00000000000000000000000000000000000B0
:1060F00000000000000000000000000000000000A0
:10610000000000000000000000000000000000008F
:10611000000000000000000000000000000000007F
:10612000000000000000000000000000000000006F
:10613000000000000000000000000000000000005F
:10614000000000000000000000000000000000004F
:10615000000000000000000000000000000000003F
:10616000000000000000000000000000000000002F
:10617000000000000000000000000000000000001F
:10618000000000000000000000000000000000000F
:1061900000000000000000000000000000000000FF
:1061A00000000000000000000000000000000000EF
:1061B00000000000000000000000000000000000DF
:1061C00000000000000000000000000000000000CF
:1061D00000000000000000000000000000000000BF
:1061E00000000000000000000000000000000000AF
:1061F000000000000000000000000000000000009F
:10620000DFF80CD000F0E0F8004800476DA602006F
:106210008083002000B583B002900091019244F287
:10622000010071466A4600F0CFFE03B000BD0000D9
:1062300030B4044654E8000F0D4644E80053002BE8
:10624000F8D1156030BC704730B4044654E8000FF4
:1062500040EA010544E80053002BF7D1156030BC3B
:10626000704730B4044654E8000F00EA010544E8E2
:106270000053002BF7D1156030BC704730B4044692
:1062800054E8000F80EA010544E80053002BF7D1E1
:10629000156030BC704730B4044654E8000F00EB82
:1062A000010544E80053002BF7D1156030BC70475E
:1062B00030B4044654E8000FA0EB010544E8005355
:1062C000002BF7D1156030BC704770B404464FF016
:1062D000000054E8006F0D68AE4207BF44E8002399
:1062E000012044E800630E60002B1CBF0020F0E793
:1062F00070BC704730B4044654E8000F88422CBF8D
:10630000451A054644E80053002BF5D1156030BC12
:10631000704700000648804706480047FEE7FEE752
:10632000FEE7FEE7FEE7FEE7FEE7FEE7FEE7FEE745
:106330006169020001620200202A04DB203A00FAAF
:1063400002F1002070479140C2F1200320FA03F3CC
:106350001943904070470000004870476CEE0200FF
:1063600040EA01039B0703D009E008C9121F08C0D7
:10637000042AFAD203E011F8013B00F8013B521E57
:10638000F9D27047D2B201E000F8012B491EFBD2CE
:1063900070470022F6E710B513460A460446194630
:1063A000FFF7F0FF204610BD421C10F8011B00292A
:1063B000FBD1801A7047034611F8012B00F8012B1E
:1063C000002AF9D118467047064C074D06E0E068F0
:1063D00040F0010394E8070098471034AC42F6D32C
:1063E000FFF712FF40F6020060F6020070B58C184D
:1063F00010F8015B15F0070301D110F8013B2A11D9
:1064000006D110F8012B03E010F8016B01F8016BC5
:106410005B1EF9D12B0705D40023521E0DD401F8C1
:10642000013BFAE710F8013BCB1A921C03E013F88A
:10643000015B01F8015B521EF9D5A142D8D30020BF
:1064400070BD00002DE9F04700268AB0DFF85091BA
:10645000B0464FF48075012437460696284605F06D
:1064600031F838B1D9F80403204203D0284605F0AA
:106470001FF826432D1D64007F1CADB2082FEDD3FD
:106480004FF4BE74204605F01DF848B1204605F0D3
:106490000FF846F0004606AA0121002004F0F4FFA0
:1064A000404D16F0FF0F15D00127002437420DD0C4
:1064B00009EB8401D1F81005D1F81015C0F30420C0
:1064C00055F82420C1F3014102B190477F00641CBC
:1064D000082CEBD3002E5FDA4FF0FF30CDF81080A0
:1064E00054E0281910F8507F90F9000027F0C008F8
:1064F000401C3BD007A9404604F05BFC10B34FEAB8
:106500009719404601F068FE55F820701FB1B9F1A7
:10651000030F03D006E0B9F1030F27D104A94046C9
:1065200004F04FFC4FF0A04101EB8800D0F80007C9
:1065300006A9C0F3014A404604F03BFC18B1BAF189
:10654000020F03D012E0BAF1030F0FD1B9F1030F1C
:1065500008D1BAF1020F1DD00221404604F055FFC8
:10656000761CF6B217B149464046B847641C042C65
:10657000B7D3002E10D06A460121002004F084FF1A
:1065800006990098884207D0069004980026344661
:106590000790A6E70321E0E70AB0BDE8F087000016
:1065A000006000409C38002000F01F020121914053
:1065B0004009800000F1E020C0F88012704700F030
:1065C0001F02012191404009800000F1E020C0F845
:1065D0000011704700F01F02012191404009800026
:1065E00000F1E020C0F8001270474907090E0028AA
:1065F00006DA00F00F0000F1E02080F8141D70476B
:1066000000F1E02080F800147047000070B54FF4EE
:106610008076304604F013FD114CB50560B130466C
:1066200004F014FD0120C5F80803607920B90120A9
:1066300060712168002088474FF48276304604F06C
:10664000FEFC00280AD0304604F000FD0220C5F808
:1066500008032168BDE870400120084770BD0000B4
:10666000A42B002007480021C0F84011C0F84411B5
:10667000C0F84811C0F84C11C0F80011C0F804115E
:1066800008F058B80010014004220021014803F02E
:1066900051BE00000040024010B5064CA068002822
:1066A00007D0054805F080FF034805F01FFF0020D4
:1066B000A06010BD902B0020A8EA0200064910B58A
:1066C0004860012088600146044805F075FFBDE878
:1066D0001040024805F016BF902B0020A8EA0200E7
:1066E0000148406870470000902B00201CB50B4902
:1066F0000B4AD1E90001CDE9000140F6FF70ADF889
:10670000000006486946083005F008FF002803D05D
:1067100004A22C21FFF77EFD1CBD0000A0EA0200B0
:10672000DDCF02002E2E5C2E2E5C2E2E5C2E2E5CDB
:106730002E2E5C2E2E5C636F6D706F6E656E7473A3
:106740005C6C69627261726965735C7274635C62CD
:106750006F6172645F7274632E6300002DE9FE4303
:106760004FF48278404605F08FFA4C4F00254C4C90
:10677000012600B3404605F08FFA94F82E0010B1C0
:1067800094F82F10D1B18DF80050616801912189E2
:10679000ADF80810E26832B1218B6183626021811B
:1067A000E56010B102E0257400E03E6021686846B3
:1067B000884784F82F5094F82E0060B34FF4807708
:1067C000384605F061FA30B3384605F065FA628B59
:1067D00094F82D108A420AD9A2EB010080B260839E
:1067E0002289A2EB0000626802EB400005E007D1BD
:1067F000E06828B184F82F60658305F033FA04E07F
:106800008A4202D184F82F606583404605F044FA3D
:106810002248001D06604FF48877384605F034FAA8
:1068200048B1384605F038FA257402208DF800008A
:106830002168684688474FF48A77384605F024FA7D
:1068400028B1384605F028FA2574BDE8FE834FF0DC
:1068500000484FF48C7967691DE000BFB7FA87F0F4
:1068600028FA00F109EB80058F43284605F00CFA61
:1068700088B1284605F010FAA5F58C75E8088DF862
:10688000040045F38000401C8DF800608DF8050081
:10689000216868468847002FE0D1D6E700700040A5
:1068A0001039002000F004BA70B50E46144900EB10
:1068B000400001EBC0051446E86A183520B10128F4
:1068C0000FD0022805D113E0284600F025FAA04297
:1068D00001D2002411E022463146284600F054FA45
:1068E0000BE0284600F018FAA042F4D20446F2E782
:1068F0003146284600F01BFA0446204670BD0000D1
:10690000F8400020F8B51248124E04464FF48C713E
:1069100005F015FC00281AD00025C4F81851D4F849
:1069200018010090F07F3446FF2806D0A17F11B1F6
:1069300004F083FD01E004F08EFD65772572D4E953
:10694000002101B004F10800BDE8F0401047F8BD97
:10695000003000405839002007F03ABE05F070BB07
:10696000F0B5B5480023021D0178101D01254FF038
:10697000805406290BD11678360708D10678C6F35D
:106980000316032E06D0042E04D0052E02D00629AD
:1069900007D00EE0B4F82463A84FC6F304263E6087
:1069A00002E01678360704D10678C6F30316032EE4
:1069B00002D0062904D00FE0A24FA14E7E670EE060
:1069C0001678360708D10678C6F30316032E06D0CC
:1069D000042E04D0052E02D0062907D00EE0D4F8EC
:1069E0004462994FC6F342363E6002E0167836079D
:1069F00004D10678C6F30316032E02D0062906D06A
:106A000011E0924E376827F0807737600EE01678F5
:106A1000360708D10678C6F30316032E06D0042ED7
:106A200004D0052E02D006290AD011E04FF080468E
:106A3000C6F80C31C6F81031834E361F336002E0C1
:106A40001678360704D10678C6F30316032E02D053
:106A5000062905D00CE07C4F032664373E600AE02F
:106A60001678360704D10678C6F30316032E02D033
:106A700006290DD014E0764F05263E60744E783618
:106A80003560734E083633603F263F1D3E6002E09E
:106A90001678360704D10678C6F30316052E02D001
:106AA000062957D062E06B4E36686B4F3E60694EE8
:106AB000361D36683F1D3E60664E083636683F1DFF
:106AC0003E60644E0C3636683F1D3E60614E1036A7
:106AD00036683F1D3E605F4E143636683F1D3E608F
:106AE0005C4E183636685C4F20373E60594E1C3677
:106AF00036683F1D3E60574E203636683F1D3E606B
:106B0000544E243636683F1D3E60524E2836366855
:106B10003F1D3E604F4E2C3636683F1D3E604D4E49
:106B2000303636684C4F40373E604A4E3436366811
:106B30003F1D3E60474E383636683F1D3E60454E2D
:106B40003C3636683F1D3E60424E403636683F1D3B
:106B50003E6002E01678360708D10678C6F30316C1
:106B6000032E06D0042E04D0052E02D0062907D00D
:106B700019E0D4F85812394A01F04F01116002E0CF
:106B8000117809070FD10078C0F30310032803D050
:106B9000042801D0052806D131480168C90702D070
:106BA0006FF001010160D4F83001062808D1D4F853
:106BB0003401062804D12B48016841F4806101604A
:106BC00022487438016841F470010160BFF34F8FAF
:106BD000BFF36F8F4FF01021D1F80002002803DBC4
:106BE000D1F80402002822DA1F4A15601F48046801
:106BF000002CFCD01524C1F800420568002DFCD003
:106C0000C1F8044201680029FCD013600168002922
:106C1000FCD0BFF34F8F0D48F0380168144A01F4DF
:106C2000E06111430160BFF34F8F00BFFDE71249E0
:106C300010480860F0BD0000E00F00F04035014052
:106C40000DF0ADBA00C007403C050040FCED00E08F
:106C5000105600400404001020C50040E40E00401F
:106C6000000400403C17004004E5014000E40140FE
:106C70000400FA050090D003742C0020042202497D
:106C8000024803F033BB0000F838002000900040B9
:106C900004220249024803F029BB00000439002005
:106CA00000A000400148006800470000AC2B002015
:106CB00010B5124C02202061606111A0A06104F1A6
:106CC0007800E0614FF4007020620020A0626062F2
:106CD0000BA1A164E06204F51E71E1641021A065BE
:106CE000C4E91410E06509A1E01DFFF764FB08A1E9
:106CF0002046FFF760FB2020A07110BDF840002067
:106D00005465726D696E616C00000000525454004D
:106D100053454747455200000269C1688A4203D87B
:106D20008068401A104400E0501A401E70472DE958
:106D3000F047C4681746894606464FF00008306998
:106D4000A04201D9051B02E0B168201A0D1AB068F3
:106D50006D1E001BA84200D80546BD4200D33D462B
:106D600070682A4620444946FFF7FAFAB0687F1B4C
:106D70002C44A844A944A04200D10024F460002F70
:106D8000DDD14046BDE8F0872DE9F0410446884654
:106D9000D4E90207C51BE168606816460844B5429D
:106DA00006D94146FFF7DCFAB819E060BDE8F0818A
:106DB0002A464146FFF7D4FA761B08EB0501324616
:106DC0006068FFF7CDFAE660F0E702E008C8121F3E
:106DD00008C1002AFAD170477047002001E001C1C4
:106DE000121F002AFBD170470121202803DA8140BD
:106DF0000548014003E0402802DA2038814009B10B
:106E00000120704700207047FC06FFBD30B52A48BE
:106E1000A5B03C21406824902848807C8DF89200E1
:106E20006846FFF7B6FA02208DF8000001248DF8BD
:106E3000024006208DF803003C210FA8FFF7A9FAB5
:106E400024A81F4D1490ADF84C402A1D68462968AF
:106E500000F0DEFB20B11BA240F20311FFF7DAF9CC
:106E6000174A0FA80C32A96800F0D2FB20B115A276
:106E70004FF48371FFF7CEF918211EA8FFF789FAA6
:106E800000208DF88D408DF87840ADF884001F907B
:106E90008DF88C004FF4C850094920901EAAA1F12A
:106EA000400072DF002804D006A240F21511FFF75F
:106EB000B1F925B030BD000030EA0200E034002016
:106EC000682B00202E2E5C2E2E5C2E2E5C6D6169B0
:106ED0006E2E6300074810B50121007873DF20B1E2
:106EE000054A4FF40571FFF795F9BDE81040002001
:106EF00001F08CB8282B002000A9020070B50024F6
:106F0000084D05E0686810F8340005F097F9641C36
:106F100028788442F6D304484068BDE8704000F009
:106F200029BB0000C02B00200CEB020070B5002430
:106F3000064D06E06868012110F8340005F0A2F95A
:106F4000641C28788442F5D3002070BDC02B00203B
:106F5000F8B515460C460646052A01D20720F8BDAD
:106F600005F08CFA18B905F051FA0028F7D112494A
:106F700000224E600C708D60C1E90422C1E9062236
:106F80000E4D0DE006EBC4002968009181788DF864
:106F9000011000780A4A694605F0C6F90028DED1DA
:106FA000641EE4B2EED2BDE8F84004480021054A70
:106FB000001D00F05FBA0000C02B00200CEB0200A7
:106FC00079A1020069880200FEB515460E46074603
:106FD00072B604F00FFD00BF04F044FB0028FBD1A3
:106FE0002249234A0120891AC90800EB0144012FD4
:106FF00023D06FF48050381822D0B0F5405F24D0F1
:107000006FF44051C84206D12B88204619A16A6806
:1070100004F04DFC04E0204632461DA104F040FC83
:1070200021480068C00700D000BE2A4603B03146A0
:107030003846BDE8F04000F079B820461BA101E0D9
:10704000204622A104F028FCEAE7A86805F098F899
:107050000346D5E90001CDE900100296204624A19F
:10706000AA6804F02CFC20462BA1EBE7D8F602001E
:1070700070F60200415353455254494F4E20464149
:10708000494C45442061742025733A257500000061
:10709000554E4B4E4F574E204641554C542061742F
:1070A0002030782530385800F0ED00E0534F46543A
:1070B0004445564943453A20415353455254494F5C
:1070C0004E204641494C454400000000534F465471
:1070D0004445564943453A20494E56414C4944207F
:1070E0004D454D4F525920414343455353000000F5
:1070F0004552524F52202575205B25735D206174E7
:107100002025733A25750D0A50432061743A2030CA
:107110007825303878000000456E64206F66206561
:1071200072726F72207265706F72740008B50123FD
:107130008DF800309DF80030144B186059609A604B
:107140006FF48041401807D001280FD1DA60D86869
:1071500000889861D86807E01A61186980685861EA
:1071600018690068986118694068D861186858689B
:107170009868D868186958699869D86972B600BF64
:107180009DF800000028FBD162B608BD9C390020A4
:10719000164B10B593F822402CB193F82240032CE3
:1071A00003D0112010BD082010BD82B1042483F843
:1071B00022409C7A240700D44902C3E903019A8241
:1071C0000020DA829883012A03D9522002E00720A6
:1071D00010BD5120012205F0BDFF20B104A240F2F4
:1071E0000441FFF717F8002010BD0000E03A00202E
:1071F0002E2E5C2E2E5C2E2E5C2E2E5C2E2E5C2EC9
:107200002E5C636F6D706F6E656E74735C6C69621B
:107210007261726965735C7364636172645C6170EE
:10722000705F7364636172642E63000070B51E4BFF
:10723000144693F822202AB193F82220032A03D07F
:10724000112070BD082070BD04B3052283F82220F0
:107250009A7A150700D44902C3E903019C820020F1
:10726000DC829883012C13D002F0070001284FF034
:10727000010217D02146D72005F06CFF20B10BA2E8
:1072800040F23E41FEF7C6FF002070BD072070BDF2
:107290000122582005F05EFF0028F5D003A240F23D
:1072A0002F41EFE75920E7E7E03A00202E2E5C2E31
:1072B0002E5C2E2E5C2E2E5C2E2E5C2E2E5C636F92
:1072C0006D706F6E656E74735C6C69627261726909
:1072D00065735C7364636172645C6170705F736436
:1072E000636172642E630000054890F82210032940
:1072F00004D090F8220008B10120704700207047A8
:10730000E03A0020044890F82210032901D3001D20
:107310007047002070470000E03A0020F0B5314C83
:10732000054687B094F822000F4610B1082007B038
:10733000F0BD002F54D0E878FF2851D06978FF299C
:107340004ED02978FF294BD0A978FF2948D00026B4
:1073500084F858000122009633461146019604F045
:1073600030F894F8580004F07DF81F4B0DF1080C2C
:107370000FCB8CE80F00A8788DF8080028788DF8DE
:10738000090068788DF80A0017480023174A02A9F7
:10739000103803F097FE20B115A240F26741FEF7C6
:1073A00039FF44F8227B012004F819090D4B60785D
:1073B000383320F00F006070A676FF20E0770A20B7
:1073C000009009480122A3F11001103803F0B2FE29
:1073D00020B107A240F27341FEF71CFF0020A6E790
:1073E0000720A4E7E03A0020A8EC02003DDD0200FF
:1073F0002E2E5C2E2E5C2E2E5C2E2E5C2E2E5C2EC7
:107400002E5C636F6D706F6E656E74735C6C696219
:107410007261726965735C7364636172645C6170EC
:10742000705F7364636172642E6300007CB50F4DFE
:1074300095F8220028B195F82200032803D01120E6
:107440007CBD08207CBD0A4805F082FA002495F82E
:10745000580000942346224621462235019403F029
:10746000B0FF6C702C7000207CBD0000E03A002062
:107470009CEC0200074B9B7823B12AB120B1006835
:10748000037C1BB10820704707207047417442619C
:1074900000207047BC39002070B505F081FD104810
:1074A00000240B21047044700E4D817014206C6018
:1074B0002C706C70FFF778F806211420FFF795F810
:1074C0001420FFF77CF80848046006211120FFF71C
:1074D0008CF80548001F0068A860002070BD0000FF
:1074E000BC390020E02B0020081501402DE9FC47A5
:1074F000DFF8789099F8023073B368B3052902D2A7
:107500000720BDE8FC87436933B3437C012B25D0BA
:10751000002704460025884616468DF80050684628
:1075200000F038F801A807F0E5F9C8B101210170B1
:107530000F4944600968C0E90218C0E904769DF863
:10754000040089F801009DF8000000F047F81420BD
:10755000FFF740F82846D4E70820D2E70F46D8E7DF
:1075600004259DF8000000F039F8F3E7BC3900204D
:10757000041501400649897839B130B1416921B11A
:1075800000210174022107F0B1B808207047000003
:10759000BC39002030B5EFF3108172B60D4A946803
:1075A000012324B10370002900D162B630BD93607D
:1075B0004FF0E023D3F88051074C25401560C3F805
:1075C0008041D3F8844154605A17C3F884210022C3
:1075D0000270E8E7C83A0020FC06FFBD0B498A6844
:1075E000002A11D000280FD1EFF3108072B60B687B
:1075F0004FF0E022C2F800314B68C2F8043100229B
:107600008A60002800D162B670470000C83A0020A6
:107610002DE9FC47002517880646158090F82D00B7
:107620001446894630B13A462146484600F0E6F80D
:10763000051E09D1B0784FF00C0A18B32088C8464F
:10764000001DB84202D95046BDE8FC87684679DF84
:107650000028F9D12088032108F80010208819217A
:10766000401C80B2208008F800102088401C80B2A6
:10767000208000EB0801BDF8000007F095F8218894
:1076800008442080F0780222C8B1218896F903309E
:1076900001F1030C4846BC45D5D8425421884FF02F
:1076A000010C491C89B2218000F801C02188491CC5
:1076B00089B2218009F801302088401C2080706840
:1076C000B8B1218890F9003001F1030C4846BC455F
:1076D000B9D8425421880A22491C89B221804254D7
:1076E0002188491C89B2218009F801302088401C7A
:1076F0002080308950B1CDE900474B460622022157
:1077000006F1080007F00EF9051E9DD1308A50B130
:10771000CDE900474B460722032106F1100007F090
:1077200001F9051E90D1308B50B1CDE900474B4691
:107730001522142106F1180007F0F4F8051E83D174
:10774000306A30B13B462246494600F0F0FE051E45
:10775000DBD1706A30B13B462246494603F052F90C
:10776000051ED2D196F82C0038B13B462246494638
:10777000304606F003FA051EC7D1307838B13B46D3
:1077800022464946304603F027FA051EBDD1284659
:107790005AE7000070B5040012D001461C221448BC
:1077A000FEF7DEFD1248134D0560206850B17ADF08
:1077B000002806D12068016829604068686005E0FB
:1077C0000E2070BD0B487BDF0028FAD108484FF629
:1077D000FF711438084A20F8041B05493439016048
:1077E0000021FFF747FE0028EBD0032070BD00000A
:1077F000F43700209C2B002069E802007CB5054688
:1078000008880C460930904201D90C207CBD68469E
:107810006DDF0028FAD121880820685420881B21B8
:10782000401C80B2208029542088401C80B22080D7
:107830002844DDF801100160BDF805108180208822
:10784000801D80B220809DF80010490800D00121E1
:1078500029542088401C208000207CBDF8B5474C6E
:1078600001880027B4F80CC00546212966D01CDC2D
:107870004348444A4FF00106A0EB02004FEAD00013
:107880004FF0030202EB0040102920D011293DD017
:1078900013295ED100231A46852160467FDF002828
:1078A00057D039A240F246210DE03B295DD0522944
:1078B00050D056294DD18088132176DF002848D03A
:1078C00031A24FF41A71BDE8F840FEF7A3BC32A113
:1078D00003F0E2FF26716671A671012000F096FBAD
:1078E000002000F08BFBA988A1812E4803F02CFB1F
:1078F00020B125A240F22F21FEF78CFCFFF716FBEA
:10790000002826D020A240F23121DCE726A103F096
:10791000C3FF27716671A771012000F06FFB4FF65E
:10792000FF70A081FFF7EAFA20B117A24FF40F71A0
:10793000FEF770FCBDE8F840FFF7CCBA00978088EE
:1079400069468FDF002804D00FA240F25221FEF7D3
:1079500061FCF8BD00231A4619466046B1DF0028D5
:10796000F7D009A24FF41671ADE78088132176DFB6
:107970000028EED004A24FF41871A4E7282B0020B1
:10798000D8F6020070F602002E2E5C2E2E5C2E2EF3
:107990005C6D61696E2E6300436F6E6E6563746526
:1079A0006400000010350020446973636F6E6E65DB
:1079B00063746564000000002DE9F04701883B4EC8
:1079C00040F2F3194FF6FF7510291BD011293ED054
:1079D000122954D0502946D1C188F289841D914280
:1079E00041D1618902293ED18688304602F006FCE9
:1079F000050038D004F10C0000F0A7F9A8B329461F
:107A000030464EE0C17B8788044601292BD1A84629
:107A1000284602F0F3FB050017D02F8000202872C3
:107A2000234843464A460168C5F80A104068C5F82D
:107A30000E0004F1100105F10A0002F0CBFC68729F
:107A4000F08900280FD129462AE0042013E080881D
:107A500002F0D4FB040006D06068FFF78BFD08B18C
:107A600006F05CF82580BDE8F087FFE76868FFF75F
:107A700081FD0028F7D0BDE8F04706F04FB88788B1
:107A80000646384602F0BAFB0400ECD02B464A46C4
:107A900006F1080104F10A0002F09CFC6072214624
:107AA0003846BDE8F04700F095BD0000F4370020EF
:107AB0009C2B00202DE9F04F0746858802883E4820
:107AC000012197B08346102A09D0112A4BD01A2AD7
:107AD0006ED1387AB1EB101F47D2012246E0364C06
:107AE000083CA068C0430B9061680BA803F0F3F852
:107AF0000B990CA800F0FCFC2C220CA96846FEF7A0
:107B00002FFC0026E946A04610E000BF09EB460026
:107B10005FF00004B0F804A008EB84005146001D9B
:107B200003F0ADF8641C1D2CF6D3761C0098B0420F
:107B3000ECD8142D07D317B0E321BDE8F04F1FA2F6
:107B40000420FEF767BB2946584603F0AEF82946E5
:107B500008F1040003F0A9F8F87B012828D01648A2
:107B60002946001D15E029461AE000220221B1EB4A
:107B7000101F01D2012600E000260F49083901F14B
:107B80001000041D294682B103F08FF836B1294652
:107B9000204617B0BDE8F04F03F087B829462046CD
:107BA00017B0BDE8F04F03F06AB803F068F8F5E7E6
:107BB00017B0BDE8F08F0000183800202E2E5C2E84
:107BC0002E5C2E2E5C2E2E5C2E2E5C2E2E5C636F79
:107BD0006D706F6E656E74735C626C655C636F6D07
:107BE0006D6F6E5C626C655F636F6E6E5F73746108
:107BF00074652E630000000070B58EB004460868FE
:107C00006061304B4868A0610FCB08AD85E80F007C
:107C100004F1120108A862DF002851D1A07C8DF880
:107C2000320041F22350ADF8300022460CA9012069
:107C3000A8DF002844D120216846FEF7AAFB41F2C4
:107C40002450ADF80000A07C01258DF802008DF8CD
:107C50000C509DF80D00ADF80650F42640F01200CF
:107C60008DF81150ADF804608DF80D008DF81350AB
:107C7000208804F10A02694600F0B6FA00281FD1F4
:107C800020216846FEF785FB41F22550ADF8000043
:107C9000A07C8DF802008DF80C509DF80D00ADF819
:107CA000065040F00A008DF81150ADF804608DF8D0
:107CB0000D008DF812502088A21C694600F094FA3D
:107CC0000EB070BDD0EA020030B40288502A1BD139
:107CD000034630F8062F4D88AA4209D14489012C69
:107CE00006D14C6924B1027B9888A44630BC604719
:107CF000AA4209D14389012B06D98A69002A03D0F7
:107D000030BCD9B20C30104730BC704710B586B0CB
:107D10009BB2A0F57F44ADF81030FF3C13D0F42B9C
:107D200011D20023009301930293039301238DF852
:107D300002304989ADF8001004A9CDE90212694664
:107D4000AEDF06B010BD0820FBE7007800F00100B0
:107D50007047000008B504F039F920B10D4A40F22F
:107D60007B21FEF757FA002000906946012003F0BE
:107D7000A7FF20B1074A40F28121FEF74BFA68467F
:107D800004F038F8002804D0024A40F28521FEF7BA
:107D900041FA08BD00A90200087A0A782AB1012A2E
:107DA00003D0022A01D0032A09D100EB4002044883
:107DB0004978406800EB82000172002181727047AF
:107DC000642C0020806970472DE9FE430E4601694E
:107DD00084698046B1F5007F02D00620BDE8FE83AD
:107DE000134D696809B11120F8E7A660A2616860C7
:107DF00010491430FFF792FA070008D1A6B900BF66
:107E0000FFF772FA0028FBD1287878B10D270020FF
:107E100068604EB1084A07CA8DE80700A069029061
:107E2000A2686946404690473846D7E70027FBE7F7
:107E3000FC2B00200DD20200E8EC020019B1012950
:107E400006D0062070470AB100201070002070474D
:107E500012B1001D1060F9E707207047FEB51C4FF6
:107E60000646846978680D46B04202D1FFF73CFAB5
:107E700008B11120FEBD95E8070004F10C0383E86A
:107E80000700A888296882B2A868FFF781F9050071
:107E900009D1A068C0B900BFFFF726FA0028FBD1BE
:107EA000387898B10D25A06870B16DB10948016BA3
:107EB000806B029004F10C00CDE90010A0690290E3
:107EC000A2686946304690472846FEBD0025EAE78D
:107ED000FC2B0020D0EC0200FEB5124F0446856951
:107EE0007868A04202D1FFF7FFF908B11120FEBD6A
:107EF000FFF79CFA060000D17860A86878B10A49BB
:107F000007C98DE807000EB1012000E000208DF8C0
:107F10000100A8690290AA68694620469047304649
:107F2000FEBD0000FC2B0020F4EC0200FEB51C4F4F
:107F30000646846978680D46B04202D1FFF7D4F94D
:107F400008B11120FEBD95E8070004F10C0383E899
:107F50000700A888296882B2A868FFF767F90500BA
:107F600009D1A068C0B900BFFFF7BEF90028FBD156
:107F7000387898B10D25A06870B16DB10948C16B12
:107F8000406C029004F10C00CDE90010A069029051
:107F9000A2686946304690472846FEBD0025EAE7BC
:107FA000FC2B0020D0EC02002DE9FC410646C00766
:107FB0004FF000050ED0104F00240122385D0095CF
:107FC00000231146019503F0C6F9641C042CF4D378
:107FD00000F024F8B0070DD5074E0024361D00220E
:107FE000305D032300951146019503F0B4F9641C3C
:107FF000042CF4D3BDE8FC81B0EA02000249085C1D
:10800000012103F036BA0000B0EA02000249085C20
:10801000002103F02EBA0000B0EA020010B50024DF
:108020002046FFF7EBFF641C042CF9D310BD0000C1
:108030002DE9F8430546861C00208DF80000904687
:108040000F464FF001096846FFF7A4FA1B4C206861
:108050003860D4E90001401AA16804F21C47081AEC
:108060000EE00121384602F030FE02F0B1FA01467E
:10807000384602F02AFED4E90001401AA168081A25
:10808000401C8642EDD8B8F1000F03D0052065F3FF
:10809000891002E0062065F39F50A2682168114014
:1080A00004EB8101C8602068304420609DF8000026
:1080B000FFF794FA4846BDE8F8830000D43C00205E
:1080C00030B482680468531C8360A154D0E9011263
:1080D0008A4202D330BC03F045B830BC7047000080
:1080E000034803C8814201D1012070470020704736
:1080F000D43C002010B50D2803D011A24FF42971F3
:1081000019E013481349401AC008032101EB00404D
:1081100011A103F0C1FB002C11D0A4F5405002388E
:108120000DD0082C0BD043F20140844207D02046EA
:1081300003A240F29F21BDE81040FEF76BB810BDCE
:108140002E2E5C2E2E5C2E2E5C6D61696E2E6300D1
:10815000D8F6020070F6020053656E6420627574F2
:10816000746F6E207374617465206368616E6765F7
:108170002E00000005494FF0FF32082841F820206A
:1081800002D3084480F84820704700009C38002043
:10819000F0B54FF0FF3512B10023082601E00823A7
:1081A0000C260C4C05E000BF54F823707F1C04D053
:1081B0005B1CB342F8D32846F0BD26185DB286F8A2
:1081C000305044F82310002AF5D1E11881F8480016
:1081D000F1E700009C3800200249084490F9300083
:1081E000704700009C3800202DE9F04381468878D4
:1081F00091B090460C4600B901208DF83E002088D1
:10820000ADF83C0000250095607C694605F026FD30
:108210006E46A07C711C05F021FDE07B00289DF8D6
:10822000020002D040F0080001E020F008008DF8C4
:108230000200217C11B140F0100001E020F010009C
:108240008DF80200217B11B140F0010001E020F027
:1082500001008DF80200217D09B1022100E0012119
:1082600061F342008DF802001C2102A8FEF791F88C
:10827000607BC10601D4800617D50E950EAFE07C59
:10828000791C05F0EBFC9DF83800079720F00F00F3
:10829000401C20F0F00010308DF838009DF83A00B6
:1082A00020F00600801C8DF83A00607B8DF80800F5
:1082B000A07B8DF80900142109A8FEF76AF80FA821
:1082C000CDE90906A088ADF83000A06820B1E088AB
:1082D000ADF82C00A0680D90A06998B301950088B6
:1082E000ADF81000A06901AD01A94088ADF81200F9
:1082F000A069406806950390A069007B05F0AEFC7C
:10830000A069691C407B05F0A9FCA069807A00285F
:108310009DF8060002D040F0080001E020F00800BF
:108320008DF80600A169C97A11B140F0100001E092
:1083300020F010008DF80600A169097A19B140F00B
:10834000010002E00DE020F001008DF80600A169B7
:10835000897B09B1022100E0012161F342008DF81F
:108360000600E06900B10590434609AA02A9484603
:10837000AADF11B0BDE8F08310B504460020E0701C
:10838000401EE062204602F0D7FB08B1042010BD79
:1083900004F22E2002F05EF8A0F52A41553901D0F2
:1083A000032010BD94F83000E92805D0EB2814D143
:1083B00094F83200902810D104F1660002F03FF8E2
:1083C0000749B1EB002F06D004F1820002F037F824
:1083D0000449884201D1002010BD022010BD0000D8
:1083E000004641544641543370B5084C050009D04D
:1083F00010342168002907D00868206049682846A1
:108400008847F6E70834F4E770BD0000883800209C
:10841000054A012120B1012805D19170FFF7E4BF81
:1084200051700020FAE77047883800204269891EA1
:10843000921E8A4201D800207047826A408901FB5F
:10844000002070472DE9F05F26484168F1B3DFF85E
:1084500098B00E688146DBF8004087688078E11BA1
:1084600021F07F45ED1CB0B9DFF880804FF48030FB
:10847000C8F84403C8F804031120FEF795F811204A
:10848000FEF79DF84FF0010AC8F800A02F2003F076
:10849000CDFE89F802A0B54200D23546124BE8194C
:1084A0003C3320F07F401860DBF800105A46091B6F
:1084B00021F07F41001B20F07F40C91C81420FD971
:1084C000106818602F2003F0B1FE00E004E0BDE862
:1084D000F05F1120FEF77EB8BDE8F05F04F060BDEC
:1084E000BDE8F09FE02B0020041501400010014082
:1084F00073B58CB00646002000900D9880B1002422
:108500006D4621460DA802F0C5FB30B1009805EB81
:10851000400084800098401C0090641C142CF0D310
:108520002C2269463046FDF71BFF0EB070BD2DE9C9
:10853000F04117880646B81D14460D46984202D9E8
:108540000C20BDE8F0813188072206290AD34FF4B8
:10855000486C4FF6FF73614501D9994202D170888A
:10856000062801D21046ECE7604501D99842F9D1BE
:10857000994203D0984201D08142F3D80520E855B2
:1085800020881221401C80B2208029542088401C61
:1085900080B220804119308806F006F9218808440D
:1085A00080B220804119708806F0FEF821880844C6
:1085B00020800020C5E7000002A24FF4F971FDF70A
:1085C00029BE00002E2E5C2E2E5C2E2E5C6D616965
:1085D0006E2E630038B54A7A0F4B62B100220A72E0
:1085E0005969002906D001228DF80020ADF802005B
:1085F0006846884738BD0A7A62B19B684C68024673
:1086000019462046FEF772FF0028F3D0BDE8384037
:1086100005F084BA5B68F1E7F43700202DE9F041FA
:1086200005680F00804606D001F0F8FC022809D248
:108630000120BDE8F081EE6816B16869B04207D844
:10864000012605E0411CF4D069698142F1D83E461B
:1086500034466869641CA04202D80224022E0AD360
:108660002146404601F0DAFC38B10128E1D0411C36
:10867000DFD0B442EDD10020DBE74FF0FF363246C9
:108680002146284604F0DCFB30B957B12246394672
:10869000284604F0D5FB20B101280FD00124204644
:1086A000C7E7EC60D5E90401891E884201D2401E6B
:1086B0002861287940F001002871F0E73446EEE7A0
:1086C0002DE9F0410E4620300D6804460B22202192
:1086D00002F0D4F90020014608232A5C401C202A1D
:1086E00012D92F2A0BD05C2A09D02E2A01D0994208
:1086F00014D30B2B37D02E2A35D10CE0401C2B5C29
:108700002F2BFBD05C2BF9D02844306059B3207854
:10871000E52834D035E008210B23DEE7A2F18107FC
:108720001E2F02D95F3F1C2F13D82F5C401CA7F1CE
:10873000400CBCF13F0F04D3A7F1800CBCF17D0FBE
:1087400011D2A3F1010C61450DD26254491C67544A
:1087500013E010A700E07F1C97F800C0BCF1000FE9
:1087600004D09445F7D10620BDE8F081A2F161075D
:10877000192F01D8203AD2B26254491CADE7052026
:108780002070202A01D8042000E00020E0720020A0
:10879000EAE70000222A2B2C3A3B3C3D3E3F5B5D42
:1087A0007C7F000070B588B00646002005900690DA
:1087B000ADF81410ADF816100190029001AA05A9A9
:1087C000304690DF050021D003F0DAFC0346114863
:1087D00011493246401AC108012000EB014004460D
:1087E0000E4903F064F8BDF8042012B9BDF8060084
:1087F00028B1BDF80630204609A103F058F8BDF8AD
:1088000008201AB12046164903F04AF808B0284655
:1088100070BD000070F6020070F6020084EE0200E7
:108820005468652072657175657374656420545869
:108830002F5258207061636B6574206C656E67748D
:108840006820697320746F6F206C6F6E6720627987
:108850002025752F2575206F63746574732E0000B5
:10886000D0EE020020BF70472DE9F0470025DFF869
:108870008C803CE06068002100EBC5060120327866
:108880009146FDF759FDD4E9062300EA020701EA03
:10889000030C57EA0C0728D082438B434846C4E9AF
:1088A000062303F0A9FD327882469146012000217B
:1088B000FDF742FDD4E9042300EA020401EA0307BC
:1088C0004A4650460021FDF737FD44404F403C43A7
:1088D0000BD17078012801D0012100E000217268DD
:1088E00081EA0A010AB1484690476D1CEDB298F83A
:1088F000000044468542BDD3BDE8F087C02B002070
:108900002DE9F04104460021056800F008F900282F
:1089100026D12846A16902F00FF902001FD1E069B3
:10892000017899B1C17A01F03F01A171C17A0907BB
:108930000FD404F120010B2610F8013B11F8017B44
:10894000DB1B761E04D0002BF6D002E0042206E0EA
:108950002BB10021204600F005F80200D9D01046C6
:10896000BDE8F0812DE9F047054607690468806994
:108970008946203710B1B7F5001F02D30420BDE8A7
:10898000F087F90560D1401CA86169694FF00008C3
:1089900029B16089401E10EA572F05D054E0208984
:1089A000B0EB571F1DD94FE0284601F037FB0646B4
:1089B00001281BD9701C33D06069B0423ED8B9F190
:1089C000000F0ED028466969FFF728FE06000BD07D
:1089D000012E0BD0701C23D0204605F0E3FBF8B924
:1089E00006E0C5F81880C9E70720C8E70220C6E7F7
:1089F0004FF40072002104F1300002F03FF84FF014
:108A0000000831462046FFF711FD4FF00109E062F2
:108A10000DE000BF84F80390204605F0C3FB08B1C9
:108A20000120ACE7E06A08F10108401CE0626189BE
:108A30004145EFD8E16AA1EB0800E06231462046EB
:108A40006E61FFF7F3FCA861C7F3080020443030E3
:108A50002F61E861002092E770B504460E460420BD
:108A6000256821E0284602F067F810BBE26911781A
:108A7000B1B1D27AE52902F03F02A2710AD02E29C3
:108A800008D00F2A06D022F0200108290AD00021A0
:108A9000B14210D000212046FFF764FF20B108E06A
:108AA000042006E00121F3E7A1690029DAD10028BA
:108AB00001D00021A16170BD70B504460021066897
:108AC00000F02DF80DE03046A16902F035F850B9FC
:108AD000E0690078E52809D040B101212046FFF780
:108AE00041FF0028EFD0042807D007E03046A169F5
:108AF00002F022F8050003D00FE0072005460CE045
:108B000020220021E06901F0B9FF0B2204F12001CD
:108B1000E06901F0A9FF0120F070284670BD2DE941
:108B2000F04107680E460546B1F5001F36D2F00643
:108B300034D12E61AC6824B93878032805D37C6A17
:108B40001CB178894FEA402812E03889B0EB561FF3
:108B500024D9786A12E0284601F060FA0446401CE5
:108B60001AD0022C1AD37869A04217D9A6EB0806AE
:108B700046452146EFD23846FFF758FCC5E9054087
:108B800060B100EB5620A861C6F3080038443030CD
:108B9000E8610020BDE8F0810120FBE70220F9E751
:108BA00070B51C4C217888420DD2616800EB4005FD
:108BB00051F825303BB101EB85014A7AD20704D048
:108BC0004A6822B105E0032070BD487A70BD124AA0
:108BD0004A6001228A7202461868104906681846DF
:108BE000B04710B110E040688047606800EB850036
:108BF000817A0029F7D1616801EB8501097A19B9F9
:108C0000417A21F001014172606800EB8500407AF1
:108C100070BD0000642C002065880200997D020070
:108C200038B51D4D2B78984201D3042038BD00EB98
:108C3000400439B118480129406815D002291DD0D7
:108C4000012038BD01208DF8000068686A460021C7
:108C500050F8240002F0F0F908B1112817D19DF85E
:108C600000000028F1D112E050F8240088B101681A
:108C70001446496988470068206008E050F82400DD
:108C800038B10168144649698847808820800020EF
:108C900038BD032038BD0000642C0020FEB51D4CFB
:108CA0002578A8420DD263B100EB4005606850F80A
:108CB000256026B100EB8506777AFF0703D00320F5
:108CC000FEBD0420FEBD0092CDE901310121B1724B
:108CD00050F825606F463068416930468847006823
:108CE0000099884214D930683946826830469047E6
:108CF00010B10DE040688047606800EB8500817A24
:108D00000029F7D1606800EB8500007A0028D9D0EF
:108D10000120FEBD642C002006490A78904201D350
:108D200001207047496800EB400001EB8000407A69
:108D300070470000642C002070B51A4C21788842DE
:108D40000CD2616800EB400551F8250030B101EB11
:108D500085014A7AD20703D0487A70BD032070BDDE
:108D60000022114602F068F9606850F82500016899
:108D7000496888471128F7D010B107E0406880475C
:108D8000606800EB8500817A0029F7D1606800EB0C
:108D90008500017A19B9417A41F001014172407AA6
:108DA00070BD0000642C0020FEB5204C2578A84240
:108DB0000DD263B100EB4005606850F8256026B124
:108DC00000EB8506777AFF0703D00320FEBD042061
:108DD000FEBD777A7F0701D50220FEBD0092CDE966
:108DE00001310121B17250F825606F463068416948
:108DF0003046884700680099884214D9306839465F
:108E0000C2683046904710B10DE040688047606806
:108E100000EB8500817A0029F7D1606800EB8500BE
:108E2000007A0028D9D00120FEBD0000642C00206B
:108E3000014A506011707047642C002010B5002169
:108E4000024801F053FF80F3100010BDF0400020F5
:108E50000E4910B50A784C780023A24212D0521C59
:108E6000D2B20A70022A00D10B70084A0B780C3279
:108E700052F8232002608868104420F07F40886008
:108E8000012010BD0360002010BD0000E02B002079
:108E900038B5044600F000FA002807D1694620469C
:108EA00005F0A7FD002801D10021216038BD000098
:108EB00017B581B0144602980090684601F03EF95B
:108EC000002802DA0B2004B010BD0B4A002352F830
:108ED000201001B10B700199002900D00B7042F8ED
:108EE000201001D0012C01D00020ECE7002201A9C4
:108EF00002A800F0D7FEE6E7702C00202DE9F7432A
:108F00008CB005000BD002F03F06324669460DA832
:108F100000F0C8FE04004FF0000804D0BFE00920B4
:108F20000FB0BDE8F0830098019001A80D9900F002
:108F3000DFFF040004D19DF82F00000600D50624B1
:108F400016F01C0F4CD04CB1042C03D101A8FFF734
:108F5000B3FD044646F008065CB1A0E09DF80A00A7
:108F600010F0110F01D0072499E0700701D50824F3
:108F700095E0300743D54D4F089839460E3005F03F
:108F80007BF808983946163005F076F808992020C5
:108F9000C8720899009801F03FFA07460022089924
:108FA000009805F055F8089800211C3005F064F889
:108FB00000990120C87007B3D1F82C9000223946DF
:108FC00001A803F0B2FF040069D14946009801F0FE
:108FD000B3FD04000098A7F10107C7600BD05EE065
:108FE000C4BB9DF80A00C10601D5042457E0B107AF
:108FF00001D5C007B7D1300701D546F0400600982B
:10900000C16A296208996962089901F005FAA860A5
:1090100008981C3001F013FAE860009828604FF4BB
:109020000072C088A8802E7485F81180C5F81C8055
:1090300005F1280000218146C5F8148001F01EFDCD
:10904000B0062ED5EE6866B36E610098A9684089B7
:1090500047020FE023E0284600F0E0FF0146012828
:1090600000D80224481C02D0F61B1CB104E00124E5
:10907000F61B01E0BE42EED8A96184B9F00510D01C
:109080000098FFF7D3F970B100EB5622EA6100981F
:10909000012349464078FFF701FE10B10124C5F8CD
:1090A000008020463CE70224F9E700000000214848
:1090B00013B582B0040006D00022694603A800F070
:1090C000F1FD18B120E0092004B010BD0099216025
:1090D0002046039900F00CFF90B994F82B0000068D
:1090E00007D4A079C00612D5E169009801F094F97F
:1090F000A0600098C188A18020460021FFF70FFDE5
:10910000042804D00028DFD000212160DCE70520FE
:10911000FAE72DE9FE4F8846002119609946154669
:10912000044602A905F065FC002812D1607C0028E5
:109130000FD1207CC0070BD06169E0680127401A7D
:109140004FF0020A04F1280B854200D905467EE063
:109150000720BDE8FE8F6069C10560D10299498989
:10916000491E11EA502609D108B32046A16900F032
:1091700055FF02281DD3411C4CD0A061A169029863
:10918000FFF754F9A8B130440190680A009027D045
:10919000029932184889824201D9801B0090DDE98A
:1091A000003248784146FFF779FD98BB05E0A0689A
:1091B000DFE784F811A00220CBE7207C00060CD565
:1091C000E1690198081A0099884206D208EB40200C
:1091D0004FF40072594601F047FC009846022CE01B
:1091E000E2690198824218D0207C00060AD50298D4
:1091F000012359464078FFF7D7FD58B9207C00F08D
:109200007F0020740298012359464078019AFFF7A5
:1092100045FD10B1677401209BE70198E061A08AC9
:10922000C0F30800C0F50076AE4200D92E46011901
:1092300032464046283101F017FC6069B0443044A2
:109240006061D9F800008119AD1BC9F80010002D2C
:1092500081D100207DE738B50C460546694605F00A
:10926000C8FB002813D1014628468CB1FFF7F4FB58
:10927000042801D000280AD12146284600F02DFFFD
:1092800000212846FFF76EFB042800D1002038BDDE
:10929000FFF745FC38BD0000F8B50446694605F007
:1092A000A8FB00280ED1217C4A060BD508060ED556
:1092B0000098E2690123407804F12801FFF774FD6A
:1092C00008B10120F8BD207C00F07F002074154E0D
:1092D000216A009801F030FC0028F3D1656A294624
:1092E000E87A40F02000E872A268206804F0B0FE3E
:1092F00005F11C00E16804F0BFFE314605F11600DF
:1093000004F0BAFE002105F1120004F0BDFE009841
:109310000121C17004F002FF217C01F0BF01217422
:10932000F8BD0000000021482DE9FE4F88460021CD
:10933000196099461546044602A905F05AFB002813
:1093400006D1607C002803D1207C800702D407204E
:10935000BDE8FE8F6069012742194FF0020A04F14F
:10936000280B824200D2C54394E06069C1056ED1EA
:1093700002994989491E11EA502612D108B1A16902
:1093800002E0A06828B900212046FFF747F900282D
:109390007DD001282DD0411C54D0A061A16801B915
:1093A000A060207C00060BD50298E269012340787A
:1093B0005946FFF7F9FCA0BB207C00F07F00207429
:1093C000A1690298FFF732F898B130440190680A19
:1093D000009027D0029932184889824201D9801B17
:1093E0000090DDE9003248784146FFF7DDFCC0B966
:1093F00003E084F811A00220AAE7E1690198081AA5
:10940000009988420AD208EB40214FF40072584676
:1094100001F02AFB207C00F07F00207400984602B7
:1094200027E00FE0E169019881420ED0E1686069B0
:1094300088420AD20298012359464078019AFFF7E0
:109440002DFC10B16774012082E70198E061A08AC9
:10945000C0F30800C0F50076AE4200D92E46204485
:1094600032464146283001F0FFFA207C40F080006F
:1094700020746069B04430446061E168884200D87B
:109480000846E060D9F80000AD1B304400E004E07D
:10949000C9F80000002D7FF468AF207C40F0400048
:1094A0002074002054E700002148224970B5401A7A
:1094B000C108032000EB014004461FA102F0ECF9B3
:1094C00003250020FFF76CFB02466D1E02D000282A
:1094D000F7D103E012B120461FA125E0294E2A480A
:1094E0007169884740684FF48011B1FBF0F57169EC
:1094F00025488847006825A1B0FBF5F0204602F01A
:10950000CBF9012213A12648FFF7D2FC0200204626
:1095100001D024A108E02AA102F0BEF90020FFF743
:109520000BFC024620462EA1BDE8704002F0B8B9FF
:10953000D8F6020070F60200496E697469616C69C0
:109540007A696E67206469736B2030202853444326
:10955000292E2E2E000000004469736B20696E696D
:109560007469616C697A6174696F6E206661696C97
:1095700065642E6572726F722069733A20256420CB
:1095800000000000B8EC020058EA02004D6F756E52
:1095900074696E6720766F6C756D652E2E2E0000D7
:1095A000C82D00204D6F756E74206661696C65640E
:1095B0002E6572726F7220697320256400000000AE
:1095C000556E696E697469616C697A696E67206449
:1095D00069736B20302028534443292E2E2E00001F
:1095E0004469736B20756E696E697469616C697A20
:1095F0006174696F6E2E2072657475726E20697366
:109600003A20256420000000F8B565486549401AF5
:10961000C608032000EB064463A1204602F03CF993
:1096200003250020FFF7BCFA02466D1E02D0002879
:10963000F7D103E012B1204663A117E06D4D6E48EB
:109640006969884740684FF48011B1FBF0F7696998
:109650006948884700680122B0FBF7F059A16748C4
:10966000FFF726FC020004D0204665A102F018F99D
:10967000F8BD67A16748FFF71BFD10B166A1204642
:109680000EE00520634D00EB06462C3505F1090779
:10969000604960482C31FFF7DEFD20B1204665A10E
:1096A00002F0FAF8F8BD687A88B1287AC00605D5C4
:1096B00030463A4665A102F0F3F805E030463B46F5
:1096C00066A12A6802F0F3F8687A0028E0D13046F3
:1096D0003CA102F0E1F8644D204664A16A6902F001
:1096E000DFF84C48012280306969FFF707FC03006E
:1096F00005D0204663A16A6902F0D9F8F8BD0020C0
:109700006C4900904FF496726B4601F68200FFF7A9
:1097100000FD0028204603D067A102F0BDF804E058
:10972000009B69A1EA6A02F0C2F83A488030FFF76C
:10973000AFFB0028204601D06AA100E06FA102F033
:10974000ABF872A1204602F0A7F80020FFF7F4FA68
:109750000246204675A102F0A3F80098401C01F0D3
:109760001BF900990446491C0170002004E0E96AD5
:109770002218095C5170401C00998842F7D3A889CF
:10978000A0F57F41FF3906D02249009B2246443193
:109790005B1CFEF7BBFA204600F0E4FBF8BD0000BE
:1097A000D8F6020070F60200496E697469616C694E
:1097B0007A696E67206469736B20302028534443B4
:1097C000292E2E2E000000004469736B20696E69FB
:1097D0007469616C697A6174696F6E206661696C25
:1097E00065642E6572726F722069733A2025642059
:1097F00000000000B8EC020058EA02006C320020C1
:109800004D6F756E74206661696C65642E25640009
:109810002F0000009C3400204469726563746F72ED
:1098200079206C697374696E67206661696C656420
:10983000210000004469726563746F72792072655B
:109840006164206661696C65642E00002020203C04
:109850004449523E202020257300000025396C75B4
:109860002020257300000000282B00205265616431
:109870002066726F6D0966696C65202573202E2E37
:109880002E000000556E61626C6520746F206F7051
:10989000656E206F72206372656174652066696C05
:1098A000653A202573202E4572726F7220697320ED
:1098B00025642E009A2C002052656164206661693F
:1098C0006C65640D0A2E0000257320697320726593
:1098D000616465642E202062722069733A256420D9
:1098E0000000000046696C6520636C6F736520663C
:1098F00061696C65640D0A2E0000000046696C65A4
:1099000020636C6F7365642E00000000556E696EF5
:10991000697469616C697A696E67206469736B2028
:10992000302028534443292E2E2E00004469736BA7
:1099300020756E696E697469616C697A6174696FAA
:109940006E2E2072657475726E2069733A202564DC
:1099500020000000F8B558485849401AC6080320AE
:1099600000EB064456A1204601F096FF0325002097
:10997000FFF716F902466D1E02D00028F7D103E06A
:1099800012B1204656A194E0604F6148796988473A
:1099900040684FF48011B1FBF0F579695C48884765
:1099A00000680122B0FBF5F04CA15A48FFF780FA9D
:1099B000020002D0204658A17BE05EA15E48FFF77E
:1099C00077FB10B120465DA10EE005205A4D00EB5B
:1099D00006462C3505F10907574957482C31FFF742
:1099E0003AFC20B120465CA101F056FFF8BD687A30
:1099F00088B1287AC00605D530463A465CA101F008
:109A00004FFF05E030463B465DA12A6801F04FFF5D
:109A1000687A0028E0D1304630A101F03DFF5B4D6F
:109A200020465BA12A6901F03BFF32225E4829698A
:109A3000FFF764FA030005D05CA120462A6901F013
:109A400036FFF8BD514803226449303001F08EF8EA
:109A500020461023614A62A101F029FF6B461122C2
:109A60005E495148FFF760FC012620B168A12046FD
:109A700001F012FF05E06E7069A12046009A01F026
:109A80000FFF4948FFF704FA0028204603D069A1D8
:109A900001F002FF03E06DA101F0FEFEEE72204630
:109AA0006EA101F0F9FE0020FFF746F902462046BC
:109AB00072A101F0F5FEF8BDD8F6020070F60200C2
:109AC000496E697469616C697A696E67206469734B
:109AD0006B20302028534443292E2E2E00000000F6
:109AE0004469736B20696E697469616C697A617429
:109AF000696F6E206661696C65642E6572726F7243
:109B00002069733A2025642000000000B8EC0200B0
:109B100058EA0200F82F00204D6F756E74206661C0
:109B2000696C65642E6572726F722069732025649A
:109B3000000000002F0000002832002044697265F8
:109B400063746F7279206C697374696E67206661E3
:109B5000696C6564210000004469726563746F720A
:109B6000792072656164206661696C65642E00000D
:109B70002020203C4449523E202020257300000034
:109B800025396C752020257300000000282B00204B
:109B900057726974696E6720746F2066696C6520FE
:109BA0002573202E2E2E00001C350020556E61627C
:109BB0006C6520746F206F70656E206F7220637209
:109BC000656174652066696C653A202573202E45B1
:109BD00072726F722069732025642E00892C002018
:109BE00057726974696E6720416375706F696E742E
:109BF0002064617461206973202573212121212152
:109C0000212E73697A656F662069733A25640000B6
:109C10005772697465206661696C65640D0A2E006F
:109C20002564206279746573207772697474656E37
:109C30002E00000046696C6520636C6F73652066BA
:109C400061696C65640D0A2E0000000046696C6550
:109C500020636C6F7365642E00000000556E696EA2
:109C6000697469616C697A696E67206469736B20D5
:109C7000302028534443292E2E2E00004469736B54
:109C800020756E696E697469616C697A6174696F57
:109C90006E2E2072657475726E2069733A20256489
:109CA000200000002DE9FF41002790460E460F607E
:109CB00000F044FA050003D50B2004B0BDE8F081A4
:109CC000884850F825409CB13460207808F0FE06A2
:109CD00020B16078FFF720F8C1070BD02770E8B2F9
:109CE000B8466070FEF75CFFC10708D00320E4E7C8
:109CF0000C20E2E70EB1400704D40020DDE71EB1DE
:109D0000400701D50A20D8E7002631462046FEF755
:109D100033FB022822D100254FEA0D0704EB051082
:109D200090F8F21100F5F77019B1083000F087FBD8
:109D300000E0002047F825006D1C042DEED300251F
:109D400057F8256036B131462046FEF715FB02284C
:109D500001D203E003206D1C042DF1D3042809D0A7
:109D600002286DD204F13B0000F074FBB0F5007FD7
:109D700066D101E00120A0E704F1460000F06AFB93
:109D800018B904F1540000F05AFBA06194F8405057
:109D9000A570012D01D0022D52D1454394F83D000C
:109DA0006081E8B3411E08424AD104F1410000F04D
:109DB00051FB2081000743D104F1430000F04AFB2E
:109DC000070004D104F1500000F039FB074604F10C
:109DD0003E0000F03FFB010032D02389481900EB20
:109DE000131297422CD3B81A6789B0FBF7F0B8B1B9
:109DF00003274FF6F57C604500D8022740F6F57C36
:109E0000604500D80127801C3244A2623144606161
:109E1000C4E90761032F15D013B12944616200E042
:109E20000EE0022F1FD000F0010100EB400001EB1B
:109E3000500000BFA16900F2FF10B1EB502F14D207
:109E40000D203AE704F15A0000F004FB0028F7D196
:109E500020890028F4D104F15C0000F0F0FA60627F
:109E600060698000E6E74000E4E74FF0FF302061E2
:109E7000E06080202071032F2CD104F1600000F0FD
:109E8000E9FA012826D1711C204600F055FE08BBD6
:109E900084F8048004F22E2000F0DCFAA0F52A41B8
:109EA000553917D104F1300000F0C9FA0E49884243
:109EB00010D104F5057000F0C2FA0C49884209D1AE
:109EC00004F5067000F0BBFA206104F5077000F09D
:109ED000B6FAE06003492770091F0888401C088013
:109EE000E0800AE7702C0020525261417272416199
:109EF00073B504460568019801E0401C01900178A3
:109F00002F29FAD05C29F8D00021A16001980078AF
:109F1000202806D2802084F82B002046FEF7FFFD83
:109F20007CBD01A92046FEF7CBFB0028F8D12046D6
:109F3000FEF7E6FC94F82B1028B10428F0D149076D
:109F4000EED405207CBD4907FCD4A079C006F8D525
:109F5000208AC0F3080041192846303100F05CFA2D
:109F6000A060DEE710B5002821D0114B0022001FB1
:109F7000196803E0814203D80A4649680029F9D1EB
:109F800052B11368841A9C4204D1006818441060CE
:109F9000104602E0506000E0186039B102680B1A08
:109FA000934203D10B681A4402604968416010BDB6
:109FB000782C00200EB515A19DF8080020F00F00A8
:109FC000401C20F0F00010308DF808000A2202A892
:109FD0007CDF18B1104AD221FCF71CF90020009058
:109FE00001900621ADF80400ADF800104FF4C870E0
:109FF0000921ADF80600ADF8021068467ADF0028A6
:10A0000003D0054ADC21FCF705F90EBD41637570EC
:10A010006F696E743132000000A902002DE9F04131
:10A0200004680D4602290BD36069A84208D920783C
:10A030004FF0FF36012807D002282BD0032839D053
:10A0400001263046BDE8F081206A05EB550700EB9C
:10A050005721204600F070FD0028F2D1C7F3080018
:10A0600020447F1C90F83080206A00EB5721204666
:10A0700000F062FD0028E4D1C7F30800204490F806
:10A08000301048EA0120E90701D00609D9E7C0F3FA
:10A090000B06D6E7206A00EB1521204600F04CFDA8
:10A0A0000028CED1E8B204EB4000303000F0D2F905
:10A0B0000646C6E7206A00EBD511204600F03CFDBD
:10A0C0000028BED140F2FF1000EA85002044303065
:10A0D00000F0B5F920F07046B3E72DE9F041002318
:10A0E00005464B7280690C46002825D000210A469F
:10A0F0002E26E869805C521C20280AD0052800D151
:10A10000E520092A02D16718491C7E726718491C8C
:10A1100078720B2AEDD360184372E869C07A207216
:10A12000E8691C3000F08BF92060E869163000F017
:10A1300086F9E080000CA080BDE8F08110B50446EF
:10A140004FF0FF302268002A13D0114600E0491C6E
:10A150000B78212B0ED33A2BF9D112F8013B303B6F
:10A160000A2B06D28A4204D1002B02D1491C184680
:10A17000216010BD002010BD2DE9F041804602464F
:10A1800001200021FCF7D8F81A4F05460E467868E2
:10A19000FDF7F0F900280CD1174CD4E90621104640
:10A1A0002A4001EA06031A4305D0A843B143C4E993
:10A1B0000601BDE8F081404602F01EF930B1D4E955
:10A1C000040128433143C4E9040105E0D4E9041043
:10A1D000A943B043C4E90410D4E90601284331433C
:10A1E000C4E90601A1687868BDE8F0410022FDF7E6
:10A1F0007DB900000CEB0200C02B00200146034893
:10A2000002888A4200D0002070470000E03700201A
:10A210002DE9FC5F0E008346DDE90C47C6F1000026
:10A2200098469246814600D40846012503E000BFC7
:10A2300090FBFAF06D1C5045FADAA84500D9454666
:10A2400024B1002E01DB780700D5641EB80702D5C3
:10A25000B8F1000F0AD0F80708D13CB1A54205D2E9
:10A2600020215846641EFDF72BFFF6E7002E02DA88
:10A270004E462D2102E0780703D52B215846FDF7E5
:10A280001FFF07F0030002280BD1B8F1000F08D11F
:10A290003CB1A54205D230215846641EFDF710FF9F
:10A2A000F6E7CDE90047434652463146584604F0AA
:10A2B00081FABDE8FC9F024600201268530713D5BF
:10A2C00002F00300012802D002280CD105E0C2F3FD
:10A2D00083100B68801C184404E00223086803EB19
:10A2E0009252104408600120704700002DE9F041AF
:10A2F000174688460646002417E000BF4FF4A070BA
:10A3000000EB84054FF480307159A04059B1D6F864
:10A310000413014207D02946304601F03BFFD8E93B
:10A32000002128469047641CE4B2BC42E6D3BDE855
:10A33000F08100002DE9F0479146884604464FF42D
:10A3400080354FF4A0760027DFF884A016E000BF28
:10A35000D4F8040328420DD0A05958B1C4F848538A
:10A36000C4F808533146204601F076FC5AF828100C
:10A37000F8B28847361D6D00B6B27F1C4F45E7D353
:10A38000D4F804034FF4807110F0010F09D0D4F811
:10A39000000130B1204601F05FFC5AF8281004207B
:10A3A0008847D4F804034FF4827110F0020F0CD0E8
:10A3B000D4F80401002808D0204601F04DFC5AF8DA
:10A3C0002810BDE8F04705200847BDE8F0870000E9
:10A3D000B82B0020F0B58488A518944200D82246F6
:10A3E000A41AC288D6189A4200D81346D21A4B88AB
:10A3F0000788BB420CD34088834209D88888A04292
:10A4000006D3A84204D8C888904201D3B04201D9EB
:10A410000020F0BD0120F0BD70B506460D4601F1EB
:10A420001A0000F017F804463078032805D105F12A
:10A43000140000F00FF844EA0044204670BDC178D3
:10A44000827842EA01214278007842EA012140EA1A
:10A45000012070474178007840EA012070470000F1
:10A460000B480C4910B5401AC008032101EB004409
:10A470004FF0020022B1FDF7C9FD204606A103E01E
:10A48000FDF7BCFD204609A1BDE8104001F004BA6B
:10A49000D8F6020070F6020052656365697665645D
:10A4A000204C4544204F4E2100000000526563655A
:10A4B00069766564204C4544204F464621000000E3
:10A4C000F7210180172141800021017141711B2179
:10A4D0008171C171704700002DE9F047394E0027A6
:10A4E00080463D46DFF8E090D6F804A057E003D060
:10A4F0000446D0F81C8035E099F8002002EB4201B8
:10A50000521CD2B289F8002009EBC10199F802303F
:10A51000091D9A4201D189F8005048680A7804461A
:10A52000012A12D0022A02D0032A3BD108E004F00B
:10A53000ADF800B10127257434E00574C06900E06E
:10A5400070680028F9D170602CE0207C50BB8868CE
:10A550006060C868A0600869E0604869A061F07840
:10A5600000B165606268B168184B501A20F07F40F6
:10A57000984202D2A168084406E0881AA16820F037
:10A580007F40814202D9081A206000E025606560A2
:10A590000120A56020742046E56104F059F8B8F167
:10A5A0000000A4D199F8001099F801008142A3D1CC
:10A5B00017B97168514502D00120BDE8F08700202D
:10A5C000FBE70000E02B0020BC390020FFFF7F00EC
:10A5D0002DE9FF410026234800F074FB2148001FAD
:10A5E000074600F06FFB204C60680090A56800E013
:10A5F00000986946284004EB80000C30FFF75BFEB2
:10A600000028F5D101AA009901EA050304EB8303B0
:10A61000491CDB6842F82030401C00910228F2D32C
:10A62000019800F0030001280BD0022810D10198F6
:10A63000032101EB90500099BDF80A6001EB9000F6
:10A6400005E00198BDF80A60C0F38310084400904B
:10A65000384600F034FB08B10098606004B0304622
:10A66000BDE8F081EC400020D43C002088B04FF4DD
:10A670000041002001F088F920B1A1A240F2BF21E1
:10A68000FBF7C8FD00F0E0FF0120FDF78DFCFCF7B3
:10A6900003FF18B19AA2BE21FBF7BCFD40F266622F
:10A6A00001219B48FCF754FC20B195A24FF42E7178
:10A6B000FBF7B0FD01F07EFA20B191A240F2CB2170
:10A6C000FBF7A8FDFDF746FBFFF774FC002191485E
:10A6D00000F081FB18B18AA2E521FBF79BFD082061
:10A6E00000F081FE062000F07EFE062000F09EFEB7
:10A6F000082000F09BFE1F2000F075FE1F2000F0D8
:10A7000095FE02F09DFCFBF7F1FF83490324834A89
:10A71000D1E90801CDE900017F488DF80240694682
:10A72000183002F0DBF920B175A240F24B31FBF793
:10A7300071FD03F067FAFCF769FB1C216846FBF723
:10A7400028FE00254FF42030CDE900504FF4702052
:10A7500002907348059073488DF80C400690ADF850
:10A760000E508DF810506846FDF714F820B164A221
:10A7700040F20921FBF74EFD6B486C49401AC008B6
:10A7800004EB004006466AA101F086F8FCF7A2FB44
:10A790005F4801212430FEF74BFB5D4CDFF8A8A198
:10A7A000DFF8A8B1DFF8A8814FF6FF79383C2179AE
:10A7B0006079014202D002F081FC05E0884304D0B8
:10A7C000E07908B902F064FC65719AF80000574618
:10A7D00050B1D8F8002030465EA101F061F802F0D7
:10A7E0006DFC3D700120E0719BF800005F4698B160
:10A7F00030465DA101F050F8FFF7ACF83D70D8F895
:10A8000000004746052807D130465DA101F044F815
:10A81000FBF742FF05203860E07A60B140F2EE209D
:10A8200001F0F4FCA189494501D0A07908B902F0F2
:10A830002FFCE571E572A07880B11F2000F004FEC6
:10A8400040F2145001F0E2FCFEF7DEFE40F2EE2092
:10A8500001F0DCFC1F2000F0E9FDA570E07890B36A
:10A86000FBF73EFF0146A069020E8DF80020020CA6
:10A870008DF80120020A8DF802208DF80300080EE1
:10A880008DF80400080C8DF80500080A8DF8060004
:10A890008DF80710D8F800008DF8080009206946E7
:10A8A000AA220A54401C0B28FBDB207A20B1CC20C2
:10A8B0008DF80B00257211E0607A28B1DD208DF84B
:10A8C0000B0065720AE013E0A07A20B1EE208DF84B
:10A8D0000B00A57202E0BB208DF80B00A089484553
:10A8E00005D00C490C236A461C39FDF70FFAE570B8
:10A8F00000F0B8FE00287FF45AAF01F06FF956E778
:10A900002E2E5C2E2E5C2E2E5C6D61696E2E6300E9
:10A91000602B0020FC34002030EA0200A1E202009B
:10A920009DCB0200B9850200D8F6020070F6020045
:10A93000414447383034206578616D706C65207310
:10A940007461727465642E00902B0020912B00209E
:10A95000982B00204E6F772074696D657374616D5C
:10A9600070206973202564005468697320636F6CDC
:10A970006C656374696F6E20656E64732E000000F1
:10A98000414C4C20636F6C6C656374696F6E20651D
:10A990006E64212121200000F0B50B30154D20F010
:10A9A00007010024144A0FE003688B420BD38B424B
:10A9B00005D95E1A43184768C3E9006700E0436899
:10A9C000136002C004E0021D10680028ECD120468C
:10A9D000002802D1286808B10020F0BD064A0748C7
:10A9E0001060074A121A22F00702C0E90024012071
:10A9F0002860D7E77C2C0020782C0020844300209E
:10AA00008063002070B5144682880E460546208873
:10AA1000111D0144921C994201D8FE2A01D90C2033
:10AA200070BD521C32542088FF21401C80B220800F
:10AA300031542088401C80B220808119288803F07E
:10AA4000B3FE2188084480B22080AA8842B1A96858
:10AA500041B13044FBF784FC2088A9880844208059
:10AA6000002070BD072070BD002A05D011F8013B01
:10AA700000F8013B521EF9D1704700005FFA81F1E6
:10AA800000F8011B521EFBD170472DE9F047C58825
:10AA90001E1DB6FBF5F78946B6FBF5F1044605FB2E
:10AAA000176C407916686843DDF820A0F718001F7E
:10AAB000874200D9C61A166001E02468491E0029A1
:10AAC000FBD1A5EB0C078846B74216D818E004EB7B
:10AAD0000C00001D09EB0803BAF1000F3A4602D042
:10AAE0000146184600E01946FBF73AFC2468F61BBD
:10AAF0004FF0000CB844B54201D9374600E02F466C
:10AB0000002EE4D1BDE8F08730B5024651B100F027
:10AB100059FF0021074C08E034F821301568AB429A
:10AB200002D11160002030BD491C8142F4D30520C0
:10AB300030BD00000000000070B50446C06A0D463C
:10AB40000026A8420FD0204603F02CFB06000AD1B5
:10AB5000607801232A4604F13001FEF79FF808B11E
:10AB6000751E0126E562304670BD00002DE9F043F8
:10AB70008146174889B0154600680C462F3008708A
:10AB800020264E70324613496846FBF7E9FB002049
:10AB900018E000BF39F910200121EC4600EB8003DA
:10ABA00002F00F07A3EB0108A0441CF81770121164
:10ABB000491C88F806700429F2DD191900228E71EB
:10ABC000CA71401CA842E5DB09B0BDE8F083000073
:10ABD000982B002080EA0200F8B50F460178144651
:10ABE0000546012901D1687830B12088821C9A423B
:10ABF00032D8012902D006E00720F8BD6978014467
:10AC0000891C994228D8181A801E86B2ADF80060B7
:10AC10002188B81C084469467DDF0028EDD12978D9
:10AC2000022904D06878BDF80020904205D3BDF811
:10AC30000000B04201D809200AE00820012905D10E
:10AC40006978B14202D8ADF8001001E0ADF80060BB
:10AC5000BDF80010FE2901D90C20F8BD2288491C3E
:10AC6000B9542188491C89B2218078542088401C1D
:10AC70002080BDF80010084420800020F8BD01F0BD
:10AC80001F0301229A40D243490900EB810011467B
:10AC900000F021B84A0950F8220001F01F020121FA
:10ACA0009140084000D00120704701F01F030122AD
:10ACB0009A40490900EB8100114600F01CB80021C0
:10ACC00000F00FB8012100F016B808B56A46FBF78E
:10ACD000E2FA009808BD08B56A46FBF7C2FA009888
:10ACE00008BD08B56A46FBF7BCFA08BD08B56A4658
:10ACF000FBF79EFA08BD08B56A46FBF7A5FA00986F
:10AD000008BD08B56A46FBF7D3FA009808BD38B508
:10AD1000044600258DF800506846FCF73BFC21688E
:10AD20006268086890420ED9401E08600178238A44
:10AD3000E26801FB0325227A2168101AC0B20A7961
:10AD4000824200D208719DF80000FCF747FC2846BB
:10AD500038BD38B5054600208DF800000C46684621
:10AD6000FCF718FCE868298A201AB0FBF1F12A6880
:10AD70001068431C136001709DF80000FCF72EFC66
:10AD800038BD10B530B1017A42680368891AC9B27A
:10AD90001A6006E00E2010BD03681A68541C1C607F
:10ADA0001170491EC9B2F7D200680021017108462E
:10ADB00010BDC20800F007030120895C98400840DC
:10ADC000704710B5C20800F00703885C01249C405E
:10ADD0002043885410BD10B560B10161F72120F8FF
:10ADE000021B20F8021B1B2100F8021BFFF768FB67
:10ADF000002010BD0E2010BDF0B5858893B00C4624
:10AE0000002D39D1018800263F4F24293BD006DC94
:10AE1000102909D011290CD0232958D14FE03A2903
:10AE20000BD0552953D129E00146204601F0D0FE30
:10AE30004DE0A01DFFF744FB49E02246408934F86D
:10AE4000061F814200D808466080172800D21720CC
:10AE50006080106970B1607960B1D7E90001CDE917
:10AE60000301ADF80E506088ADF81000136903A916
:10AE7000104698476671267113B0F0BD0146204612
:10AE800001F0FAFE23E0011D2C2206A8FBF768FA68
:10AE9000BDF81800BDF81C2004EBC0014A732269FC
:10AEA000AAB1D7E90423CDE90423ADF81200487B09
:10AEB0008DF814002269204604A9904707E0017A22
:10AEC000207B884200D201462846FDF76BFCA07A21
:10AED0000028D1D0E1882846A5DF012580B11128BE
:10AEE000CAD001F04DF902460848094913B0401A8A
:10AEF000C00805EB0040BDE8F04006A100F0D0BC62
:10AF0000A672E572B8E70000B8EA020070F6020027
:10AF100070F6020073645F626C655F6761747463EE
:10AF20005F65786368616E67655F6D74755F726594
:10AF3000717565737428292072657475726E656405
:10AF40002025732E0000000020B10278DE2A03D0F5
:10AF5000082070470E20704741800020704760B184
:10AF600059B10278DE2A0AD009684160DE210170F9
:10AF70004FF6FF714180002070470E207047082077
:10AF800070477FB5054600294DD0002D4BD008787D
:10AF90000C46DE2847D1A8886188884202D1204625
:10AFA00003F096FC2888012825D002283BD01128E0
:10AFB0003AD0512837D135F8040F6188884232D110
:10AFC000A978A81C02292ED1017A042903D00629C8
:10AFD00001D0052927D10021009102228DF80020FF
:10AFE00001914FF4C07202910391ADF80420007AF0
:10AFF00005280FD010E0297A2046012913D1A9880D
:10B00000428891420FD10121017204B0BDE8704025
:10B0100003F05EBCADF8041028886946B0DF002854
:10B0200001D0616888477FBDA88861888842FAD1CD
:10B030004FF6FF7060807FBD03681B69184700F101
:10B0400080400068002800D00120704708B500F15A
:10B050008040002101600068009008BD70B50B4C75
:10B06000207808B185250FE00020A0606060206195
:10B07000E060074801F0ACF8054600F0F3FF08B9BE
:10B0800001F08EF801202070284670BD883800201D
:10B090001184020038B500258DF800506846FCF791
:10B0A00079FA074CE068401EE060E06810B901F0F2
:10B0B0009FF8A5709DF80000FCF790FA38BD0000DD
:10B0C000883800202DE9FF411C460378164D174EA5
:10B0D00045F823200C3545F82340F0CE8DE8F000EC
:10B0E0000C788DF800404C788DF801408C788DF804
:10B0F0000240CC788DF803400C798DF805404C79EE
:10B100008DF806408C6802940C7B8DF80C40497BCE
:10B110008DF80D1002B1064A6946001D01F05CFB76
:10B1200004B0BDE8F081000040390020F8EA0200D8
:10B130005DDF02001FB5001D069C8DE81E00002289
:10B14000694601F049FC04B010BD0FB408B503997D
:10B15000002904D004AA00926A4600F00FF801B05A
:10B160005DF814FB10B582680446002A05D0D4E9C6
:10B170000403216898470020A06010BD2DE9FC471A
:10B1800091460C00804676D014F8011B39B1252970
:10B190000ED04046FCF794FF20780028F4D198F8B0
:10B1A0000C00002867D04046BDE8FC47FFF7DABF37
:10B1B0000020012221782B291BD02D2902D03029F3
:10B1C00008D102E040F0010001E040F00200641C00
:10B1D000002AEFD100252A290ED02178A1F13002D2
:10B1E0000A2A11D205EB850201EB4205641C303DB1
:10B1F000F1E740F00400EAE7D9F800100B1DC9F8A8
:10B2000000300968641C0D44217800232E290BD1DD
:10B2100014F8011FA1F130020A2A05D203EB8302C0
:10B2200001EB4203303BF3E76C290DD068290BD0CA
:10B23000692921D00BDC252918D0582931D0632960
:10B240000ED0642915D117E014F8011FECE770291E
:10B2500069D0732932D075291BD0782909D120E013
:10B26000D9F80000011DC9F8001001784046FCF72C
:10B2700027FF641C90E76CE0D9F800100A1DC9F89C
:10B2800000200968CDE900500A224046FEF7C0FFC1
:10B29000EFE7D9F800100A1DC9F8002009680A2252
:10B2A00006E0D9F800100A1DC9F80020096810222C
:10B2B000CDE90050404603F07DFADAE7D9F80010F6
:10B2C00000270A1DC9F800200E68C00705D112E04A
:10B2D0004046761C7F1CFCF7F3FE31780029F7D13D
:10B2E00004E0202140466D1EFCF7EAFEBD42C0D9B5
:10B2F000002DF6D1BDE74EB13046FBF755F80746B5
:10B3000004E0202140466D1EFCF7DAFEBD4206D95E
:10B31000002DF6D103E04046761CFCF7D1FE3178D3
:10B320000029F8D1A5E7D9F80000011DC9F80010DF
:10B33000056830214046FCF7C3FE78214046FCF703
:10B34000BFFE08200021CDE9000103461022294656
:10B35000B0E7BDE8FC8770B541EA4201DDE904567B
:10B360004FF0A04441EA830141EA052104EB80004B
:10B3700041EA0641C0F8001770BD70B541EA4201CC
:10B38000DDE904564FF0A04441EA830141EA05217A
:10B3900004EB800041EA0641C0F8001770BD70B5AB
:10B3A00041EA4201DDE904564FF0A04441EA83013D
:10B3B00041EA052104EB800041EA0641C0F800178C
:10B3C00070BD70B541EA4201DDE904564FF0A0447A
:10B3D00041EA830141EA052104EB800041EA06418C
:10B3E000C0F8001770BD4FF0A04202EB80000321AF
:10B3F000C0F8001770471CB5002100910B460122D0
:10B4000001911146FFF7CBFF1CBD4FF0A04202EBAC
:10B410008000D0F8002722F44032C0F80027D0F88E
:10B42000002742EA0141C0F8001770474FF0A042E0
:10B4300001218140C2F80C1570474FF0A042012154
:10B440008140C2F80C1570474FF0A04201218140A5
:10B45000C2F8081570474FF0A04201218140C2F8A0
:10B46000081570474FF0A04201218140C2F808152D
:10B47000704701224FF0A043824011B1C3F8082564
:10B480007047C3F80C25704718B5084B6C4601444B
:10B490001B68009306E000BF54F82030D3F8103545
:10B4A000401C08C28142F7D818BD0000E0EA020043
:10B4B000034908B50844002101600068009008BDF8
:10B4C0000060004002494058012800D00020704729
:10B4D0000060004030B5154A01460020D2F8104403
:10B4E00023460AE0DB681D79854205D1401C0A2805
:10B4F000F6DB4FF0FF3030BD1B68002BF2D1431C50
:10B50000F9D0CB681871D2F8103443B1DB68CC683D
:10B510001B682360D2F81024D268116030BDC2F8D5
:10B520001014C96800220A6030BD0000D43C00201D
:10B530007047FBF7B7B9704708B5034A009240233C
:10B54000024A00F005F808BD2DDB02003C3B00205C
:10B55000F0B595B01C4615460F4608461A9E00F0F9
:10B5600003FB182109A8FAF714FF0E96CDE9095438
:10B570000023082203A9384600F00BFB059806902B
:10B58000BDF81000ADF81C00BDF81200ADF81E00AB
:10B5900000208DF821000398082600F00300012800
:10B5A00002D0022818D032E003983346850AC0F34F
:10B5B000C2008DF8200003980FA9C0F38314A200E5
:10B5C000384600F0E6FA09A8009006AB22460FA91B
:10B5D000284600F025FA1AE00398840DC0F3C20053
:10B5E0008DF82000082C01D2254600E008253346BE
:10B5F0002A460FA9384600F0CCFA2E44641B09AB4A
:10B6000006AA29460FA800F069F9002CEAD13846AD
:10B6100000F0B0FA15B0F0BD0A4A012902EBC000F3
:10B6200007D0022907D0032907D0042907D000201A
:10B6300070470220704704207047007970474079B6
:10B640007047000070F6020010B5FFF772FF04218A
:10B650000348FFF73FFF02490120C968487110BD48
:10B6600060F602002DE9F04F8DB0FCF739FD18B1FE
:10B6700000200DB0BDE8F08F7E4C4FF0000BC4F8F9
:10B6800018B4BFF34F8F60680290A568D846284071
:10B6900004EB80000CE000BFD4F8180470B92168F6
:10B6A0000298814201D86160E2E7284004EB800003
:10B6B0000C3002A9FEF7FFFD0028EDD1002005AAFD
:10B6C000029901EA050304EB8303491CDB6842F895
:10B6D0002030401C02910228F2D3059800F00300AC
:10B6E000022802D001284DD0AAE005985022810DF1
:10B6F0008946B2EB905F00D850210E4666F39F500A
:10B70000059008315C4800F0E6F9070078D000F0B9
:10B710002BFA4346082205A9384600F042FA02995E
:10B7200008F1080A2940681A8000001D864222D9C3
:10B73000504D0C3530B1C2B204EB8101301A904645
:10B740000C3104E02946F2B2002590462846C6B2E4
:10B750005346384600F025FA0AEB080325B1324675
:10B760002946384600F01DFA029909F1030001EB61
:10B77000900002903BE004EB81015346324638468C
:10B780000C31EFE70598C0F38310062800D306209C
:10B79000059960F38911C1F38310801C0591810024
:10B7A000354800F098F907004AD000F0DDF943462B
:10B7B000082205A9384600F0F4F908F10808002627
:10B7C0000FE00298434600EA0501401C04EB8101AA
:10B7D0000290042238460C3100F0E3F908F1040825
:10B7E000761C0598C0F38310B042EAD847B1D4F86C
:10B7F0001054D4F8180478B1384600F0BBF934E09E
:10B800001EE0E8684079012804D12A6828463946B4
:10B8100012689047E8680568002DF2D1384600F0BC
:10B82000A9F98DF800B06846FBF7B4FED4F8180407
:10B8300008B9029860609DF80000FBF7CFFE14E0A5
:10B84000D4F8104405E02168204689688847E068FC
:10B850000468002CF7D109480949401AC0080221A0
:10B8600001EB004007A100F017F8FCF739FC80F06D
:10B870000100FEE6D43C0020F8F60200D8F60200F3
:10B8800070F602004261636B656E647320666C75CE
:10B89000736865640000000000231A4602F0F8BBDC
:10B8A00008B5012300926A4602F0F2FB08BD1CB500
:10B8B000CDE9002302236A4602F0EAFB1CBD70B505
:10B8C00086B00DF1280C9CE870008DE87C00052303
:10B8D0006A4602F0DDFB06B070BD00002DE9F047BE
:10B8E0000E4680461C46924608293ED894F80C9095
:10B8F000002020731946104601F04AFA0025B5428F
:10B9000006D218F805201AA12046FFF71EFC03E016
:10B9100019A12046FFF719FC6D1C082DEFD317A1C4
:10B920002046FFF712FC0025B54210D218F805702A
:10B93000FAF712FD0068C05D10F03E0F01D03A46E4
:10B9400000E02E220EA12046FFF7FFFB03E00DA131
:10B950002046FFF7FAFB6D1C082DE5D30122214696
:10B96000504601F0F7F984F80C90BDE8F08700002C
:10B970002025303278000000202020007C000000CC
:10B9800025630000200000000B4810B5FF218160F6
:10B99000002101604160C0F81814C0F8141480F848
:10B9A0002014064800F0E4F8002803D1044800F011
:10B9B00045F9002010BD0000D43C0020F8F602003C
:10B9C00038ED020002480349401AC00870470000E1
:10B9D000F8F6020070F6020013B56846FFF794F817
:10B9E00008B100201CBD0248009950F831001CBD70
:10B9F00070F6020070B509480125D0F8104480F8AF
:10BA0000205407E0E068457121682046496888476E
:10BA1000E0680468002CF5D170BD0000D43C002023
:10BA20002DE9FF4781460C9D00200C462F7B287393
:10BA3000984616462946184601F0AAF9072E42D222
:10BA4000DFE806F004090F161F2A3600494628468B
:10BA5000FFF77BFB37E0494628462268FFF775FB76
:10BA600031E0D4E9002349462846FFF76EFB2AE07F
:10BA7000A0680090D4E9002349462846FFF765FBFB
:10BA800021E0D4E90201CDE90001D4E900234946CF
:10BA90002846FFF75AFB16E004F1080007C88DE8B6
:10BAA0000700D4E9002349462846FFF74EFB0AE089
:10BAB00004F108000FC88DE80F00D4E900234946BF
:10BAC0002846FFF742FB00222946404601F042F992
:10BAD0002F73BDE8FF872DE9F041058A80462D1FB1
