:020000040002F8
:1060000070880020DD630200E5630200E7630200A0
:10601000E9630200EB630200ED6302000000000090
:10602000000000000000000000000000EF6302001C
:10603000F163020000000000F3630200F563020058
:10604000F1660200F7630200896D0200E96902004F
:10605000F7630200F763020029650200416802004D
:10606000F7630200616D0200756D0200F7630200C4
:10607000F7630200F7630200F7630200F7630200B0
:10608000F763020049670200F7630200F76302004A
:106090003D6A0200F7630200416A0200F7630200F2
:1060A000F7630200F7630200F7630200F763020080
:1060B000F7630200F7630200000000000000000028
:1060C000F7630200F7630200F7630200F763020060
:1060D0006D670200F7630200F76302000000000032
:1060E00000000000000000000000000000000000B0
:1060F00000000000000000000000000000000000A0
:10610000000000000000000000000000000000008F
:10611000000000000000000000000000000000007F
:10612000000000000000000000000000000000006F
:10613000000000000000000000000000000000005F
:10614000000000000000000000000000000000004F
:10615000000000000000000000000000000000003F
:10616000000000000000000000000000000000002F
:10617000000000000000000000000000000000001F
:10618000000000000000000000000000000000000F
:1061900000000000000000000000000000000000FF
:1061A00000000000000000000000000000000000EF
:1061B00000000000000000000000000000000000DF
:1061C00000000000000000000000000000000000CF
:1061D00000000000000000000000000000000000BF
:1061E00000000000000000000000000000000000AF
:1061F000000000000000000000000000000000009F
:10620000DFF80CD000F052F90048004799C70200AF
:106210007088002000B583B002900091019244F292
:10622000010071466A4600F0BBFF03B000BD0000EC
:1062300030B450E8012F93B2C48923448489A34227
:1062400028BF1B1B0489A34202BFBFF32F8F00206E
:1062500007E0C3EA020340E80134002CE9D14FF023
:1062600001000A6030BC704750E8012FC2EA0242C8
:1062700040E801210029F7D1704730B450E8022FDF
:106280001FFAA2F3C488A34202BFBFF32F8F0020DE
:106290000DE0C48923448489A34228BF1B1BC2EAA2
:1062A000034340E80234002CE8D14FF001000A60BB
:1062B00030BC704750E8022FC2EA224240E8022177
:1062C0000029F7D17047034653E8022FD988B2EB73
:1062D000324F4FF0000017BF92B241EA014142EA4B
:1062E000014104E05A68B2EB324F08BF012043E895
:1062F0000212002AE8D1704730B4044654E8000F77
:106300000D4644E80053002BF8D1156030BC7047AF
:1063100030B4044654E8000F40EA010544E8005355
:10632000002BF7D1156030BC704730B4044654E8F8
:10633000000F00EA010544E80053002BF7D1156077
:1063400030BC704730B4044654E8000F80EA0105C1
:1063500044E80053002BF7D1156030BC704730B4CF
:10636000044654E8000F00EB010544E80053002BFD
:10637000F7D1156030BC704730B4044654E8000FC4
:10638000A0EB010544E80053002BF7D1156030BCA9
:10639000704770B404464FF0000054E8006F0D6879
:1063A000AE4207BF44E80023012044E800630E60CA
:1063B000002B1CBF0020F0E770BC704730B40446CF
:1063C00054E8000F88422CBF451A054644E80053A4
:1063D000002BF5D1156030BC70470000064880479F
:1063E00006480047FEE7FEE7FEE7FEE7FEE7FEE7BA
:1063F000FEE7FEE7FEE7FEE7456A020001620200F3
:10640000202A04DB203A00FA02F100207047914074
:10641000C2F1200320FA03F31943904070470000B3
:10642000004870475C3F030040EA01039B0703D02C
:1064300009E008C9121F08C0042AFAD203E011F8C3
:10644000013B00F8013B521EF9D27047D2B201E085
:1064500000F8012B491EFBD270470022F6E710B569
:1064600013460A4604461946FFF7F0FF204610BDC2
:10647000421C10F8011B0029FBD1801A704730B56F
:1064800004460020034600E05B1C934203D2E05C1C
:10649000CD5C401BF8D030BD034611F8012B00F84D
:1064A000012B002AF9D1184670470000064C074D11
:1064B00006E0E06840F0010394E8070098471034D4
:1064C000AC42F6D3FFF7A0FEF052030010530300D6
:1064D00070B58C1810F8015B15F0070301D110F8A6
:1064E000013B2A1106D110F8012B03E010F8016BD3
:1064F00001F8016B5B1EF9D12B0705D40023521E56
:106500000DD401F8013BFAE710F8013BCB1A921CBD
:1065100003E013F8015B01F8015B521EF9D5A142BB
:10652000D8D3002070BD00002DE9F04700268AB0C6
:10653000DFF85091B0464FF4807501243746069637
:10654000284607F001FC38B1D9F80403204203D0F3
:10655000284607F0EFFB26432D1D64007F1CADB2DB
:10656000082FEDD34FF4BE74204607F0EDFB48B181
:10657000204607F0DFFB46F0004606AA0121002076
:1065800007F0C4FB404D16F0FF0F15D00127002483
:1065900037420DD009EB8401D1F81005D1F8101560
:1065A000C0F3042055F82420C1F3014102B1904703
:1065B0007F00641C082CEBD3002E5FDA4FF0FF3015
:1065C000CDF8108054E0281910F8507F90F90000A1
:1065D00027F0C008401C3BD007A9404606F031FD1B
:1065E00010B34FEA9719404602F014FB55F820709B
:1065F0001FB1B9F1030F03D006E0B9F1030F27D1A2
:1066000004A9404606F025FD4FF0A04101EB8800AB
:10661000D0F8000706A9C0F3014A404606F011FD74
:1066200018B1BAF1020F03D012E0BAF1030F0FD183
:10663000B9F1030F08D1BAF1020F1DD00221404673
:1066400007F024FB761CF6B217B149464046B8471E
:10665000641C042CB7D3002E10D06A460121002000
:1066600007F054FB06990098884207D006900498DA
:10667000002634460790A6E70321E0E70AB0BDE80C
:10668000F087000000600040A83B002000F01F02DF
:10669000012191404009800000F1E020C0F8801203
:1066A000704700F01F02012191404009800000F175
:1066B000E020C0F80011704700F01F020121914056
:1066C0004009800000F1E020C0F80012704749073F
:1066D000090E002806DA00F00F0000F1E02080F833
:1066E000141D704700F1E02080F80014704700008E
:1066F00070B54FF48076304606F0E9FD114CB505D3
:1067000060B1304606F0EAFD0120C5F80803607963
:1067100020B9012060712168002088474FF48276FB
:10672000304606F0D4FD00280AD0304606F0D6FDEB
:106730000220C5F808032168BDE870400120084721
:1067400070BD0000802B002007480021C0F84011D8
:10675000C0F84411C0F84811C0F84C11C0F800113D
:10676000C0F804110CF0C4BC001001400422002148
:10677000014805F05BBC00000040024010B5064C2B
:10678000A068002807D0054808F0AEFB034808F0D1
:106790004DFB0020A06010BD102B002058390300D5
:1067A000064910B54860012088600146044808F099
:1067B000A3FBBDE81040024808F044BB102B0020AA
:1067C000583903000148406870470000102B002032
:1067D0001CB50B490B4AD1E90001CDE9000140F697
:1067E000FF70ADF8000006486946083008F036FB37
:1067F000002803D004A22C21FFF70CFD1CBD0000D3
:1068000050390300910F03002E2E5C2E2E5C2E2E8D
:106810005C2E2E5C2E2E5C2E2E5C636F6D706F6E68
:10682000656E74735C6C69627261726965735C72C7
:1068300074635C626F6172645F7274632E630000E4
:106840002DE9FE434FF48278404607F085FE4C4F19
:1068500000254C4C012600B3404607F085FE94F815
:106860002E0010B194F82F10D1B18DF8005061684E
:1068700001912189ADF80810E26832B1218B618362
:1068800062602181E56010B102E0257400E03E60A5
:1068900021686846884784F82F5094F82E0060B32A
:1068A0004FF48077384607F057FE30B3384607F08C
:1068B0005BFE628B94F82D108A420AD9A2EB01008C
:1068C00080B260832289A2EB0000626802EB400084
:1068D00005E007D1E06828B184F82F60658307F0F0
:1068E00029FE04E08A4202D184F82F606583404685
:1068F00007F03AFE2248001D06604FF488773846BC
:1069000007F02AFE48B1384607F02EFE2574022013
:106910008DF800002168684688474FF48A7738462A
:1069200007F01AFE28B1384607F01EFE2574BDE8B0
:10693000FE834FF000484FF48C7967691DE000BF7B
:10694000B7FA87F028FA00F109EB80058F43284653
:1069500007F002FE88B1284607F006FEA5F58C7503
:10696000E8088DF8040045F38000401C8DF80060B5
:106970008DF80500216868468847002FE0D1D6E7EA
:10698000007000401C3C002000F004BA70B50E46B8
:10699000144900EB400001EBC0051446E86A1835C5
:1069A00020B101280FD0022805D113E0284600F0BD
:1069B00025FAA04201D2002411E0224631462846A1
:1069C00000F054FA0BE0284600F018FAA042F4D286
:1069D0000446F2E73146284600F01BFA04462046FA
:1069E00070BD0000A4450020F8B51248124E0446C0
:1069F0004FF48C7108F043F800281AD00025C4F831
:106A00001851D4F818010090F07F3446FF2806D0C2
:106A1000A17F11B107F052F901E007F05DF9657748
:106A20002572D4E9002101B004F10800BDE8F0406E
:106A30001047F8BD00300040643C00200CF0A6BABE
:106A400007F090BFF0B5B5480023021D0178101D76
:106A500001254FF0805406290BD11678360708D14E
:106A60000678C6F30316032E06D0042E04D0052E96
:106A700002D0062907D00EE0B4F82463A84FC6F36D
:106A800004263E6002E01678360704D10678C6F385
:106A90000316032E02D0062904D00FE0A24FA14E08
:106AA0007E670EE01678360708D10678C6F303161F
:106AB000032E06D0042E04D0052E02D0062907D0BE
:106AC0000EE0D4F84462994FC6F342363E6002E0CD
:106AD0001678360704D10678C6F30316032E02D0C3
:106AE000062906D011E0924E376827F0807737608C
:106AF0000EE01678360708D10678C6F30316032E83
:106B000006D0042E04D0052E02D006290AD011E0AA
:106B10004FF08046C6F80C31C6F81031834E361F50
:106B2000336002E01678360704D10678C6F3031600
:106B3000032E02D0062905D00CE07C4F03266437D3
:106B40003E600AE01678360704D10678C6F30316CD
:106B5000032E02D006290DD014E0764F05263E60A4
:106B6000744E78363560734E083633603F263F1DCD
:106B70003E6002E01678360704D10678C6F30316A5
:106B8000052E02D0062957D062E06B4E36686B4F57
:106B90003E60694E361D36683F1D3E60664E0836C3
:106BA00036683F1D3E60644E0C3636683F1D3E60C1
:106BB000614E103636683F1D3E605F4E14363668B3
:106BC0003F1D3E605C4E183636685C4F20373E6095
:106BD000594E1C3636683F1D3E60574E203636688B
:106BE0003F1D3E60544E243636683F1D3E60524E77
:106BF000283636683F1D3E604F4E2C3636683F1DA6
:106C00003E604D4E303636684C4F40373E604A4EFF
:106C1000343636683F1D3E60474E383636683F1D75
:106C20003E60454E3C3636683F1D3E60424E403623
:106C300036683F1D3E6002E01678360708D10678B8
:106C4000C6F30316032E06D0042E04D0052E02D060
:106C5000062907D019E0D4F85812394A01F04F013B
:106C6000116002E0117809070FD10078C0F303101A
:106C7000032803D0042801D0052806D13148016833
:106C8000C90702D06FF001010160D4F83001062875
:106C900008D1D4F83401062804D12B48016841F406
:106CA0008061016022487438016841F4700101601C
:106CB000BFF34F8FBFF36F8F4FF01021D1F8000259
:106CC000002803DBD1F80402002822DA1F4A1560ED
:106CD0001F480468002CFCD01524C1F80042056848
:106CE000002DFCD0C1F8044201680029FCD01360DB
:106CF00001680029FCD0BFF34F8F0D48F0380168C0
:106D0000144A01F4E06111430160BFF34F8F00BFEB
:106D1000FDE7124910480860F0BD0000E00F00F0E8
:106D2000403501400DF0ADBA00C007403C050040C1
:106D3000FCED00E0105600400404001020C50040A7
:106D4000E40E0040000400403C17004004E5014010
:106D500000E401400400FA050090D003882C0020D4
:106D600004220249024805F03DB90000043C00201D
:106D70000090004004220249024805F033B90000A7
:106D8000103C002000A000400148006800470000BF
:106D9000882B002010B5124C02202061606111A0E8
:106DA000A06104F17800E0614FF4007020620020DF
:106DB000A06260620BA1A164E06204F51E71E1644F
:106DC0001021A065C4E91410E06509A1E01DFFF7DA
:106DD00063FB08A12046FFF75FFB2020A07110BDD8
:106DE000A44500205465726D696E616C000000005E
:106DF0005254540053454747455200000269C16848
:106E00008A4203D88068401A104400E0501A401E9D
:106E100070472DE9F047C4681746894606464FF08B
:106E200000083069A04201D9051B02E0B168201AB0
:106E30000D1AB0686D1E001BA84200D80546BD4261
:106E400000D33D4670682A4620444946FFF7ECFAD5
:106E5000B0687F1B2C44A844A944A04200D1002460
:106E6000F460002FDDD14046BDE8F0872DE9F04108
:106E700004468846D4E90207C51BE16860681646E7
:106E80000844B54206D94146FFF7CEFAB819E0608A
:106E9000BDE8F0812A464146FFF7C6FA761B08EBAB
:106EA000050132466068FFF7BFFAE660F0E702E0EE
:106EB00008C8121F08C1002AFAD170477047002085
:106EC00001E001C1121F002AFBD1704701212028D7
:106ED00003DA81400548014003E0402802DA203807
:106EE000814009B10120704700207047FC06FFBDBA
:106EF00010B560B159B102780B785208B2EB530F5C
:106F000005D10622401C491CFFF7B9FA08B1002040
:106F100010BD012010BD800701D000207047012066
:106F20007047C3688B4206D811440069491E8142EC
:106F300001D80120704700207047000030B52A4872
:106F4000A5B03C21406824902848807C8DF89200B0
:106F50006846FFF782FA02208DF8000001248DF8C0
:106F6000024006208DF803003C210FA8FFF775FAB8
:106F700024A81F4D1490ADF84C402A1D684629687E
:106F800000F03EFD20B11BA240F2C111FFF742F913
:106F9000174A0FA80C32A96800F032FD20B115A2E3
:106FA0004FF4E271FFF736F918211EA8FFF755FAE2
:106FB00000208DF88D408DF87840ADF884001F904A
:106FC0008DF88C004FF4C850094920901EAAA1F1F9
:106FD000400072DF002804D006A240F2D311FFF770
:106FE00019F925B030BD0000E03803000835002055
:106FF000E82A00202E2E5C2E2E5C2E2E5C6D616900
:107000006E2E630010B588B10F481049401AC008B1
:10701000032101EB00400EA107F080F809F0C8FB46
:10702000002810D00EA240F2291108E010480121DA
:10703000007873DF002806D009A240F23911BDE8BC
:107040001040FFF7E7B810BDD053030020530300F2
:10705000457261736520626F6E64732100000000E9
:107060002E2E5C2E2E5C2E2E5C6D61696E2E6300C2
:10707000A82A002070B58CB015460E4600236C4639
:10708000C3F10F01415CE1545B1C102BF8D30D21BF
:1070900004F11000FFF7E1F90020C0F10F02315CAC
:1070A0002244401C11740328F7D3684646DF0020B1
:1070B000C0F10F01214491F820102954401C0328ED
:1070C000F6D30CB070BD00000149C97800F0D2BD04
:1070D000602B002070B50024084D05E0686810F8AA
:1070E000340007F04BFD641C28788442F6D3044832
:1070F0004068BDE8704000F073BB0000982B002092
:107100004C3B030070B50024064D06E06868012181
:1071100010F8340007F056FD641C28788442F5D33B
:10712000002070BD982B0020F8B515460C46064689
:10713000052A01D20720F8BD07F040FE18B907F074
:1071400005FE0028F7D1124900224E600C708D60B8
:10715000C1E90422C1E906220E4D0DE006EBC40090
:107160002968009181788DF8011000780A4A6946F3
:1071700007F07AFD0028DED1641EE4B2EED2BDE84D
:10718000F84004480021054A001D00F0A7BA00009D
:10719000982B00204C3B030015B80200D993020045
:1071A000FEB515460E46074672B607F06DF800BFED
:1071B00006F09AFE0028FBD12249234A0120891AB1
:1071C000C90800EB0144012F23D06FF48050381818
:1071D00022D0B0F5405F24D06FF44051C84206D1B0
:1071E0002B88204619A16A6806F0A3FF04E0204618
:1071F00032461DA106F096FF21480068C00700D066
:1072000000BE2A4603B031463846BDE8F04000F0E3
:1072100079B820461BA101E0204622A106F07EFF9E
:10722000EAE7A86807F04CFC0346D5E90001CDE980
:1072300000100296204624A1AA6806F08BFF204683
:107240002BA1EBE7D05303002053030041535345D8
:107250005254494F4E204641494C454420617420C8
:1072600025733A2575000000554E4B4E4F574E2062
:107270004641554C542061742030782530385800F0
:10728000F0ED00E0534F46544445564943453A20FB
:10729000415353455254494F4E204641494C454471
:1072A00000000000534F46544445564943453A2098
:1072B000494E56414C4944204D454D4F525920416D
:1072C00043434553530000004552524F5220257509
:1072D000205B25735D2061742025733A25750D0AA6
:1072E00050432061743A203078253038780000000F
:1072F000456E64206F66206572726F7220726570D1
:107300006F72740008B501238DF800309DF80030CD
:10731000144B186059609A606FF48041401807D090
:1073200001280FD1DA60D86800889861D86807E032
:107330001A6118698068586118690068986118694D
:107340004068D861186858689868D868186958699A
:107350009869D86972B600BF9DF800000028FBD17B
:1073600062B608BDA83C0020164B10B593F8224029
:107370002CB193F82240032C03D0112010BD08201B
:1073800010BD82B1042483F822409C7A240700D4E3
:107390004902C3E903019A820020DA829883012A14
:1073A00003D9522002E0072010BD5120012209F02C
:1073B000BDFE20B104A240F20441FEF72BFF0020E5
:1073C00010BD0000DC3E00202E2E5C2E2E5C2E2EEA
:1073D0005C2E2E5C2E2E5C2E2E5C636F6D706F6E9D
:1073E000656E74735C6C69627261726965735C73FB
:1073F00064636172645C6170705F73646361726422
:107400002E63000070B51E4B144693F822202AB15B
:1074100093F82220032A03D0112070BD082070BDEC
:1074200004B3052283F822209A7A150700D4490272
:10743000C3E903019C820020DC829883012C13D0D5
:1074400002F0070001284FF0010217D02146D72093
:1074500009F06CFE20B10BA240F23E41FEF7DAFECD
:10746000002070BD072070BD0122582009F05EFE8B
:107470000028F5D003A240F22F41EFE75920E7E7BB
:10748000DC3E00202E2E5C2E2E5C2E2E5C2E2E5CE2
:107490002E2E5C2E2E5C636F6D706F6E656E747336
:1074A0005C6C69627261726965735C73646361725A
:1074B000645C6170705F7364636172642E6300006A
:1074C000054890F82210032904D090F8220008B152
:1074D0000120704700207047DC3E0020044890F8EF
:1074E0002210032901D3001D7047002070470000BF
:1074F000DC3E0020F0B5314C054687B094F8220000
:107500000F4610B1082007B0F0BD002F54D0E87826
:10751000FF2851D06978FF294ED02978FF294BD018
:10752000A978FF2948D0002684F858000122009647
:1075300033461146019606F085FB94F8580006F094
:10754000D2FB1F4B0DF1080C0FCB8CE80F00A87875
:107550008DF8080028788DF8090068788DF80A0001
:1075600017480023174A02A9103805F0A9FF20B1D7
:1075700015A240F26741FEF74DFE44F8227B012040
:1075800004F819090D4B6078383320F00F00607053
:10759000A676FF20E0770A20009009480122A3F197
:1075A0001001103805F0C4FF20B107A240F273416A
:1075B000FEF730FE0020A6E70720A4E7DC3E00200F
:1075C000603D0300992603002E2E5C2E2E5C2E2E8D
:1075D0005C2E2E5C2E2E5C2E2E5C636F6D706F6E9B
:1075E000656E74735C6C69627261726965735C73F9
:1075F00064636172645C6170705F73646361726420
:107600002E6300007CB50F4D95F8220028B195F847
:107610002200032803D011207CBD08207CBD0A482D
:1076200007F036FE002495F85800009423462246C1
:1076300021462235019406F005FB6C702C70002069
:107640007CBD0000DC3E0020543D030010B5022844
:107650000ED108480849401AC108032000EB014038
:10766000044606A106F05AFD204610A106F056FD7C
:10767000012010BDD053030020530300506F7765E5
:1076800072206D616E6167656D656E742077616EE5
:10769000747320746F20726573657420746F204456
:1076A0004655206D6F64652E00000000506F7765B1
:1076B00072206D616E6167656D656E7420616C6CC2
:1076C0006F77656420746F20726573657420746FC2
:1076D00020444655206D6F64652E0000084B9B7852
:1076E00023B12AB120B10068037C1BB10820704788
:1076F00007207047002303744174426118467047A5
:10770000C83C002070B509F025FC104800240B216E
:10771000047044700E4D817014206C602C706C707D
:10772000FEF7B4FF06211420FEF7D1FF1420FEF768
:10773000B8FF0848046006211120FEF7C8FF05487D
:10774000001F0068A860002070BD0000C83C002039
:10775000B82B0020081501402DE9FC47DFF8789090
:1077600099F8023073B368B3052902D20720BDE847
:10777000FC87436933B3437C012B25D000270446A3
:107780000025884616468DF80050684600F038F807
:1077900001A80BF0BBFDC8B1012101700F49446085
:1077A0000968C0E90218C0E904769DF8040089F868
:1077B00001009DF8000000F047F81420FEF77CFF60
:1077C0002846D4E70820D2E70F46D8E704259DF8DD
:1077D000000000F039F8F3E7C83C00200415014030
:1077E0000649897839B130B1416921B1002101746C
:1077F00002210BF059BC082070470000C83C002053
:1078000030B5EFF3108172B60D4A9468012324B1AC
:107810000370002900D162B630BD93604FF0E023C1
:10782000D3F88051074C25401560C3F88041D3F848
:10783000844154605A17C3F8842100220270E8E79B
:10784000D43D0020FC06FFBD0B498A68002A11D0F8
:1078500000280FD1EFF3108072B60B684FF0E022D2
:10786000C2F800314B68C2F8043100228A60002857
:1078700000D162B670470000D43D002004F05CBE29
:107880002DE9F047814605884A484FF000088AB044
:1078900001784246284600F005FA99F805004007AD
:1078A00001D4002176E005F58077B8B201AB012262
:1078B000072108F05FF904003F48404A4FF00101FA
:1078C000A0EB02004FEAD00001EB00460AD02046B0
:1078D00007F0F6F8024630462B46394906F029FCF7
:1078E000214629E0284604F057FA4FF6FF71044676
:1078F00088422BD18A46029804F0B8F904465045D4
:1079000010D00146284604F027FA2846FFF7DCFB92
:10791000E0B928460AF033FA2846FFF7D5FB0028DD
:10792000BFD013E008F0F2FA0446504508D13046C3
:1079300024A106F0F3FB042128460AF04DFAB0E733
:107940000146284604F008FA4FF00108B8B2224672
:10795000072108F087F907001BD0862F1ED007F0FB
:10796000AFF8024630462B462349009406F0E9FB67
:10797000394628460AF030FA0021484607F0EEFF63
:10798000B8F1000F02D0204604F0F0F90AB0BDE8CB
:10799000F0870121484607F0E1FFF7E71822174971
:1079A00003A8FEF741FDADF80E5003A802F044F91C
:1079B000EFE70000602B002060530300205303001A
:1079C000D4460300436F756C64206E6F7420616C45
:1079D0006C6F63617465206E657720706565725F9A
:1079E000696420666F7220696E636F6D696E6720CF
:1079F000626F6E642E00000080470300A03A03000F
:107A00002DE9FC47002517880646158090F82D00C3
:107A10001446894630B13A462146484600F06CF992
:107A2000051E09D1B0784FF00C0A18B32088C8465B
:107A3000001DB84202D95046BDE8FC87684679DF90
:107A40000028F9D12088032108F800102088192186
:107A5000401C80B2208008F800102088401C80B2B2
:107A6000208000EB0801BDF800000BF07BFB2188B3
:107A700008442080F0780222C8B1218896F90330AA
:107A800001F1030C4846BC45D5D8425421884FF03B
:107A9000010C491C89B2218000F801C02188491CD1
:107AA00089B2218009F801302088401C208070684C
:107AB000B8B1218890F9003001F1030C4846BC456B
:107AC000B9D8425421880A22491C89B221804254E3
:107AD0002188491C89B2218009F801302088401C86
:107AE0002080308950B1CDE900474B460622022163
:107AF00006F108000BF022FC051E9DD1308A50B122
:107B0000CDE900474B460722032106F110000BF098
:107B100015FC051E90D1308B50B1CDE900474B4686
:107B20001522142106F118000BF008FC051E83D164
:107B3000306A30B13B462246494601F036FA051E0E
:107B4000DBD1706A30B13B462246494604F0F2FF71
:107B5000051ED2D196F82C0038B13B462246494644
:107B600030460AF01BFA051EC7D1307838B13B46C3
:107B700022464946304605F0CBF8051EBDD12846C1
:107B80005AE7000070B5040012D001461C221448C8
:107B9000FEF74AFC1248134D0560206850B17ADFA9
:107BA000002806D12068016829604068686005E007
:107BB0000E2070BD0B487BDF0028FAD108484FF635
:107BC000FF711438084A20F8041B05493439016054
:107BD0000021FFF783FD0028EBD0032070BD0000DB
:107BE0001C3800201C2B00207532030010B5044601
:107BF00000F078F8002805D02146BDE81040024882
:107C000005F083B910BD00004838002070B5154656
:107C10000E4604460BF062FB002809D0054800EB35
:107C2000840080692A463146BDE8704003F05ABAA4
:107C300070BD00003838002070B50546002400F003
:107C400051F838B12946044805F05FF908B102241B
:107C500000E00124204670BD4438002010B51821F2
:107C6000034805F02DF9182800D0C0B210BD00005F
:107C70003838002070B505460C4608460BF02EFB40
:107C800060B1284600F02EF840B10548294600EBC7
:107C90008400BDE87040183005F037B9002070BD91
:107CA0003838002070B5054614460E4608460BF0DD
:107CB00015FB002812D0284600F014F800280DD03B
:107CC0000748294600EB860018301CB1BDE870401B
:107CD00005F026B9BDE8704005F0D7B870BD0000CA
:107CE00038380020142801D300207047014601488D
:107CF00005F00BB93C3800207CB5054608880C46D9
:107D00000930904201D90C207CBD68466DDF002807
:107D1000FAD121880820685420881B21401C80B299
:107D2000208029542088401C80B220802844DDF81F
:107D300001100160BDF8051081802088801D80B28F
:107D400020809DF80010490800D001212954208886
:107D5000401C208000207CBD10B505F0C7FA00282B
:107D600009D105484FF0030C00DF002803D1BDE81E
:107D7000104005F021BB10BD4848002018B1034950
:107D80000860002070470E2070470000842C0020FF
:107D900010B54FF0FF3100203DDF00280BD1B1219D
:107DA0003CDF002807D104484169012088470220B0
:107DB00006F080FB002010BD2C480020044810B5C0
:107DC0000068416900208847BDE81040FFF7E0BF28
:107DD000842C002010B588B0044620216846FEF7A8
:107DE0003CFB0320ADF8000020788DF802009DF8E0
:107DF0000D00172140F028008DF80D0001208DF8AE
:107E000010008DF81300ADF804108DF812008DF8F5
:107E10000C008DF811006088A21D694600F002FF79
:107E200008B010BD10B5184C86B01ECC8DE81E00F1
:107E300050B1164C4FF6FF71A180006800216061BF
:107E40006176217618B104E00E2006B010BD10480E
:107E500060610E48FFF792FF0028F6D101208DF8EF
:107E600012004FF65960ADF81000A21C04A90120C1
:107E7000A8DF0028E9D10549684662DF0028E4D17F
:107E80000248FFF7A7FFE0E7C83E03002C480020A8
:107E9000C199020010B500280FD00188214C50294B
:107EA00026D00BDC10291DD0112906D1A18880888D
:107EB000814202D14FF6FF70A08010BD512913D02E
:107EC0005329FAD1C088E1888842F6D1607E002823
:107ED000F3D0FFF773FF0028EFD06169BDE81040D1
:107EE000022008478088E7E7BDE8104007F0BABBEA
:107EF00030F8061F62899142DFD141890229DCD125
:107F00000C3000F014FC0849084A2076891AC90888
:107F1000032202EB01430246BDE8104004A11846CB
:107F200006F000B92C480020D05303002053030072
:107F3000526563656976656420696E64696361741E
:107F4000696F6E2073746174652025640000000001
:107F50002DE9F0410546007B042601272E4C01281F
:107F600011D002282CD00226287B314600F08EF852
:107F700018B12068416903208847206841690220C0
:107F8000BDE8F041084720684FF00008817E49B104
:107F90000621012000F07AF800283BD020684169D2
:107FA0000320EDE747760121084600F06FF800282E
:107FB00030D02268112882F81980D5D10626D3E75F
:107FC0006A7B142A22D80AB3DFF8508005F10E012B
:107FD00008F10400FEF728FA697BC8F81810216838
:107FE0004046897E0029BFD1A0F10C010A68011F1B
:107FF000904768B10F28B7D109480A49401AC0080C
:1080000007EB0040084906F089F8ADE70526ABE725
:1080100020688776BDE8F081842C00205448002039
:10802000D053030020530300CC50030070B5154912
:1080300000250A68002A24D04A68002A21D0083185
:10804000904708281DD0104C0028206885760ED057
:108050000621022000F01AF818B1206841690320B7
:108060008847206841690220BDE870400847012127
:10807000022000F00BF8002803D02068416903209B
:10808000F2E770BD48480020842C002086B003230E
:10809000ADF8003020238DF814308DF81500002243
:1080A0000E48019202928DF81610C188ADF80410A6
:1080B00002218DF8061005A90491ADF80820CDF82D
:1080C0000CD0808801A9AEDF002804D1BDF80010D3
:1080D000032900D00C2006B0704700002C48002077
:1080E000114A124B03219A1AD20801EB024270B1D5
:1080F00001280FD00C4A01219A1AD20801EB024242
:1081000002280AD0032810460AD009A109E0104627
:1081100011A106E010461CA103E0104623A100E0D7
:1081200031A105F0FBBF000020530300D053030032
:10813000556E6B6E6F776E206576656E7420667215
:108140006F6D20626C655F6466755F627574746FD5
:108150006E6C6573732E00004465766963652069F3
:108160007320707265706172696E6720746F20652C
:108170006E74657220626F6F746C6F6164657220DB
:108180006D6F64652E000000446576696365207735
:10819000696C6C20656E74657220626F6F746C6FB1
:1081A00061646572206D6F64652E000052657175A3
:1081B00065737420746F20656E74657220626F6FD2
:1081C000746C6F61646572206D6F646520666169AF
:1081D0006C6564206173796E6368726F6E656F752C
:1081E000736C792E00000000526571756573742000
:1081F000746F2073656E64206120726573706F6E9A
:10820000736520746F20636C69656E7420666169A4
:108210006C65642E00000000F8B501880027464C0C
:108220000546212967D01CDC4448454A4FF0010629
:10823000A0EB02004FEAD0004FF0030202EB004037
:10824000102920D011293DD013295FD100231A46CF
:108250008521A0897FDF002858D03AA240F25D3105
:108260000DE03B295ED0522951D056294ED180884D
:10827000132176DF002849D032A240F27F31BDE8D9
:10828000F840FDF7C7BF33A105F048FF26716671BE
:10829000A671012000F0B0FB002000F0A5FBA9882A
:1082A000A1812F4804F098FF20B126A240F2463168
:1082B000FDF7B0FFFEF726FF002827D021A24FF4DC
:1082C0005271DCE727A105F029FF27716671A771BC
:1082D000012000F089FB4FF6FF70A081FEF7FAFE47
:1082E00020B118A240F25331FDF794FFBDE8F840E9
:1082F0000020FEF787BE0097808869468FDF002840
:1083000004D010A240F26931FDF784FFF8BD0023CC
:108310001A461946A089B1DF0028F7D009A240F219
:108320006F31ACE78088132176DF0028EED005A2FC
:1083300040F27731A3E70000A82A0020D0530300C1
:10834000205303002E2E5C2E2E5C2E2E5C6D616958
:108350006E2E6300436F6E6E65637465640000008B
:1083600038350020446973636F6E6E6563746564AD
:10837000000000002DE9F04701883B4E40F2F31960
:108380004FF6FF7510291BD011293ED0122954D069
:10839000502946D1C188F289841D914241D1618919
:1083A00002293ED18688304603F0A4FD050038D06E
:1083B00004F10C0000F0BFF9A8B3294630464EE0A6
:1083C000C17B8788044601292BD1A846284603F0A3
:1083D00091FD050017D02F800020287223484346C6
:1083E0004A460168C5F80A104068C5F80E0004F155
:1083F000100105F10A0003F071FE6872F08900288F
:108400000FD129462AE0042013E0808803F072FD92
:10841000040006D06068FFF7E3F908B109F0C0FC7A
:108420002580BDE8F087FFE76868FFF7D9F90028E5
:10843000F7D0BDE8F04709F0B3BC87880646384658
:1084400003F058FD0400ECD02B464A4606F1080123
:1084500004F10A0003F042FE607221463846BDE88E
:10846000F04700F0F5BD00001C3800201C2B002058
:108470002DE9F04F0746858802883E48012197B0D4
:108480008346102A09D0112A4BD01A2A6ED1387A85
:10849000B1EB101F47D2012246E0364C083CA068E1
:1084A000C0430B9061680BA804F053FD0B990CA816
:1084B00000F05CFD2C220CA96846FDF7B5FF0026F4
:1084C000E946A04610E000BF09EB46005FF000045B
:1084D000B0F804A008EB84005146001D04F0D5FC60
:1084E000641C1D2CF6D3761C0098B042ECD8142DD9
:1084F00007D317B0E321BDE8F04F1FA20420FDF71A
:1085000089BE2946584604F00BFD294608F10400AF
:1085100004F006FDF87B012828D016482946001DE6
:1085200015E029461AE000220221B1EB101F01D20A
:10853000012600E000260F49083901F11000041D52
:10854000294682B104F0ECFC36B12946204617B02A
:10855000BDE8F04F04F0E4BC2946204617B0BDE862
:10856000F04F04F092BC04F090FCF5E717B0BDE8C2
:10857000F08F0000403800202E2E5C2E2E5C2E2E18
:108580005C2E2E5C2E2E5C2E2E5C636F6D706F6EDB
:10859000656E74735C626C655C636F6D6D6F6E5C51
:1085A000626C655F636F6E6E5F73746174652E637A
:1085B0000000000010B504460748007800280AD0E3
:1085C000204603F0C5FA204609F0C4FD2046BDE868
:1085D000104002F0F5BE10BD502B002070B58EB0DB
:1085E000044608686061304B4868A0610FCB08AD55
:1085F00085E80F0004F1120108A862DF002851D1BC
:10860000A07C8DF8320041F22350ADF830002246B4
:108610000CA90120A8DF002844D120216846FDF7DD
:108620001CFF41F22450ADF80000A07C01258DF81C
:1086300002008DF80C509DF80D00ADF80650F426A0
:1086400040F012008DF81150ADF804608DF80D0067
:108650008DF81350208804F10A02694600F0E2FA0E
:1086600000281FD120216846FDF7F7FE41F2255072
:10867000ADF80000A07C8DF802008DF80C509DF83C
:108680000D00ADF8065040F00A008DF81150ADF81D
:1086900004608DF80D008DF812502088A21C6946E8
:1086A00000F0C0FA0EB070BD143B030030B4028875
:1086B000502A1BD1034630F8062F4D88AA4209D113
:1086C0004489012C06D14C6924B1027B9888A446C8
:1086D00030BC6047AA4209D14389012B06D98A6977
:1086E000002A03D030BCD9B20C30104730BC7047E0
:1086F00010B586B09BB2A0F57F44ADF81030FF3CBA
:1087000013D0F42B11D2002300930193029303930F
:1087100001238DF802304989ADF8001004A9CDE994
:1087200002126946AEDF06B010BD0820FBE70078F4
:10873000C0F340007047007800F00100704700006F
:1087400008B506F0D5F820B10D4A40F29231FDF798
:1087500061FD002000906946012005F019FF20B15D
:10876000074A4FF46671FDF755FD684605F0AAFF0C
:10877000002804D0024A4FF46771FDF74BFD08BD95
:1087800060700200087A0A782AB1012A03D0022A0E
:1087900001D0032A09D100EB40020448497840681F
:1087A00000EB82000172002181727047742C00205E
:1087B000806970472DE9FE430E4601698469804651
:1087C000B1F5007F02D00620BDE8FE83134D696835
:1087D00009B11120F8E7A660A26168601049143061
:1087E000FEF788FE070008D1A6B900BFFEF768FEB5
:1087F0000028FBD1287878B10D27002068604EB1A1
:10880000084A07CA8DE80700A0690290A268694675
:10881000404690473846D7E70027FBE7042C002066
:10882000E5110300A03D030019B1012906D006207F
:1088300070470AB1002010700020704712B1001D6F
:108840001060F9E707207047FEB51C4F06468469A3
:1088500078680D46B04202D1FEF732FE08B1112011
:10886000FEBD95E8070004F10C0383E80700A88823
:10887000296882B2A868FEF777FD050009D1A068D3
:10888000C0B900BFFEF71CFE0028FBD1387898B1B4
:108890000D25A06870B16DB10948016B806B029025
:1088A00004F10C00CDE90010A0690290A2686946AD
:1088B000304690472846FEBD0025EAE7042C0020FC
:1088C000883D0300FEB5124F044685697868A042D2
:1088D00002D1FEF7F5FD08B11120FEBDFEF792FEB4
:1088E000060000D17860A86878B10A4907C98DE808
:1088F00007000EB1012000E000208DF80100A869FA
:108900000290AA686946204690473046FEBD0000A6
:10891000042C0020AC3D0300FEB51C4F06468469C4
:1089200078680D46B04202D1FEF7CAFD08B11120A9
:10893000FEBD95E8070004F10C0383E80700A88852
:10894000296882B2A868FEF75DFD050009D1A0681C
:10895000C0B900BFFEF7B4FD0028FBD1387898B14C
:108960000D25A06870B16DB10948C16B406C0290D3
:1089700004F10C00CDE90010A0690290A2686946DC
:10898000304690472846FEBD0025EAE7042C00202B
:10899000883D03002DE9FC410646C0074FF0000565
:1089A0000ED0104F00240122385D0095002311469F
:1089B000019505F011F9641C042CF4D300F024F89F
:1089C000B0070DD5074E0024361D0022305D03236D
:1089D00000951146019505F0FFF8641C042CF4D3B2
:1089E000BDE8FC81603903000249085C012105F003
:1089F00081B90000603903000249085C002105F0DC
:108A000079B900006039030010B500242046FFF753
:108A1000EBFF641C042CF9D310BD00002DE9F843D2
:108A20000546861C00208DF8000090460F464FF04A
:108A300001096846FEF7E4FE1B4C20683860D4E963
:108A40000001401AA16804F21C47081A0EE0012137
:108A5000384604F078FA03F051FE0146384604F037
:108A600072FAD4E90001401AA168081A401C864233
:108A7000EDD8B8F1000F03D0052065F3891002E0AE
:108A8000062065F39F50A2682168114004EB810124
:108A9000C8602068304420609DF80000FEF7D4FED6
:108AA0004846BDE8F88300008041002030B4826869
:108AB0000468531C8360A154D0E901128A4202D396
:108AC00030BC04F04DBD30BC70470000034803C803
:108AD000814201D101207047002070478041002071
:108AE00010B50D2803D011A240F2BB3119E0134894
:108AF0001349401AC008032101EB004011A105F001
:108B00000DFB002C11D0A4F5405002380DD0082CDC
:108B10000BD043F20140844207D0204603A240F22A
:108B2000B631BDE81040FDF775BB10BD2E2E5C2E92
:108B30002E5C2E2E5C6D61696E2E6300D053030097
:108B40002053030053656E6420627574746F6E2049
:108B50007374617465206368616E67652E00000040
:108B60001CB5044603F018F900236A46092107F0F2
:108B700043F9052805D10348012241792046FFF732
:108B800091F81CBD242B00201CB50021009142F659
:108B9000A621ADF8001001218DF80210034901AAA9
:108BA000096801916946A0DF1CBD000080390300FF
:108BB00005494FF0FF32082841F8202002D308442D
:108BC00080F8482070470000A83B0020F0B54FF027
:108BD000FF3512B10023082601E008230C260C4CB7
:108BE00005E000BF54F823707F1C04D05B1CB34227
:108BF000F8D32846F0BD26185DB286F8305044F808
:108C00002310002AF5D1E11881F84800F1E70000AF
:108C1000A83B00200249084490F93000704700004A
:108C2000A83B00202DE9F0438146887891B090461A
:108C30000C4600B901208DF83E002088ADF83C00BC
:108C400000250095607C694609F02EFA6E46A07CEE
:108C5000711C09F029FAE07B00289DF8020002D07F
:108C600040F0080001E020F008008DF80200217CAF
:108C700011B140F0100001E020F010008DF802006A
:108C8000217B11B140F0010001E020F001008DF8DE
:108C90000200217D09B1022100E0012161F34200BF
:108CA0008DF802001C2102A8FDF7D7FB607BC106EE
:108CB00001D4800617D50E950EAFE07C791C09F023
:108CC000F3F99DF83800079720F00F00401C20F0C2
:108CD000F00010308DF838009DF83A0020F00600C2
:108CE000801C8DF83A00607B8DF80800A07B8DF821
:108CF0000900142109A8FDF7B0FB0FA8CDE909066A
:108D0000A088ADF83000A06820B1E088ADF82C0054
:108D1000A0680D90A06998B301950088ADF8100087
:108D2000A06901AD01A94088ADF81200A0694068B2
:108D300006950390A069007B09F0B6F9A069691C4B
:108D4000407B09F0B1F9A069807A00289DF80600FF
:108D500002D040F0080001E020F008008DF8060085
:108D6000A169C97A11B140F0100001E020F01000B3
:108D70008DF80600A169097A19B140F0010002E0FE
:108D80000DE020F001008DF80600A169897B09B192
:108D9000022100E0012161F342008DF80600E06944
:108DA00000B10590434609AA02A94846AADF11B0BE
:108DB000BDE8F08310B504460020E070401EE0627C
:108DC000204603F051FF08B1042010BD04F22E200C
:108DD00003F0D4F9A0F52A41553901D0032010BD84
:108DE00094F83000E92805D0EB2814D194F832002B
:108DF000902810D104F1660003F0B5F90749B1EBF2
:108E0000002F06D004F1820003F0ADF90449884236
:108E100001D1002010BD022010BD000000464154C9
:108E20004641543370B504464FF6FF750A4628464E
:108E3000AC4209D14FF480742146104604F040F84A
:108E400080B2A0420BD070BDFF2CFCD8214610464A
:108E500004F026F890F0010F01D0204670BD28469E
:108E600070BD000070B5084C050009D010342168B1
:108E7000002907D008682060496828468847F6E737
:108E80000834F4E770BD0000943B0020054A01213E
:108E900020B1012805D19170FFF7E4BF5170002087
:108EA000FAE77047943B00204269891E921E8A426D
:108EB00001D800207047826A408901FB002070477A
:108EC0002DE9F05F26484168F1B3DFF898B00E68ED
:108ED0008146DBF8004087688078E11B21F07F4500
:108EE000ED1CB0B9DFF880804FF48030C8F844033F
:108EF000C8F804031120FDF7C9FB1120FDF7D1FBD1
:108F00004FF0010AC8F800A02F2005F02FFE89F8C5
:108F100002A0B54200D23546124BE8193C3320F08E
:108F20007F401860DBF800105A46091B21F07F4192
:108F3000001B20F07F40C91C81420FD910681860C7
:108F40002F2005F013FE00E004E0BDE8F05F1120E3
:108F5000FDF7B2BBBDE8F05F07F0FCBFBDE8F09FD6
:108F6000B82B0020041501400010014073B58CB0EF
:108F70000646002000900D9880B100246D462146E1
:108F80000DA803F0C2FF30B1009805EB40008480CB
:108F90000098401C0090641C142CF0D32C226946CD
:108FA0003046FDF741FA0EB070BD2DE9F04117884B
:108FB0000646B81D14460D46984202D90C20BDE85D
:108FC000F0813188072206290AD34FF4486C4FF606
:108FD000FF73614501D9994202D17088062801D2F8
:108FE0001046ECE7604501D99842F9D1994203D087
:108FF000984201D08142F3D80520E85520881221FB
:10900000401C80B2208029542088401C80B22080DF
:10901000411930880AF0A6F82188084480B22080DF
:10902000411970880AF09EF82188084420800020A9
:10903000C5E7000002A240F21531FDF7EBB80000D1
:109040002E2E5C2E2E5C2E2E5C6D61696E2E6300C2
:1090500038B54A7A0F4B62B100220A725969002969
:1090600006D001228DF80020ADF80200684688473E
:1090700038BD0A7A62B19B684C68024619462046A0
:10908000FEF76AFB0028F3D0BDE8384008F088BE40
:109090005B68F1E71C380020F0B587B016460F4634
:1090A00004461D4618220B496846FDF7BDF90A48DB
:1090B0008DF80870ADF80240ADF80A608DF80C50DC
:1090C000017800222046FEF7EDFD684600F0B4FD71
:1090D00007B0F0BDB83A0300602B00202DE9F04145
:1090E00005680F00804606D002F0E6FA022809D291
:1090F0000120BDE8F081EE6816B16869B04207D87A
:10910000012605E0411CF4D069698142F1D83E4650
:1091100034466869641CA04202D80224022E0AD395
:109120002146404602F0C8FA38B10128E1D0411C7E
:10913000DFD0B442EDD10020DBE74FF0FF363246FE
:109140002146284607F01AFC30B957B12246394665
:10915000284607F013FC20B101280FD00124204637
:10916000C7E7EC60D5E90401891E884201D2401EA0
:109170002861287940F001002871F0E73446EEE7D5
:109180002DE9F0410E4620300D6804460B222021C7
:1091900003F00CFD0020014608232A5C401C202A15
:1091A00012D92F2A0BD05C2A09D02E2A01D099423D
:1091B00014D30B2B37D02E2A35D10CE0401C2B5C5E
:1091C0002F2BFBD05C2BF9D02844306059B320788A
:1091D000E52834D035E008210B23DEE7A2F1810732
:1091E0001E2F02D95F3F1C2F13D82F5C401CA7F104
:1091F000400CBCF13F0F04D3A7F1800CBCF17D0FF4
:1092000011D2A3F1010C61450DD26254491C67547F
:1092100013E010A700E07F1C97F800C0BCF1000F1E
:1092200004D09445F7D10620BDE8F081A2F1610792
:10923000192F01D8203AD2B26254491CADE705205B
:109240002070202A01D8042000E00020E0720020D5
:10925000EAE70000222A2B2C3A3B3C3D3E3F5B5D77
:109260007C7F000070B588B006460020059006900F
:10927000ADF81410ADF816100190029001AA05A9DE
:10928000304690DF050021D005F01AFC0346114856
:1092900011493246401AC108012000EB0140044642
:1092A0000E4904F046FFBDF8042012B9BDF80600CF
:1092B00028B1BDF80630204609A104F03AFFBDF8F8
:1092C00008201AB12046164904F02CFF08B02846A1
:1092D00070BD00002053030020530300743F0300BF
:1092E000546865207265717565737465642054589F
:1092F0002F5258207061636B6574206C656E6774C3
:109300006820697320746F6F206C6F6E67206279BC
:109310002025752F2575206F63746574732E0000EA
:10932000C03F030070B504460948012103F026FE42
:10933000BFF35F8F0025002808D1204603F058F9BD
:10934000002803D1BFF35F8F0148056070BD0000A6
:10935000302B002020BF70477FB50C4610B1012094
:1093600004B070BD2079002638B141F61D550128A2
:109370001BD0022826D00F20F2E70220207102968F
:109380000396E0680190694601A807F005FD50B119
:1093900002988188E18000882081BDF80010029841
:1093A00007F078FDDCE70A20DAE70A4B6A4600217D
:1093B000A01D07F0ADFC38B1064918398E61CE61A9
:1093C0000A28CDD12846CBE702488188019807F0CA
:1093D00061FDF5E7EC2B00202DE9F0470025DFF8D3
:1093E0008C803CE06068002100EBC50601203278EB
:1093F0009146FDF705F8D4E9062300EA020701EAE1
:10940000030C57EA0C0728D082438B434846C4E933
:10941000062305F091FC3278824691460120002116
:10942000FCF7EEFFD4E9042300EA020401EA030793
:109430004A4650460021FCF7E3FF44404F403C437E
:109440000BD17078012801D0012100E00021726861
:1094500081EA0A010AB1484690476D1CEDB298F8BE
:10946000000044468542BDD3BDE8F087982B00201C
:109470002DE9F04104460021056800F008F90028B4
:1094800026D12846A16903F0EFFB02001FD1E06955
:10949000017899B1C17A01F03F01A171C17A090740
:1094A0000FD404F120010B2610F8013B11F8017BC9
:1094B000DB1B761E04D0002BF6D002E0042206E06F
:1094C0002BB10021204600F005F80200D9D010464B
:1094D000BDE8F0812DE9F047054607690468806919
:1094E0008946203710B1B7F5001F02D30420BDE82C
:1094F000F087F90560D1401CA86169694FF0000848
:1095000029B16089401E10EA572F05D054E0208908
:10951000B0EB571F1DD94FE0284602F0CDF80646A4
:1095200001281BD9701C33D06069B0423ED8B9F114
:10953000000F0ED028466969FFF7D0FD06000BD05A
:10954000012E0BD0701C23D0204609F005FBF8B982
:1095500006E0C5F81880C9E70720C8E70220C6E77B
:109560004FF40072002104F1300003F01FFB4FF0B4
:10957000000831462046FFF797FC4FF00109E062F2
:109580000DE000BF84F80390204609F0E5FA08B129
:109590000120ACE7E06A08F10108401CE062618943
:1095A0004145EFD8E16AA1EB0800E0623146204670
:1095B0006E61FFF779FCA861C7F3080020443030E2
:1095C0002F61E861002092E770B504460E46042042
:1095D000256821E0284603F047FB10BBE2691178BB
:1095E000B1B1D27AE52902F03F02A2710AD02E2948
:1095F00008D00F2A06D022F0200108290AD0002125
:10960000B14210D000212046FFF764FF20B108E0EE
:10961000042006E00121F3E7A1690029DAD100283E
:1096200001D00021A16170BD70B50446002106681B
:1096300000F02DF80DE03046A16903F015FB50B99C
:10964000E0690078E52809D040B101212046FFF704
:1096500041FF0028EFD0042807D007E03046A16979
:1096600003F002FB050003D00FE0072005460CE0E5
:1096700020220021E06903F099FA0B2204F1200175
:10968000E06903F089FA0120F070284670BD2DE9E9
:10969000F04107680E460546B1F5001F36D2F006C8
:1096A00034D12E61AC6824B93878032805D37C6A9C
:1096B0001CB178894FEA402812E03889B0EB561F78
:1096C00024D9786A12E0284601F0F6FF0446401CCF
:1096D0001AD0022C1AD37869A04217D9A6EB080633
:1096E00046452146EFD23846FFF7DEFBC5E9054087
:1096F00060B100EB5620A861C6F308003844303052
:10970000E8610020BDE8F0810120FBE70220F9E7D5
:1097100070B51C4C217888420DD2616800EB400581
:1097200051F825303BB101EB85014A7AD20704D0CC
:109730004A6822B105E0032070BD487A70BD124A24
:109740004A6001228A720246186810490668184663
:10975000B04710B110E040688047606800EB8500BA
:10976000817A0029F7D1616801EB8501097A19B97D
:10977000417A21F001014172606800EB8500407A76
:1097800070BD0000742C00205593020085870200F4
:1097900038B51D4D2B78984201D3042038BD00EB1D
:1097A000400439B118480129406815D002291DD05C
:1097B000012038BD01208DF8000068686A4600214C
:1097C00050F8240003F080FD08B1112817D19DF84E
:1097D00000000028F1D112E050F8240088B101689F
:1097E0001446496988470068206008E050F8240062
:1097F00038B1016814464969884780882080002074
:1098000038BD032038BD0000742C0020FEB51D4C6F
:109810002578A8420DD263B100EB4005606850F88E
:10982000256026B100EB8506777AFF0703D0032079
:10983000FEBD0420FEBD0092CDE901310121B172CF
:1098400050F825606F4630684169304688470068A7
:109850000099884214D9306839468268304690476A
:1098600010B10DE040688047606800EB8500817AA8
:109870000029F7D1606800EB8500007A0028D9D074
:109880000120FEBD742C002006490A78904201D3C5
:1098900001207047496800EB400001EB8000407AEE
:1098A00070470000742C002070B51A4C2178884253
:1098B0000CD2616800EB400551F8250030B101EB96
:1098C00085014A7AD20703D0487A70BD032070BD63
:1098D0000022114603F0F8FC606850F8250001688A
:1098E000496888471128F7D010B107E040688047E1
:1098F000606800EB8500817A0029F7D1606800EB91
:109900008500017A19B9417A41F001014172407A2A
:1099100070BD0000742C0020FEB5204C2578A842B4
:109920000DD263B100EB4005606850F8256026B1A8
:1099300000EB8506777AFF0703D00320FEBD0420E5
:10994000FEBD777A7F0701D50220FEBD0092CDE9EA
:1099500001310121B17250F825606F4630684169CC
:109960003046884700680099884214D930683946E3
:10997000C2683046904710B10DE04068804760688B
:1099800000EB8500817A0029F7D1606800EB850043
:10999000007A0028D9D00120FEBD0000742C0020E0
:1099A000014A506011707047742C002010B50021DE
:1099B000024803F0E3FA80F3100010BD9C4500203C
:1099C000704700000E4910B50A784C780023A24277
:1099D00012D0521CD2B20A70022A00D10B70084A6F
:1099E0000B780C3252F8232002608868104420F073
:1099F0007F408860012010BD0360002010BD000082
:109A0000B82B002013460A460021FFF745BB000093
:109A10002DE9F843104D0F4680461E469146694693
:109A2000286803F006FA040014D01C21FCF715FD89
:109A300001202071C4F81490380BC4F80080C4E9E8
:109A400002606946286803F015FA07F0DBF8002089
:109A5000BDE8F8830420FBE7D03D030010B5037890
:109A60000022072B06D2DFE803F0050406102029A8
:109A700030000A7010BD01230B7003898B8183882D
:109A8000CB81C06888600A7410BD02220A70028906
:109A90008A818288CA81C2688A60807D062802D055
:109AA0000020087410BD0120FBE703220A70C28861
:109AB0008A810289CA81C068886010BD04230B7046
:109AC000C0888881CA818A6010BD0520087010BDD9
:109AD00070B5064D0646002455F8241009B13046ED
:109AE0008847641C042CF7D370BD0000083E00209A
:109AF00030B50446006887B00D46806800281FD046
:109B000018216846FCF7A9FC0195A068059020790A
:109B100010B1012810D107E001208DF80000206964
:109B20000290E068039005E002208DF80000E068F4
:109B30000003029060690490206881686846884745
:109B400007B030BD2DE9F04186B016460C008046C6
:109B500029D0112C27D0082C25D018216846FCF7D5
:109B60007CFCADF80280404602F016F9ADF8040026
:109B70001B481C490027401AC5080D2C16D020464A
:109B800004F09EFF0246012000EB054043461649C3
:109B900004F0CFFA07208DF8000002948DF80C70C5
:109BA000684600F057F806B0BDE8F081022000EBEF
:109BB000054042460D4904F0B5FA03208DF8000037
:109BC00026B13078C00701D0012000E002208DF8D6
:109BD000080041F201108DF80C70ADF80A00DFE7C3
:109BE0006853030020530300A0490300904803007A
:109BF00010B50446408802F0CFF8A0800248016802
:109C00002046BDE8104008472C2B00202DE9F041EC
:109C100007460024064E074D05E000BF56F8241005
:109C200038468847641CE8788442F7DBBDE8F08159
:109C3000483B0020502B002010B50446408802F01D
:109C4000ABF8A080024801682046BDE810400847F4
:109C50006C3A03000149096808470000103B030003
:109C600038B5044600F000FA002807D169462046BE
:109C700009F0CBFB002801D10021216038BD000094
:109C800017B581B0144602980090684601F0A4FD13
:109C9000002802DA0B2004B010BD0B4A002352F852
:109CA000201001B10B700199002900D00B7042F80F
:109CB000201001D0012C01D00020ECE7002201A9E6
:109CC00002A801F085F8E6E7802C00202DE9F74393
:109CD0008CB005000BD002F03F06324669460DA855
:109CE00001F076F804004FF0000804D0C0E009202D
:109CF0000FB0BDE8F0830098019001A80D9901F024
:109D0000B7F9040004D19DF82F00000600D5062401
:109D100016F01C0F4CD04CB1042C03D101A8FFF756
:109D200083FC044646F008065CB1A1E09DF80A00F9
:109D300010F0110F01D007249AE0700701D5082414
:109D400096E0300743D54D4F089839460E3008F05D
:109D500041FE08983946163008F03CFE089920204C
:109D6000C8720899009802F0EBF90746002208999A
:109D7000009808F01BFE089800211C3008F02AFE0D
:109D800000990120C87007B3D1F82C900022394601
:109D900001A807F0A3F804006AD14946009802F030
:109DA00063FF04000098A7F10107C7600BD05FE0D4
:109DB000CCBB9DF80A00C10601D5042458E0B107C8
:109DC00001D5C007B7D1300701D546F0400600984D
:109DD000C16A296208996962089902F0B1F9A8601C
:109DE00008981C3002F0BFF9E860009828600098DD
:109DF0004FF400720021C088A8802E7485F811806D
:109E0000C5F81C8005F128008146C5F8148002F0D1
:109E1000CDFEB0062ED5EE6866B36E610098A968D7
:109E2000408947020FE023E0284601F045FC014647
:109E3000012800D80224481C02D0F61B1CB104E003
:109E40000124F61B01E0BE42EED8A96184B9F005F9
:109E500010D00098FFF728F870B100EB5622EA61A5
:109E60000098012349464078FFF7D0FC10B1012447
:109E7000C5F8008020463BE70224F9E700002148AE
:109E800013B582B0040006D00022694603A800F092
:109E90009FFF18B120E0092004B010BD0099216097
:109EA0002046039901F0E4F890B994F82B000006DD
:109EB00007D4A079C00612D5E169009802F040F9F4
:109EC000A0600098C188A18020460021FFF7DFFB39
:109ED000042804D00028DFD000212160DCE7052021
:109EE000FAE72DE9FE4F884600211960994615468C
:109EF000044602A909F089FA002812D1607C0028E2
:109F00000FD1207CC0070BD06169E0680127401A9F
:109F10004FF0020A04F1280B854200D905467EE085
:109F20000720BDE8FE8F6069C10560D102994989AB
:109F3000491E11EA502609D108B32046A16901F053
:109F4000BBFB02281DD3411C4CD0A061A169029823
:109F5000FEF7AAFFA8B130440190680A009027D00C
:109F6000029932184889824201D9801B0090DDE9AC
:109F7000003248784146FFF749FC98BB05E0A068ED
:109F8000DFE784F811A00220CBE7207C00060CD587
:109F9000E1690198081A0099884206D208EB40202E
:109FA0004FF40072594602F0F7FD009846022CE08B
:109FB000E2690198824218D0207C00060AD50298F6
:109FC000012359464078FFF7A7FC58B9207C00F0E0
:109FD0007F0020740298012359464078019AFFF7C8
:109FE00015FC10B1677401209BE70198E061A08A1D
:109FF000C0F30800C0F50076AE4200D92E46011924
:10A0000032464046283102F0C7FD6069B044304412
:10A010006061D9F800008119AD1BC9F80010002D4E
:10A0200081D100207DE738B50C460546694609F028
:10A03000ECF9002813D1014628468CB1FFF7C4FA89
:10A04000042801D000280AD12146284601F093FBBC
:10A0500000212846FFF73EFA042800D1002038BD31
:10A06000FFF715FB38BD0000F8B50446694609F056
:10A07000CCF900280ED1217C4A060BD508060ED556
:10A080000098E2690123407804F12801FFF744FCBD
:10A0900008B10120F8BD207C00F07F002074154E2F
:10A0A000216A009802F0E0FD0028F3D1656A294694
:10A0B000E87A40F02000E872A268206808F076FC98
:10A0C00005F11C00E16808F085FC314605F1160039
:10A0D00008F080FC002105F1120008F083FC0098D4
:10A0E0000121C17008F0F4FC217C01F0BF01217452
:10A0F000F8BD0000000021482DE9FE4F88460021F0
:10A10000196099461546044602A909F07EF900280F
:10A1100006D1607C002803D1207C800702D4072070
:10A12000BDE8FE8F6069012742194FF0020A04F171
:10A13000280B824200D2C54394E06069C1056ED10C
:10A1400002994989491E11EA502612D108B1A16924
:10A1500002E0A06828B900212046FEF7BFFF0028D2
:10A160007DD001282DD0411C54D0A061A16801B937
:10A17000A060207C00060BD50298E269012340789C
:10A180005946FFF7C9FBA0BB207C00F07F0020747C
:10A19000A1690298FEF788FE98B130440190680AE0
:10A1A000009027D0029932184889824201D9801B39
:10A1B0000090DDE9003248784146FFF7ADFBC0B9B9
:10A1C00003E084F811A00220AAE7E1690198081AC7
:10A1D000009988420AD208EB40214FF40072584699
:10A1E00002F0DAFC207C00F07F0020740098460228
:10A1F00027E00FE0E169019881420ED0E1686069D3
:10A2000088420AD20298012359464078019AFFF702
:10A21000FDFA10B16774012082E70198E061A08A1D
:10A22000C0F30800C0F50076AE4200D92E462044A7
:10A2300032464146283002F0AFFC207C40F08000DE
:10A2400020746069B04430446061E168884200D89D
:10A250000846E060D9F80000AD1B304400E004E09F
:10A26000C9F80000002D7FF468AF207C40F040006A
:10A270002074002054E700002148224970B5401A9C
:10A28000C108032000EB014004461FA103F046FF74
:10A2900003250020FFF73CFA02466D1E02D000287D
:10A2A000F7D103E012B120461FA125E0294E2A482C
:10A2B0007169884740684FF48011B1FBF0F571690E
:10A2C00025488847006825A1B0FBF5F0204603F03B
:10A2D00025FF012213A12648FFF7D2FC02002046E9
:10A2E00001D024A108E02AA103F018FF0020FFF705
:10A2F000DBFA024620462EA1BDE8704003F012BFF3
:10A30000D053030020530300496E697469616C697E
:10A310007A696E67206469736B2030202853444348
:10A32000292E2E2E000000004469736B20696E698F
:10A330007469616C697A6174696F6E206661696CB9
:10A3400065642E6572726F722069733A20256420ED
:10A3500000000000703D0300083903004D6F756E6A
:10A3600074696E6720766F6C756D652E2E2E0000F9
:10A37000F02D00204D6F756E74206661696C656408
:10A380002E6572726F7220697320256400000000D0
:10A39000556E696E697469616C697A696E6720646B
:10A3A00069736B20302028534443292E2E2E000041
:10A3B0004469736B20756E696E697469616C697A42
:10A3C0006174696F6E2E2072657475726E20697388
:10A3D0003A20256420000000F8B565486549401A18
:10A3E000C608032000EB064463A1204603F096FE56
:10A3F00003250020FFF78CF902466D1E02D00028CD
:10A40000F7D103E012B1204663A117E06D4D6E480D
:10A410006969884740684FF48011B1FBF0F76969BA
:10A420006948884700680122B0FBF7F059A16748E6
:10A43000FFF726FC020004D0204665A103F072FE5F
:10A44000F8BD67A16748FFF71BFD10B166A1204664
:10A450000EE00520634D00EB06462C3505F109079B
:10A46000604960482C31FFF7DEFD20B1204665A130
:10A4700003F054FEF8BD687A88B1287AC00605D585
:10A4800030463A4665A103F04DFE05E030463B46B6
:10A4900066A12A6803F04DFE687A0028E0D13046B4
:10A4A0003CA103F03BFE644D204664A16A6903F0C1
:10A4B00039FE4C48012280306969FFF707FC030030
:10A4C00005D0204663A16A6903F033FEF8BD002081
:10A4D0006C4900904FF496726B4601F68200FFF7CC
:10A4E00000FD0028204603D067A103F017FE04E01A
:10A4F000009B69A1EA6A03F01CFE3A488030FFF72E
:10A50000AFFB0028204601D06AA100E06FA103F054
:10A5100005FE72A1204603F001FE0020FFF7C4F9FA
:10A520000246204675A103F0FDFD0098401C02F094
:10A53000CBFA00990446491C0170002004E0E96A46
:10A540002218095C5170401C00998842F7D3A889F1
:10A55000A0F57F41FF3906D02249009B22464431B5
:10A560005B1CFEF7C5F8204600F0D4FDF8BD0000E6
:10A57000D053030020530300496E697469616C690C
:10A580007A696E67206469736B20302028534443D6
:10A59000292E2E2E000000004469736B20696E691D
:10A5A0007469616C697A6174696F6E206661696C47
:10A5B00065642E6572726F722069733A202564207B
:10A5C00000000000703D03000839030094320020B1
:10A5D0004D6F756E74206661696C65642E2564002C
:10A5E0002F000000C43400204469726563746F72E8
:10A5F00079206C697374696E67206661696C656443
:10A60000210000004469726563746F72792072657D
:10A610006164206661696C65642E00002020203C26
:10A620004449523E202020257300000025396C75D6
:10A630002020257300000000A82A002052656164D4
:10A640002066726F6D0966696C65202573202E2E59
:10A650002E000000556E61626C6520746F206F7073
:10A66000656E206F72206372656174652066696C27
:10A67000653A202573202E4572726F72206973200F
:10A6800025642E00C22C0020526561642066616939
:10A690006C65640D0A2E00002573206973207265B5
:10A6A000616465642E202062722069733A256420FB
:10A6B0000000000046696C6520636C6F736520665E
:10A6C00061696C65640D0A2E0000000046696C65C6
:10A6D00020636C6F7365642E00000000556E696E18
:10A6E000697469616C697A696E67206469736B204B
:10A6F000302028534443292E2E2E00004469736BCA
:10A7000020756E696E697469616C697A6174696FCC
:10A710006E2E2072657475726E2069733A202564FE
:10A7200020000000F8B558485849401AC6080320D0
:10A7300000EB064456A1204603F0F0FC0325002060
:10A74000FEF7E6FF02466D1E02D00028F7D103E0B7
:10A7500012B1204656A194E0604F6148796988475C
:10A7600040684FF48011B1FBF0F579695C48884787
:10A7700000680122B0FBF5F04CA15A48FFF780FABF
:10A78000020002D0204658A17BE05EA15E48FFF7A0
:10A7900077FB10B120465DA10EE005205A4D00EB7D
:10A7A00006462C3505F10907574957482C31FFF764
:10A7B0003AFC20B120465CA103F0B0FCF8BD687AF9
:10A7C00088B1287AC00605D530463A465CA103F028
:10A7D000A9FC05E030463B465DA12A6803F0A9FCD0
:10A7E000687A0028E0D1304630A103F097FC5B4D39
:10A7F00020465BA12A6903F095FC32225E48296954
:10A80000FFF764FA030005D05CA120462A6903F033
:10A8100090FCF8BD514803226449303002F042FAFE
:10A8200020461023614A62A103F083FC6B4611228B
:10A830005E495148FFF760FC012620B168A120461F
:10A8400003F06CFC05E06E7069A12046009A03F0ED
:10A8500069FC4948FFF704FA0028204603D069A1A3
:10A8600003F05CFC03E06DA103F058FCEE7220469F
:10A870006EA103F053FC0020FFF716F802462046B5
:10A8800072A103F04FFCF8BDD05303002053030026
:10A89000496E697469616C697A696E67206469736D
:10A8A0006B20302028534443292E2E2E0000000018
:10A8B0004469736B20696E697469616C697A61744B
:10A8C000696F6E206661696C65642E6572726F7265
:10A8D0002069733A2025642000000000703D0300C9
:10A8E00008390300203000204D6F756E74206661BA
:10A8F000696C65642E6572726F72206973202564BD
:10A90000000000002F0000005032002044697265F2
:10A9100063746F7279206C697374696E6720666105
:10A92000696C6564210000004469726563746F722C
:10A93000792072656164206661696C65642E00002F
:10A940002020203C4449523E202020257300000056
:10A9500025396C752020257300000000A82A0020EE
:10A9600057726974696E6720746F2066696C652020
:10A970002573202E2E2E000044350020556E616276
:10A980006C6520746F206F70656E206F722063722B
:10A99000656174652066696C653A202573202E45D3
:10A9A00072726F722069732025642E00B12C002012
:10A9B00057726974696E6720416375706F696E7450
:10A9C0002064617461206973202573212121212174
:10A9D000212E73697A656F662069733A25640000D9
:10A9E0005772697465206661696C65640D0A2E0092
:10A9F0002564206279746573207772697474656E5A
:10AA00002E00000046696C6520636C6F73652066DC
:10AA100061696C65640D0A2E0000000046696C6572
:10AA200020636C6F7365642E00000000556E696EC4
:10AA3000697469616C697A696E67206469736B20F7
:10AA4000302028534443292E2E2E00004469736B76
:10AA500020756E696E697469616C697A6174696F79
:10AA60006E2E2072657475726E2069733A202564AB
:10AA70002000000070B586B0044618216846FBF738
:10AA8000ECFCA0890125A0F54040ADF80400207839
:10AA9000324E062835D2DFE800F0340303032E4E91
:10AAA000A08900F08BF930B9E08943F6FE71A0F57A
:10AAB0004040884225D8A07B8DF8080020780328E4
:10AAC00011D000208DF80900A0680390606860B183
:10AAD00009208DF80000606804908DF814506846D5
:10AAE00005F0DCF80DE00120ECE708208DF800000F
:10AAF0008DF81050F3E7A08900F060F908B1E08903
:10AB000030B17078002801D005F012FA06B070BD9F
:10AB1000606840B10B208DF80000606802908DF8ED
:10AB20000C507570DBE70A208DF80000BDF80400BA
:10AB300005F09CFAF5E7606858B114208DF8000024
:10AB4000606802908DF80C504FF6FF70ADF804006D
:10AB5000C5E713208DF80000F6E700003C2B00202D
:10AB600038B504460E480078A8B1A4F57F40FF38F8
:10AB70000FD0684605F078FF78B1052101700121FA
:10AB80000171C480684605F07DFF06F02DF80020B5
:10AB900038BD042038BD022038BD082038BD000073
:10ABA000F42B00200C4808B5007888B1684605F001
:10ABB0005BFF78B106210170684605F063FF074826
:10ABC000017809B10121017306F00EF8002008BDDB
:10ABD000022008BD082008BDF42B0020CC3E002038
:10ABE000F0B587B014216846FBF737FC2B4C207872
:10ABF00018B16846FEF76CFF4EE0201D02F0A0F988
:10AC0000B8BB4FF0102041690004026940694B1C39
:10AC100001D100FB02F1224800220161A1F540515F
:10AC2000C160204902F032FE002820D11F481C23B9
:10AC30008C221D49006802F0E9F804F0C1FD051EF0
:10AC400014D0022812D000270126062D12D005A804
:10AC500005F00AFF88B106700C2D18D2DFE805F068
:10AC6000170F170F17161716171113110B2007B010
:10AC7000F0BD11E026706760BBE70820F7E70771B9
:10AC800005E0032100E00221017100E0067105A842
:10AC900005F0F8FE05F0A8FF0020E8E7F42B0020FF
:10ACA000942C0020E03D0300183E0020D83C030017
:10ACB00038B5040014D0694606F06EF8A0B1BDF8AE
:10ACC000000000EB8001094800EB8100C16849B138
:10ACD000A17A39B1C168491EC1600020A07238BD97
:10ACE000052038BD062038BD0A2038BDA43E00200E
:10ACF0001FB501A9684606F00BF804B010BD07B5F2
:10AD000013460A466946002006F002F80EBD07B554
:10AD100013460A460021684605F0FAFF0EBD20B131
:10AD200019B10068086000207047052070470000D6
:10AD3000F8B50D46040018D0BDB1694606F02CF8F0
:10AD4000A8B1BDF800000B4900EB800001EB8000CA
:10AD500001210C30666802F0F6F82E6060680C3055
:10AD600068600120A0720020F8BD0520F8BD0A200F
:10AD7000F8BD0000A43E002018B10323002208F013
:10AD800083BC052070470223002208F07DBC000030
:10AD9000084910B50A69042A0AD0074A096942F825
:10ADA000210004480121103002F0CDF8002010BD30
:10ADB0000C2010BDD42B0020083E002043F6FE716D
:10ADC000A0F54040884201D801207047002070471C
:10ADD0002DE9FF41002790460E460F6000F0FCFC75
:10ADE000050003D50B2004B0BDE8F081884850F879
:10ADF00025409CB13460207808F0FE0620B16078D0
:10AE0000FEF742FDC1070BD02770E8B2B84660706C
:10AE1000FEF77EFCC10708D00320E4E70C20E2E740
:10AE20000EB1400704D40020DDE71EB1400701D574
:10AE30000A20D8E7002631462046FDF7BBFF02284E
:10AE400022D100254FEA0D0704EB051090F8F2110E
:10AE500000F5F77019B1083001F085F900E0002025
:10AE600047F825006D1C042DEED3002557F825600A
:10AE700036B131462046FDF79DFF022801D203E09E
:10AE800003206D1C042DF1D3042809D002286DD2B3
:10AE900004F13B0001F072F9B0F5007F66D101E0EA
:10AEA0000120A0E704F1460001F068F918B904F1A7
:10AEB000540001F058F9A06194F84050A570012D9C
:10AEC00001D0022D52D1454394F83D006081E8B392
:10AED000411E08424AD104F1410001F04FF920819E
:10AEE000000743D104F1430001F048F9070004D101
:10AEF00004F1500001F037F9074604F13E0001F07B
:10AF00003DF9010032D02389481900EB1312974212
:10AF10002CD3B81A6789B0FBF7F0B8B103274FF606
:10AF2000F57C604500D8022740F6F57C604500D8E6
:10AF30000127801C3244A26231446061C4E9076188
:10AF4000032F15D013B12944616200E00EE0022FF7
:10AF50001FD000F0010100EB400001EB500000BFEA
:10AF6000A16900F2FF10B1EB502F14D20D203AE787
:10AF700004F15A0001F002F90028F7D120890028D5
:10AF8000F4D104F15C0001F0EEF8606260698000C9
:10AF9000E6E74000E4E74FF0FF302061E06080200A
:10AFA0002071032F2CD104F1600001F0E7F8012893
:10AFB00026D1711C204601F057FE08BB84F804809E
:10AFC00004F22E2001F0DAF8A0F52A41553917D104
:10AFD00004F1300001F0C7F80E49884210D104F5A1
:10AFE000057001F0C0F80C49884209D104F50670DB
:10AFF00001F0B9F8206104F5077001F0B4F8E060E1
:10B0000003492770091F0888401C0880E0800AE770
:10B01000802C0020525261417272416110B5044689
:10B020000078182802D1FCF719FE207010BD10B569
:10B0300004460078182802D1FCF710FE207010BDDD
:10B0400070B5134600220546112900D10122074C94
:10B0500033B12179FCF726FE00226178284600E012
:10B060006178BDE87040FCF71DBE0000682B002031
:10B0700073B504460568019801E0401C0190017811
:10B080002F29FAD05C29F8D00021A160019800781E
:10B09000202806D2802084F82B002046FEF7F7FAFD
:10B0A0007CBD01A92046FEF76BF80028F8D12046A8
:10B0B000FEF7DEF994F82B1028B10428F0D14907E7
:10B0C000EED405207CBD4907FCD4A079C006F8D594
:10B0D000208AC0F3080041192846303101F030F8C9
:10B0E000A060DEE7F7B517460E0011D000980025E6
:10B0F00060B100242146684601F007FF18B1A0B2F4
:10B100003946B0476D1C641C142CF3D32846FEBD91
:10B110000020FEBD10B5002821D0114B0022001FD9
:10B12000196803E0814203D80A4649680029F9D129
:10B1300052B11368841A9C4204D10068184410600C
:10B14000104602E0506000E0186039B102680B1A46
:10B15000934203D10B681A4402604968416010BDF4
:10B160008C2C0020406805F09FBC00003EB516A165
:10B170009DF8080020F00F00401C20F0F000103077
:10B180008DF80800092202A87CDF4FF4C87418B1BA
:10B19000104A2146FBF73EF800200090062101905E
:10B1A000ADF80010ADF804000921ADF80210ADF8BB
:10B1B000064068467ADF002804D0064A4FF4CD7175
:10B1C000FBF728F83EBD0000416375706F696E742F
:10B1D000320000006070020070B508B1012070BD3F
:10B1E0001B4C0025207B08B1257301E000F0A4F87A
:10B1F000207808282AD2DFE800F02904080C10295A
:10B200001422BDE8704000F025B8BDE8704000F0A1
:10B2100081B8BDE8704000F063B8BDE8704000F050
:10B220003FB8062020706088094900EB800028396B
:10B2300001EB80004068BDE8704004F0A1BA07202F
:10B2400020706560BDE8704004F0A8BA0F2070BDA2
:10B25000CC3E00201149F0B48A1C00200346A1F125
:10B2600028050C18A67A4EB1A37200EB800405EBFA
:10B270008404E66816B9247C012C0AD0401C80B2F4
:10B280000228EED30B704B804B60F0BC41F61D5092
:10B2900070471080F0BC00F03DB80000CC3E0020AC
:10B2A0000C48418801EB8102A0F1280101EB8201E9
:10B2B000CA6852B1052101700748022181800168E6
:10B2C00000230122054802F045BA042202704968B1
:10B2D000F6E70000CC3E0020FC2B0020942C002040
:10B2E00038B50A49084803240B684268898803EB8B
:10B2F000810153880470DB1C00201B0400909B0B11
:10B30000034802F07BFB38BDCC3E0020FC2B002024
:10B31000942C0020074910B54888091D05F08CFDC4
:10B3200018B1BDE81040FFF7DBBFBDE81040FFF7E4
:10B33000B7BF0000CC3E0020F0B51F481F490125D3
:10B34000067802248B88A0F12802082E19D2DFE8A3
:10B3500006F00418181B222F2F170189491C0181A0
:10B360000021418080F80C1001EB810312F823309A
:10B3700043B100234418491C89B2A3720229F3D3B4
:10B380000570F0BD0123F5E742685288D21C1A44CB
:10B390008A800470F0BD46880D6806EB860602EBD5
:10B3A000860256680E60556013818C80062100E08D
:10B3B00007210170F0BD0000CC3E0020FC2B0020D6
:10B3C0002DE9F041044680882188394E86B0074631
:10B3D000352937D0502923D0522902D054295DD1A4
:10B3E00002E001F0A9F859E0182232496846FBF75B
:10B3F0001BF8ADF80270384600F0CEFCADF8040042
:10B4000000F04AFA002231793846FCF74BFC002262
:10B41000F1783846FCF746FC6846FEF7E9FB3DE06C
:10B42000207B01283AD1A07A012837D12089A0F5C4
:10B430002451023932D10121384601F0D1F807F008
:10B4400001FF2BE04FF0000842467179FCF72AFC1F
:10B45000E288B2F5857F1DD017481849401AC00808
:10B46000022101EB004512B1284615A10BE06289CB
:10B47000012A03D0284621A102F054FEA289012A04
:10B4800004D028462CA102F04DFE03E0A07B00B1C1
:10B49000012080464146384607F0EEFA0022354941
:10B4A000B078FCF7B3FB06B0BDE8F04106F0D0BCC5
:10B4B000242B0020DC390300285303002053030011
:10B4C000556E6578706563746564204741545420F7
:10B4D000737461747573207768696C65206765742F
:10B4E00074696E67204341522063686172207661FF
:10B4F0006C75653A20307825780000004D756C74C5
:10B5000069706C65202825642920434152206368B6
:10B510006172616374657269737469637320666FC5
:10B52000756E642C207573696E672074686520667B
:10B53000697273742E000000556E657870656374CF
:10B54000656420434152206368617261637465726F
:10B5500069737469632076616C7565206C656E67CC
:10B56000746820282564292C2073746F726520303C
:10B570002E0000007D78020070B504460078002897
:10B5800014D1608800F0D8FF6588284600F046FA9C
:10B5900028B107480122C1782846FCF783FB608860
:10B5A000FDF7DEFABDE8704007F04CBE70BD00004C
:10B5B000242B002070B51A4C00252570FCF74EFB9B
:10B5C0006070FCF74BFBA070FCF748FBE070FCF7E9
:10B5D00045FB2071FCF742FB607162780121182A5B
:10B5E00012D0A278182A0FD0E278182A0CD022792B
:10B5F000182A09D0182807D004F10C000560BFF301
:10B600005F8F2170002070BD0648074A801AC0086D
:10B6100001EB0040054902F081FD032070BD0000F0
:10B62000242B00202853030020530300184003005C
:10B630007CB504460078082837D1607A58BB207A58
:10B640001C4E4FF6FF75012811D0072802D008289C
:10B650002BD121E0A08800F0E9FA0446A84224D0CA
:10B66000012100F0BDFF2046FDF77AFA1DE0A08819
:10B670006A46012104F034FA68B90198007850B1A3
:10B68000A08800F0D3FAA8420FD00122F178FCF78D
:10B6900009FB06F0DDFB08E0F068012805D1BFF3E7
:10B6A0005F8F044900200C310860BDE87C4007F042
:10B6B000C9BD0000242B00202DE9F04104680D468F
:10B6C00002290BD36069A84208D920784FF0FF36D1
:10B6D000012807D002282BD0032839D00126304674
:10B6E000BDE8F081206A05EB550700EB57212046A5
:10B6F00001F0BAFA0028F2D1C7F3080020447F1CF9
:10B7000090F83080206A00EB5721204601F0ACFA17
:10B710000028E4D1C7F30800204490F8301048EA2C
:10B720000120E90701D00609D9E7C0F30B06D6E7E7
:10B73000206A00EB1521204601F096FA0028CED1B0
:10B74000E8B204EB4000303000F018FD0646C6E7D2
:10B75000206A00EBD511204601F086FA0028BED100
:10B7600040F2FF1000EA85002044303000F0FBFC7E
:10B7700020F07046B3E72DE9F041002305464B72F7
:10B7800080690C46002825D000210A462E26E8694B
:10B79000805C521C20280AD0052800D1E520092A07
:10B7A00002D16718491C7E726718491C78720B2AEF
:10B7B000EDD360184372E869C07A2072E8691C30E2
:10B7C00000F0D1FC2060E869163000F0CCFCE0808D
:10B7D000000CA080BDE8F08110B504464FF0FF30AA
:10B7E0002268002A13D0114600E0491C0B78212B57
:10B7F0000ED33A2BF9D112F8013B303B0A2B06D27B
:10B800008A4204D1002B02D1491C1846216010BD88
:10B81000002010BD2DE9F0418046024601200021A4
:10B82000FAF7EEFD1A4F05460E467868FBF7D8FF8B
:10B8300000280CD1174CD4E9062110462A4001EA11
:10B8400006031A4305D0A843B143C4E90601BDE885
:10B85000F081404603F070FA30B1D4E90401284386
:10B860003143C4E9040105E0D4E90410A943B0431D
:10B87000C4E90410D4E9060128433143C4E90601B0
:10B88000A1687868BDE8F0410022FBF765BF0000C1
:10B890004C3B0300982B00201CB5054AD2E902124C
:10B8A000CDE900120022694604F0E0FA1CBD000058
:10B8B000F839030003484FF6FF71818001210170C0
:10B8C00000207047342B00202DE9FC41804600F019
:10B8D00063FA002403250127A0F57F412646FF399E
:10B8E00008D06A46082104F0FBF818B90198841DB5
:10B8F0008688056832462B4621464046B1DF04283B
:10B9000004D0082804D00B2808D002E0112000E061
:10B910000020002F00D10B20BDE8FC810027A807E4
:10B9200001D50125E6E7344303D00024264603254C
:10B93000E0E7064806494246401AC008012101EBEB
:10B940000040044902F0EEFBE5E70000305303003D
:10B9500020530300884203002DE9FC41804600F09B
:10B960001BFAA0F57F410646FF390ED001252A4675
:10B970006D1C0027ADB26B460821304604F0FAF882
:10B98000040006D0072C33D033E043F20200BDE8B8
:10B99000FC81019903230A1D0B604046891DB2DF1B
:10B9A000040004D00C2C09D0052C09D009E0324643
:10B9B0000821104604F056F904461AE0012700E079
:10B9C00000240821304604F043F970B103F078F800
:10B9D0000346094809493246401AC008012101EBD3
:10B9E0000040074902F0A5FB0324002FBFD100E06F
:10B9F0000C242046CBE70000305303002053030003
:10BA00000842030004488088A0F57F41FF3901D037
:10BA100006F028BA70470000342B00200EB502A9AA
:10BA2000019100F0B9F96A46012104F059F808B112
:10BA300000200EBD019800780EBD00002DE9F041F8
:10BA400007464FF6FF761048B3DF78B103F038F8B9
:10BA500002460E480E49401AC008012101EB004081
:10BA60000C4902F05FFB0320BDE8F081064C43F275
:10BA70000305A41E324661883846AFDFA842F3D1E1
:10BA80006088401C6080F5E7362B002030530300AF
:10BA900020530300BC410300428800EB82020C32B9
:10BAA0008A4201D9022070478188A1F57F42FF3A7E
:10BAB00003D0008808B100207047012070478842F9
:10BAC00004D20068401C01D001207047002070475C
:10BAD0003EB5027802230C46B3EB520F17D1B0F8F3
