:020000040002F8
:1060000068530020DD630200E5630200E7630200DD
:10601000E9630200EB630200ED6302000000000090
:10602000000000000000000000000000EF6302001C
:10603000F163020000000000F3630200F563020058
:10604000C5660200F7630200FD6B0200F763020001
:10605000F7630200F7630200FD640200416702007B
:10606000F7630200F7630200AD6B0200F763020002
:10607000F7630200F7630200F7630200F7630200B0
:10608000F76302001D670200F7630200F763020076
:1060900089680200F76302008D680200F76302005E
:1060A000F7630200F7630200F7630200F763020080
:1060B000F7630200F7630200000000000000000028
:1060C000F7630200F7630200F7630200F763020060
:1060D000F7630200F7630200F763020000000000AC
:1060E00000000000000000000000000000000000B0
:1060F00000000000000000000000000000000000A0
:10610000000000000000000000000000000000008F
:10611000000000000000000000000000000000007F
:10612000000000000000000000000000000000006F
:10613000000000000000000000000000000000005F
:10614000000000000000000000000000000000004F
:10615000000000000000000000000000000000003F
:10616000000000000000000000000000000000002F
:10617000000000000000000000000000000000001F
:10618000000000000000000000000000000000000F
:1061900000000000000000000000000000000000FF
:1061A00000000000000000000000000000000000EF
:1061B00000000000000000000000000000000000DF
:1061C00000000000000000000000000000000000CF
:1061D00000000000000000000000000000000000BF
:1061E00000000000000000000000000000000000AF
:1061F000000000000000000000000000000000009F
:10620000DFF80CD000F03CF900480047199A020072
:106210006853002000B583B002900091019244F2CF
:10622000010071466A4600F053FE03B000BD000055
:1062300030B450E8012F93B2C48923448489A34227
:1062400028BF1B1B0489A34202BFBFF32F8F00206E
:1062500007E0C3EA020340E80134002CE9D14FF023
:1062600001000A6030BC704750E8012FC2EA0242C8
:1062700040E801210029F7D1704730B450E8022FDF
:106280001FFAA2F3C488A34202BFBFF32F8F0020DE
:106290000DE0C48923448489A34228BF1B1BC2EAA2
:1062A000034340E80234002CE8D14FF001000A60BB
:1062B00030BC704750E8022FC2EA224240E8022177
:1062C0000029F7D17047034653E8022FD988B2EB73
:1062D000324F4FF0000017BF92B241EA014142EA4B
:1062E000014104E05A68B2EB324F08BF012043E895
:1062F0000212002AE8D1704730B4044654E8000F77
:106300000D4644E80053002BF8D1156030BC7047AF
:1063100030B4044654E8000F40EA010544E8005355
:10632000002BF7D1156030BC704730B4044654E8F8
:10633000000F00EA010544E80053002BF7D1156077
:1063400030BC704730B4044654E8000F80EA0105C1
:1063500044E80053002BF7D1156030BC704730B4CF
:10636000044654E8000F00EB010544E80053002BFD
:10637000F7D1156030BC704730B4044654E8000FC4
:10638000A0EB010544E80053002BF7D1156030BCA9
:10639000704770B404464FF0000054E8006F0D6879
:1063A000AE4207BF44E80023012044E800630E60CA
:1063B000002B1CBF0020F0E770BC704730B40446CF
:1063C00054E8000F88422CBF451A054644E80053A4
:1063D000002BF5D1156030BC70470000064880479F
:1063E00006480047FEE7FEE7FEE7FEE7FEE7FEE7BA
:1063F000FEE7FEE7FEE7FEE79168020001620200A9
:10640000202A04DB203A00FA02F100207047914074
:10641000C2F1200320FA03F319439040704740EA89
:1064200001039B0703D009E008C9121F08C0042A12
:10643000FAD203E011F8013B00F8013B521EF9D2F9
:106440007047D2B201E000F8012B491EFBD2704721
:106450000022F6E710B513460A4604461946FFF730
:10646000F0FF204610BD30B504460020034600E092
:106470005B1C934203D2E05CCD5C401BF8D030BD86
:10648000064C074D06E0E06840F0010394E8070081
:1064900098471034AC42F6D3FFF7B6FE48D8020056
:1064A00068D8020070B58C1810F8015B15F007036E
:1064B00001D110F8013B2A1106D110F8012B03E09D
:1064C00010F8016B01F8016B5B1EF9D12B0705D4A5
:1064D0000023521E0DD401F8013BFAE710F8013BEE
:1064E000CB1A921C03E013F8015B01F8015B521E0A
:1064F000F9D5A142D8D3002070BD00002DE9F047A6
:1065000000268AB0DFF85091B0464FF48075012420
:1065100037460696284603F099FF38B1D9F80403A8
:10652000204203D0284603F087FF26432D1D640038
:106530007F1CADB2082FEDD34FF4BE74204603F09C
:1065400085FF48B1204603F077FF46F0004606AAD3
:106550000121002003F05CFF404D16F0FF0F15D025
:106560000127002437420DD009EB8401D1F8100532
:10657000D1F81015C0F3042055F82420C1F30141CF
:1065800002B190477F00641C082CEBD3002E5FDA29
:106590004FF0FF30CDF8108054E0281910F8507FEC
:1065A00090F9000027F0C008401C3BD007A94046E6
:1065B00003F064FC10B34FEA9719404601F094FCD5
:1065C00055F820701FB1B9F1030F03D006E0B9F1FF
:1065D000030F27D104A9404603F058FC4FF0A04117
:1065E00001EB8800D0F8000706A9C0F3014A404635
:1065F00003F044FC18B1BAF1020F03D012E0BAF173
:10660000030F0FD1B9F1030F08D1BAF1020F1DD05A
:106610000221404603F0D9FE761CF6B217B1494676
:106620004046B847641C042CB7D3002E10D06A46ED
:106630000121002003F0ECFE06990098884207D063
:1066400006900498002634460790A6E70321E0E769
:106650000AB0BDE8F087000000600040842F0020F1
:1066600000F01F02012191404009800000F1E0206C
:10667000C0F88012704700F01F02012191404009CC
:10668000800000F1E020C0F80011704700F01F0208
:10669000012191404009800000F1E020C0F8001283
:1066A00070474907090E002806DA00F00F0000F1D4
:1066B000E02080F8141D704700F1E02080F80014FD
:1066C0007047000070B54FF48076304603F02CFD23
:1066D000114CB50560B1304603F02DFD0120C5F821
:1066E0000803607920B90120607121680020884783
:1066F0004FF48276304603F017FD00280AD030466A
:1067000003F019FD0220C5F808032168BDE87040B8
:106710000120084770BD00003C2B002007480021E5
:10672000C0F84011C0F84411C0F84811C0F84C112D
:10673000C0F80011C0F8041106F0DCBB00100140E5
:106740002DE9FE434FF48278404603F0FBFE4C4FA8
:1067500000254C4C012600B3404603F0FBFE94F8A4
:106760002E0010B194F82F10D1B18DF8005061684F
:1067700001912189ADF80810E26832B1218B618363
:1067800062602181E56010B102E0257400E03E60A6
:1067900021686846884784F82F5094F82E0060B32B
:1067A0004FF48077384603F0CDFE30B3384603F01F
:1067B000D1FE628B94F82D108A420AD9A2EB010017
:1067C00080B260832289A2EB0000626802EB400085
:1067D00005E007D1E06828B184F82F60658303F0F5
:1067E0009FFE04E08A4202D184F82F606583404610
:1067F00003F0B0FE2248001D06604FF4887738464B
:1068000003F0A0FE48B1384603F0A4FE2574022030
:106810008DF800002168684688474FF48A7738462B
:1068200003F090FE28B1384603F094FE2574BDE8CD
:10683000FE834FF000484FF48C7967691DE000BF7C
:10684000B7FA87F028FA00F109EB80058F43284654
:1068500003F078FE88B1284603F07CFEA5F58C7520
:10686000E8088DF8040045F38000401C8DF80060B6
:106870008DF80500216868468847002FE0D1D6E7EB
:1068800000700040EC2F002006F082BA03F088BFB1
:10689000F0B5B5480023021D0178101D01254FF009
:1068A000805406290BD11678360708D10678C6F32E
:1068B0000316032E06D0042E04D0052E02D006297E
:1068C00007D00EE0B4F82463A84FC6F304263E6058
:1068D00002E01678360704D10678C6F30316032EB5
:1068E00002D0062904D00FE0A24FA14E7E670EE031
:1068F0001678360708D10678C6F30316032E06D09D
:10690000042E04D0052E02D0062907D00EE0D4F8BC
:106910004462994FC6F342363E6002E0167836076D
:1069200004D10678C6F30316032E02D0062906D03A
:1069300011E0924E376827F0807737600EE01678C6
:10694000360708D10678C6F30316032E06D0042EA8
:1069500004D0052E02D006290AD011E04FF080465F
:10696000C6F80C31C6F81031834E361F336002E092
:106970001678360704D10678C6F30316032E02D024
:10698000062905D00CE07C4F032664373E600AE000
:106990001678360704D10678C6F30316032E02D004
:1069A00006290DD014E0764F05263E60744E7836E9
:1069B0003560734E083633603F263F1D3E6002E06F
:1069C0001678360704D10678C6F30316052E02D0D2
:1069D000062957D062E06B4E36686B4F3E60694EB9
:1069E000361D36683F1D3E60664E083636683F1DD0
:1069F0003E60644E0C3636683F1D3E60614E103678
:106A000036683F1D3E605F4E143636683F1D3E605F
:106A10005C4E183636685C4F20373E60594E1C3647
:106A200036683F1D3E60574E203636683F1D3E603B
:106A3000544E243636683F1D3E60524E2836366826
:106A40003F1D3E604F4E2C3636683F1D3E604D4E1A
:106A5000303636684C4F40373E604A4E34363668E2
:106A60003F1D3E60474E383636683F1D3E60454EFE
:106A70003C3636683F1D3E60424E403636683F1D0C
:106A80003E6002E01678360708D10678C6F3031692
:106A9000032E06D0042E04D0052E02D0062907D0DE
:106AA00019E0D4F85812394A01F04F01116002E0A0
:106AB000117809070FD10078C0F30310032803D021
:106AC000042801D0052806D131480168C90702D041
:106AD0006FF001010160D4F83001062808D1D4F824
:106AE0003401062804D12B48016841F4806101601B
:106AF00022487438016841F470010160BFF34F8F80
:106B0000BFF36F8F4FF01021D1F80002002803DB94
:106B1000D1F80402002822DA1F4A15601F480468D1
:106B2000002CFCD01524C1F800420568002DFCD0D3
:106B3000C1F8044201680029FCD0136001680029F3
:106B4000FCD0BFF34F8F0D48F0380168144A01F4B0
:106B5000E06111430160BFF34F8F00BFFDE71249B1
:106B600010480860F0BD0000E00F00F04035014023
:106B70000DF0ADBA00C007403C050040FCED00E060
:106B8000105600400404001020C50040E40E0040F0
:106B9000000400403C17004004E5014000E40140CF
:106BA0000400FA050090D003CC2B00202DE9F0471B
:106BB000104E042700244FF4A0784FF4803900BF12
:106BC00008EB840509FA04F0715961B1D6F8041391
:106BD000014208D02946304603F06FFE0648D0E94E
:106BE000002128469047641CE4B2BC42E8D3BDE8CB
:106BF000F087000000A00040E02F0020014800685E
:106C000000470000442B002002E008C8121F08C102
:106C1000002AFAD170477047002001E001C1121F1D
:106C2000002AFBD1704700000121202803DA8140AF
:106C30000548014003E0402802DA2038814009B1CC
:106C40000120704700207047FC06FFBD10B560B101
:106C500059B102780B785208B2EB530F05D10622D6
:106C6000401C491CFFF7FFFB08B1002010BD0120AC
:106C700010BD800701D00020704701207047C36815
:106C80008B4206D811440069491E814201D8012077
:106C9000704700207047000030B52A48A5B03C215D
:106CA000406824902848807C8DF892006846FFF761
:106CB000CFFB02208DF8000001248DF80240062051
:106CC0008DF803003C210FA8FFF7C2FB24A81F4D3D
:106CD0001490ADF84C402A1D6846296800F084FAEB
:106CE00020B11BA24FF4D171FFF794FA174A0FA8F5
:106CF0000C32A96800F078FA20B115A240F2A51173
:106D0000FFF788FA18211EA8FFF7A2FB00208DF8D4
:106D10008D408DF87840ADF884001F908DF88C0080
:106D20004FF4C850094920901EAAA1F1200072DF3B
:106D3000002804D006A24FF4DA71FFF76BFA25B0F1
:106D400030BD000054D50200E42B0020C82A0020EA
:106D50002E2E5C2E2E5C2E2E5C6D61696E2E6300D5
:106D600010B538B104F074FF002810D008A24FF419
:106D70008C7108E00A480121007873DF002806D0F2
:106D800003A24FF49471BDE81040FFF743BA10BD61
:106D90002E2E5C2E2E5C2E2E5C6D61696E2E630095
:106DA000A82A002070B58CB015460E4600236C460C
:106DB000C3F10F01415CE1545B1C102BF8D30D2192
:106DC00004F11000FFF744FB0020C0F10F02315C1A
:106DD0002244401C11740328F7D3684646DF002084
:106DE000C0F10F01214491F820102954401C0328C0
:106DF000F6D30CB070BD00000149C97800F02EBB7D
:106E00001C2B002070B50024084D05E0686810F8C0
:106E1000340003F09FFD641C28788442F6D30448B4
:106E20004068BDE8704000F015B90000502B00200C
:106E300018D7020070B50024064D06E068680121ED
:106E400010F8340003F0AAFD641C28788442F5D3BE
:106E5000002070BD502B0020F8B515460C460646A4
:106E6000052A01D20720F8BD03F094FE18B903F0FB
:106E700059FE0028F7D1124900224E600C708D6037
:106E8000C1E90422C1E906220E4D0DE006EBC40063
:106E90002968009181788DF8011000780A4A6946C6
:106EA00003F0CEFD0028DED1641EE4B2EED2BDE8D0
:106EB000F84004480021054A001D00F049B80000D0
:106EC000502B002018D70200718F02004984020065
:106ED00030B472B6034B1B68DB0700D000BE30BC79
:106EE00000F002B8F0ED00E008B501238DF80030A5
:106EF0009DF80030144B186059609A606FF480411F
:106F0000401807D001280FD1DA60D868008898614E
:106F1000D86807E01A6118698068586118690068C4
:106F2000986118694068D861186858689868D86886
:106F3000186958699869D86972B600BF9DF8000051
:106F40000028FBD162B608BD3C300020012070470C
:106F5000084B9B7823B12AB120B10068037C1BB198
:106F60000820704707207047002303744174426172
:106F7000184670475C30002070B505F0EDF81048F9
:106F800000240B21047044700E4D817014206C603D
:106F90002C706C70FFF764FB06211420FFF781FB57
:106FA0001420FFF768FB0848046006211120FFF752
:106FB00078FB0548001F0068A860002070BD000035
:106FC0005C300020702B0020081501402DE9FC47A3
:106FD000DFF8789099F8023073B368B3052902D2CC
:106FE0000720BDE8FC87436933B3437C012B25D0E0
:106FF000002704460025884616468DF8005068464E
:1070000000F038F801A806F029F8C8B10121017094
:107010000F4944600968C0E90218C0E904769DF888
:10702000040089F801009DF8000000F047F81420E2
:10703000FFF72CFB2846D4E70820D2E70F46D8E715
:1070400004259DF8000000F039F8F3E75C300020DB
:10705000041501400649897839B130B1416921B13F
:1070600000210174022105F021BF082070470000B3
:107070005C30002030B5EFF3108172B60D4A946891
:10708000012324B10370002900D162B630BD9360A2
:107090004FF0E023D3F88051074C25401560C3F82A
:1070A0008041D3F8844154605A17C3F884210022E8
:1070B0000270E8E768310020FC06FFBD0B498A68D2
:1070C000002A11D000280FD1EFF3108072B60B68A0
:1070D0004FF0E022C2F800314B68C2F804310022C0
:1070E0008A60002800D162B6704700006831002035
:1070F00002F056BC2DE9F04380460588384800264A
:107100008BB001783246284600F0C0F998F80500A7
:10711000400701D4002154E005F58077B8B203ABF5
:107120000122072104F00AF9010003D0284605F0E6
:10713000EFF9EFE7284602F0A3F94FF6FF71044696
:10714000884225D18946049802F004F9044649464C
:10715000484510D00146284602F072F92846FFF74C
:107160004BFEA8B9284605F0A5F92846FFF744FECE
:107170000028CFD00CE00E4604F04EFA0446B04290
:1071800001D10421D2E70146284602F059F901262F
:10719000B8B22246072104F037F9010010D0862941
:1071A00013D0284605F0B4F90021404604F006F853
:1071B000002E02D0204602F04DF90BB0BDE8F0835E
:1071C0000121404603F0FAFFF7E71822054905A818
:1071D000FFF725F9ADF8165005A801F09DFAEFE785
:1071E0001C2B00208CD602002DE9FC4700251788B7
:1071F0000646158090F82D001446894630B13A466F
:107200002146484600F06CF9051E09D1B0784FF0D0
:107210000C0A18B32088C846001DB84202D950464F
:10722000BDE8FC87684679DF0028F9D12088032172
:1072300008F8001020881921401C80B2208008F82E
:1072400000102088401C80B2208000EB0801BDF8AF
:10725000000005F089FE218808442080F078022291
:10726000C8B1218896F9033001F1030C4846BC45AA
:10727000D5D8425421884FF0010C491C89B2218095
:1072800000F801C02188491C89B2218009F8013029
:107290002088401C20807068B8B1218890F90030A7
:1072A00001F1030C4846BC45B9D8425421880A2252
:1072B000491C89B2218042542188491C89B221800D
:1072C00009F801302088401C2080308950B1CDE978
:1072D00000474B460622022106F1080005F0D6FEC3
:1072E000051E9DD1308A50B1CDE900474B4607229B
:1072F000032106F1100005F0C9FE051E90D1308B68
:1073000050B1CDE900474B461522142106F1180073
:1073100005F0BCFE051E83D1306A30B13B462246E3
:10732000494600F068FF051EDBD1706A30B13B466C
:107330002246494602F030FC051ED2D196F82C00B8
:1073400038B13B4622464946304605F067F9051EEE
:10735000C7D1307838B13B4622464946304602F024
:1073600051FC051EBDD128465AE7000070B5040047
:1073700012D001461C221448FFF751F81248134D51
:107380000560206850B17ADF002806D120680168C6
:1073900029604068686005E00E2070BD0B487BDF07
:1073A0000028FAD108484FF6FF711438084A20F82F
:1073B000041B0549343901600021FFF7C9FD00288D
:1073C000EBD0032070BD0000B02C0020D82A002094
:1073D000C5CF020010B5044600F078F8002805D0AB
:1073E0002146BDE81040024802F009BD10BD000072
:1073F000DC2C002070B515460E46044605F016FE3E
:10740000002809D0054800EB840080692A463146EF
:10741000BDE8704001F06CBB70BD0000CC2C0020BA
:1074200070B50546002400F051F838B129460448EB
:1074300002F0E5FC08B1022400E00124204670BD02
:10744000D82C002010B51821034802F0B3FC1828EE
:1074500000D0C0B210BD0000CC2C002070B5054695
:107460000C46084605F0E2FD60B1284600F02EF813
:1074700040B10548294600EB8400BDE87040183053
:1074800002F0BDBC002070BDCC2C002070B50546BC
:1074900014460E46084605F0C9FD002812D02846BD
:1074A00000F014F800280DD00748294600EB8600AC
:1074B00018301CB1BDE8704002F0ACBCBDE87040B3
:1074C00002F05DBC70BD0000CC2C0020142801D35C
:1074D000002070470146014802F091BCD02C0020EA
:1074E0007CB5054608880C460930904201D90C202D
:1074F0007CBD68466DDF0028FAD1218808206854D9
:1075000020881B21401C80B2208029542088401CE8
:1075100080B220802844DDF801100160BDF805101C
:1075200081802088801D80B220809DF8001049084D
:1075300000D0012129542088401C208000207CBDDF
:1075400010B502F000FE002809D105484FF0030CE9
:1075500000DF002803D1BDE8104002F0FFBD10BDE0
:107560003C33002018B103490860002070470E200A
:1075700070470000C82B002010B54FF0FF310020ED
:107580003DDF00280BD1B1213CDF002807D10448A2
:10759000416901208847022002F096FF002010BDBB
:1075A00020330020044810B5006841690020884756
:1075B000BDE81040FFF7E0BFC82B002010B588B031
:1075C000044620216846FEF743FF0320ADF8000083
:1075D00020788DF802009DF80D00172140F028005A
:1075E0008DF80D0001208DF810008DF81300ADF816
:1075F00004108DF812008DF80C008DF811006088D1
:10760000A21D694600F078FC08B010BD10B5184CFA
:1076100086B01ECC8DE81E0050B1164C4FF6FF719F
:10762000A1800068002160616176217618B104E0D4
:107630000E2006B010BD104860610E48FFF792FFA3
:107640000028F6D101208DF812004FF65960ADF8F0
:107650001000A21C04A90120A8DF0028E9D10549D7
:10766000684662DF0028E4D10248FFF7A7FFE0E7A1
:1076700038D8020020330020E184020010B5002831
:107680000FD001881B4C502926D00BDC10291DD0AF
:10769000112906D1A1888088814202D14FF6FF705E
:1076A000A08010BD512913D05329FAD1C088E18898
:1076B0008842F6D1607E0028F3D0FFF773FF0028E0
:1076C000EFD06169BDE81040022008478088E7E7F5
:1076D000BDE8104003F030BC30F8061F62899142CB
:1076E000DFD141890229DCD10C3000F012FB207679
:1076F00010BD0000203300202DE9F0410546007B3D
:107700000426294C4FF00108012811D002282BD063
:107710000226287B314600F07BF818B120684169C9
:1077200003208847206841690220BDE8F0410847EE
:1077300020680027817E49B10621012000F068F809
:1077400000282CD0206841690320EEE780F81980DA
:107750000121084600F05CF8002820D0216811289B
:107760004F76D6D10626D4E76A7B142A19D8C2B13F
:107770000E4F05F10E01381DFEF751FE687BB86112
:1077800021683846897E0029C3D1A0F10C010A681E
:10779000011F90470028BCD1216881F81A80BDE8FC
:1077A000F0810526B5E70000C82B002048330020F3
:1077B00070B5154900250A68002A24D04A68002AB5
:1077C00021D00831904708281DD0104C002820688F
:1077D00085760ED00621022000F01AF818B1206834
:1077E000416903208847206841690220BDE8704054
:1077F00008470121022000F00BF8002803D0206880
:1078000041690320F2E770BD3C330020C82B002003
:1078100086B00323ADF8003020238DF814308DF8A6
:10782000150000220E48019202928DF81610C188B0
:10783000ADF8041002218DF8061005A90491ADF8E9
:107840000820CDF80CD0808801A9AEDF002804D133
:10785000BDF80010032900D00C2006B070470000CE
:10786000203300207047000038B5028800213D4DCC
:107870000446212A55D012DC4FF00100102A20D0F6
:10788000112A39D0132A57D100231A468521A888F6
:107890007FDF002850D034A24FF42E710DE03B2A38
:1078A00056D0522A49D0562A46D18088132176DFF5
:1078B000002841D02CA240F2DB21BDE83840FEF781
:1078C000A9BC6870A870012000F080FA002000F0C8
:1078D00075FAA188A980284802F0AEFB20B122A247
:1078E00040F2A221FEF796FCFFF7A4FA002823D06D
:1078F0001DA24FF42971E0E76970A870012000F023
:107900005DFA4FF6FF70A880FFF77CFA20B116A24F
:1079100040F2AE21FEF77EFCBDE838400020FFF7C4
:107920001FBA0091808869468FDF002804D00EA21C
:107930004FF43171FEF76EFC38BD00231A4619462C
:10794000A888B1DF0028F7D007A240F2CB21B4E726
:107950008088132176DF0028EED003A240F2D321E5
:10796000ABE70000A82A00202E2E5C2E2E5C2E2EC7
:107970005C6D61696E2E6300102C00202DE9F047CC
:1079800001883B4E40F2F3194FF6FF7510291BD0CA
:1079900011293ED0122954D0502946D1C188F289EC
:1079A000841D914241D1618902293ED186883046A9
:1079B00001F014FE050038D004F10C0000F0ADF920
:1079C000A8B3294630464EE0C17B8788044601298A
:1079D0002BD1A846284601F001FE050017D02F80C4
:1079E00000202872234843464A460168C5F80A1019
:1079F0004068C5F80E0004F1100105F10A0001F01D
:107A0000FFFD6872F08900280FD129462AE0042082
:107A100013E0808801F0E2FD040006D06068FFF703
:107A200019FB08B104F058FD2580BDE8F087FFE799
:107A30006868FFF70FFB0028F7D0BDE8F04704F0B7
:107A40004BBD87880646384601F0C8FD0400ECD0DF
:107A50002B464A4606F1080104F10A0001F0D0FD68
:107A6000607221463846BDE8F04700F017BC0000C0
:107A7000B02C0020D82A00202DE9F04F0746858839
:107A800002883E48012197B08346102A09D0112A66
:107A90004BD01A2A6ED1387AB1EB101F47D201228F
:107AA00046E0364C083CA068C0430B9061680BA8C8
:107AB00002F0C3F90B990CA800F07EFB2C220CA954
:107AC0006846FEF7ACFC0026E946A04610E000BF81
:107AD00009EB46005FF00004B0F804A008EB840056
:107AE0005146001D02F04BF9641C1D2CF6D3761C88
:107AF0000098B042ECD8142D07D317B0E321BDE8AD
:107B0000F04F1FA20420FEF785BB2946584602F01D
:107B100081F9294608F1040002F07CF9F87B01287C
:107B200028D016482946001D15E029461AE00022F3
:107B30000221B1EB101F01D2012600E000260F49FF
:107B4000083901F11000041D294682B102F062F9E2
:107B500036B12946204617B0BDE8F04F02F05AB9B9
:107B60002946204617B0BDE8F04F02F008B902F0F0
:107B700006F9F5E717B0BDE8F08F0000D42C00201F
:107B80002E2E5C2E2E5C2E2E5C2E2E5C2E2E5C2E2F
:107B90002E5C636F6D706F6E656E74735C626C6586
:107BA0005C636F6D6D6F6E5C626C655F636F6E6E54
:107BB0005F73746174652E630000000010B50446A5
:107BC0000748007800280AD0204601F035FB2046FF
:107BD00004F0F4FD2046BDE8104001F0D1B810BD1E
:107BE0000C2B002030B58DB004462F4B0868606127
:107BF0000FCB08AD85E80F0004F1120108A862DF81
:107C000000284FD1A07C8DF8320041F22350ADF80E
:107C1000300022460CA90120A8DF002842D12021F3
:107C20006846FEF715FC41F22450ADF80000A07C38
:107C300001258DF80200ADF80650F420ADF80400DF
:107C40008DF80C509DF80D008DF8115040F0120089
:107C50008DF80D008DF81350208804F10A02694652
:107C600000F04AF900281DD120216846FEF7F0FBFC
:107C700041F22550ADF80000A07C8DF802009DF87F
:107C80000D00ADF8065040F00A008DF81150ADF827
:107C900004508DF80D008DF812502088A21C694602
:107CA00000F02AF90DB030BDF0D6020030B40288E1
:107CB000502A10D1034630F8062F4C88A2420AD130
:107CC0004289012A07D14C69002C04D0027B988894
:107CD000A44630BC604730BC704786B00C23ADF87A
:107CE0001030A0F57F43FF3B11D000230093019398
:107CF0000293039301238DF802304989ADF80010F7
:107D000004A9CDE902126946AEDF06B0704708202B
:107D1000FBE70078C0F340007047007800F00100F6
:107D20007047000008B502F001FD20B10D4A40F295
:107D3000ED21FEF76FFA002000906946012002F065
:107D40001DFC20B1074A40F2F321FEF763FA6846B2
:107D500002F064FC002804D0024A40F2F721FEF74A
:107D600059FA08BD906D02002DE9FC410646C00796
:107D70004FF000050ED0104F00240122385D009511
:107D800000231146019502F0F4FA641C042CF4D38C
:107D900000F024F8B0070DD5074E0024361D002250
:107DA000305D032300951146019502F0E2FA641C50
:107DB000042CF4D3BDE8FC8175D502000249085CAF
:107DC000012102F01ABB000075D502000249085CCF
:107DD000002102F012BB000075D5020010B500248E
:107DE0002046FFF7EBFF641C042CF9D310BD000004
:107DF0000D2803D00BA240F215310FE0002B0FD05D
:107E0000A3F5405002380BD0082B09D043F20140B3
:107E1000834205D0184603A24FF44471FEF7FAB925
:107E2000704700002E2E5C2E2E5C2E2E5C6D61693C
:107E30006E2E63001CB5044601F022FB00236A4647
:107E4000092103F073FB052805D10348012241797C
:107E50002046FFF71BFB1CBDE02A00201CB50021BB
:107E6000009142F6A621ADF8001001218DF8021014
:107E7000034901AA096801916946A0DF1CBD000001
:107E800098D5020005494FF0FF32082841F820201C
:107E900002D3084480F8482070470000842F002057
:107EA000F0B54FF0FF3512B10023082601E008239A
:107EB0000C260C4C05E000BF54F823707F1C04D046
:107EC0005B1CB342F8D32846F0BD26185DB286F895
:107ED000305044F82310002AF5D1E11881F8480009
:107EE000F1E70000842F00200249084490F9300097
:107EF00070470000842F00202DE9F04381468878E8
:107F000091B090460C4600B901208DF83E002088C3
:107F1000ADF83C0000250095607C694604F0FEFB4E
:107F20006E46A07C711C04F0F9FBE07B00289DF8F4
:107F3000020002D040F0080001E020F008008DF8B7
:107F40000200217C11B140F0100001E020F010008F
:107F50008DF80200217B11B140F0010001E020F01A
:107F600001008DF80200217D09B1022100E001210C
:107F700061F342008DF802001C2102A8FEF768FAA6
:107F8000607BC10601D4800617D50E950EAFE07C4C
:107F9000791C04F0C3FB9DF83800079720F00F0010
:107FA000401C20F0F00010308DF838009DF83A00A9
:107FB00020F00600801C8DF83A00607B8DF80800E8
:107FC000A07B8DF80900142109A8FEF741FA0FA83B
:107FD000CDE90906A088ADF83000A06820B1E0889E
:107FE000ADF82C00A0680D90A06998B301950088A9
:107FF000ADF81000A06901AD01A94088ADF81200EC
:10800000A069406806950390A069007B04F086FB98
:10801000A069691C407B04F081FBA069807A00287C
:108020009DF8060002D040F0080001E020F00800B2
:108030008DF80600A169C97A11B140F0100001E085
:1080400020F010008DF80600A169097A19B140F0FE
:10805000010002E00DE020F001008DF80600A169AA
:10806000897B09B1022100E0012161F342008DF812
:108070000600E06900B10590434609AA02A94846F6
:10808000AADF11B0BDE8F08370B504464FF6FF7566
:108090000A462846AC4209D14FF480742146104666
:1080A00001F088FE80B2A0420BD070BDFF2CFCD83E
:1080B0002146104601F06EFE90F0010F01D02046DF
:1080C00070BD284670BD000070B5084C050009D091
:1080D00010342168002907D00868206049682846C4
:1080E0008847F6E70834F4E770BD0000702F0020E1
:1080F000054A012120B1012805D19170FFF7E4BFA5
:1081000051700020FAE77047702F00202DE9F05FD2
:1081100026484168F1B3DFF898B00E688146DBF875
:10812000004087688078E11B21F07F45ED1CB0B9E5
:10813000DFF880804FF48030C8F84403C8F80403A7
:108140001120FEF78DFA1120FEF795FA4FF0010A83
:10815000C8F800A02F2002F0F5FB89F802A0B54274
:1081600000D23546124BE8193C3320F07F401860AE
:10817000DBF800105A46091B21F07F41001B20F05C
:108180007F40C91C81420FD9106818602F2002F06F
:10819000D9FB00E004E0BDE8F05F1120FEF776BAFD
:1081A000BDE8F05F03F0D8BFBDE8F09F702B002062
:1081B000041501400010014073B58CB00646002044
:1081C00000900D9880B100246D4621460DA801F065
:1081D00016FE30B1009805EB400084800098401CEA
:1081E0000090641C142CF0D32C2269463046FEF714
:1081F00016F90EB070BD2DE9F04117880646B81D7E
:1082000014460D46984202D90C20BDE8F081318811
:10821000072206290AD34FF4486C4FF6FF736145D5
:1082200001D9994202D17088062801D21046ECE7A4
:10823000604501D99842F9D1994203D0984201D0C2
:108240008142F3D80520E85520881221401C80B2D5
:10825000208029542088401C80B220804119308819
:1082600004F082FE2188084480B220804119708881
:1082700004F07AFE2188084420800020C5E7000031
:1082800002A24FF41A71FDF7C5BF00002E2E5C2E1E
:108290002E5C2E2E5C6D61696E2E630038B54A7AB5
:1082A0000F4B62B100220A725969002906D00122DF
:1082B0008DF80020ADF802006846884738BD0A7A7C
:1082C00062B19B684C68024619462046FEF77EFE66
:1082D0000028F3D0BDE8384004F0FEB85B68F1E751
:1082E000B02C0020F0B587B016460F4604461D4658
:1082F00018220B496846FEF792F80A488DF8087074
:10830000ADF80240ADF80A608DF80C5001780022FB
:108310002046FFF7BBF8684600F0FEF907B0F0BD55
:10832000A4D602001C2B00201FB500220092ADF83D
:1083300000100192ADF802100292039202AA69465F
:1083400090DF04B010BD000070B5044686B01C4834
:10835000012101F082FDBFF35F8F0026002821D1AB
:108360000025204600F093FE68B1112812D086281F
:108370001AD0A0F54051023903D00146204604F03E
:10838000B3F8294607E006B029462046BDE870400C
:1083900001F03ABB0121204601F036FBBFF35F8FAD
:1083A0000748066006B070BD182206496846FEF709
:1083B00036F8ADF80240684600F08AF9E1E70000BF
:1083C000EC2A0020C4D502007FB50C4610B1012074
:1083D00004B070BD2079002638B141F61D55012842
:1083E0001BD0022826D00F20F2E70220207102962F
:1083F0000396E0680190694601A803F009FE50B1B8
:1084000002988188E18000882081BDF800100298E0
:1084100003F07CFEDCE70A20DAE70A4B6A4600211B
:10842000A01D03F0B1FD38B1064918398E61CE6147
:108430000A28CDD12846CBE702488188019803F06D
:1084400065FEF5E7A42B00202DE9F0470025DFF8B5
:108450008C803CE06068002100EBC506012032788A
:108460009146FDF7CDFFD4E9062300EA020701EAB1
:10847000030C57EA0C0728D082438B434846C4E9D3
:10848000062302F045FB3278824691460120002106
:10849000FDF7B6FFD4E9042300EA020401EA03076A
:1084A0004A4650460021FDF7ABFF44404F403C4355
:1084B0000BD17078012801D0012100E00021726801
:1084C00081EA0A010AB1484690476D1CEDB298F85E
:1084D000000044468542BDD3BDE8F087502B002004
:1084E000704700000E4910B50A784C780023A2426C
:1084F00012D0521CD2B20A70022A00D10B70084A64
:108500000B780C3252F8232002608868104420F067
:108510007F408860012010BD0360002010BD000076
:10852000702B002013460A460021FFF7DBBE000037
:108530002DE9F843104D0F4680461E469146694688
:10854000286801F0F0FB040014D01C21FDF780FF27
:1085500001202071C4F81490380BC4F80080C4E9DD
:1085600002606946286801F0FFFB03F099FC0020D7
:10857000BDE8F8830420FBE764D7020010B5037858
:108580000022072B06D2DFE803F00504061020299D
:1085900030000A7010BD01230B7003898B81838822
:1085A000CB81C06888600A7410BD02220A700289FB
:1085B0008A818288CA81C2688A60807D062802D04A
:1085C0000020087410BD0120FBE703220A70C28856
:1085D0008A810289CA81C068886010BD04230B703B
:1085E000C0888881CA818A6010BD0520087010BDCE
:1085F00070B5064D0646002455F8241009B13046E2
:108600008847641C042CF7D370BD00009C31002007
:1086100030B50446006887B00D46806800281FD03A
:1086200018216846FDF714FF0195A0680590207990
:1086300010B1012810D107E001208DF80000206959
:108640000290E068039005E002208DF80000E068E9
:10865000000302906069049020688168684688473A
:1086600007B030BD70B586B015460C0006461AD06E
:10867000112C18D0082C16D018216846FDF7E8FEFA
:10868000ADF80260304600F0FBFEADF804000020BB
:108690000D2C0AD007218DF8001002948DF80C00E3
:1086A000684600F047F806B070BD03218DF8001051
:1086B00025B12978C90701D0012100E002218DF8F8
:1086C0000C008DF8081041F20110ADF80A00E7E740
:1086D00010B50446408800F0D3FEA080024801682F
:1086E0002046BDE810400847E82A00202DE9F04167
:1086F00007460024064E074D05E000BF56F824103B
:1087000038468847641CE8788442F7DBBDE8F0818E
:10871000242F00200C2B002010B50446408800F0C8
:10872000AFFEA080024801682046BDE8104008471F
:1087300058D602000149096808470000ECD602003B
:1087400070B586B0044618216846FDF781FEA08901
:108750000125A0F54040ADF804002078324E0628EF
:1087600035D2DFE800F0340303032E4EA08900F079
:108770008BF930B9E08943F6FE71A0F5404088429C
:1087800025D8A07B8DF808002078032811D0002080
:108790008DF80900A0680390606860B109208DF829
:1087A0000000606804908DF81450684602F048FE9E
:1087B0000DE00120ECE708208DF800008DF8105046
:1087C000F3E7A08900F060F908B1E08930B1707872
:1087D000002801D002F032FF06B070BD606840B1E1
:1087E0000B208DF80000606802908DF80C507570B9
:1087F000DBE70A208DF80000BDF8040002F0ACFFB2
:10880000F5E7606858B114208DF8000060680290A8
:108810008DF80C504FF6FF70ADF80400C5E713203B
:108820008DF80000F6E70000F82A002038B504466D
:108830000E480078A8B1A4F57F40FF380FD06846F5
:1088400003F060FA78B10521017001210171C48043
:10885000684603F065FA03F015FB002038BD0420DC
:1088600038BD022038BD082038BD0000AC2B0020E8
:108870000C4808B5007888B1684603F043FA78B12F
:1088800006210170684603F04BFA0748017809B1E8
:108890000121017303F0F6FA002008BD022008BD93
:1088A000082008BDAC2B002060320020F0B587B056
:1088B00014216846FDF7CCFD2B4C207818B1684692
:1088C000FFF796FE4EE0201D01F0AEFAB8BB4FF068
:1088D000102041690004026940694B1C01D100FB72
:1088E00002F1224800220161A1F54051C1602049F6
:1088F00001F095FC002820D11F481C238C221D4923
:10890000006801F0FDF902F0C5FB051E14D0022835
:1089100012D000270126062D12D005A803F0F2F987
:1089200088B106700C2D18D2DFE805F0170F170F6D
:1089300017161716171113110B2007B0F0BD11E011
:1089400026706760BBE70820F7E7077105E00321A1
:1089500000E00221017100E0067105A803F0E0F9D2
:1089600003F090FA0020E8E7AC2B0020D02B002089
:1089700074D70200AC3100204CD7020038B5040097
:1089800014D0694603F044FBA0B1BDF8000000EB31
:108990008001094800EB8100C16849B1A17A39B171
:1089A000C168491EC1600020A07238BD052038BDD5
:1089B000062038BD0A2038BD383200201FB501A975
:1089C000684603F0E1FA04B010BD07B513460A4645
:1089D0006946002003F0D8FA0EBD07B513460A46D3
:1089E0000021684603F0D0FA0EBD20B119B100682D
:1089F000086000207047052070470000F8B50D465C
:108A0000040018D0BDB1694603F002FBA8B1BDF85F
:108A100000000B4900EB800001EB800001210C30CD
:108A2000666801F004FA2E6060680C30686001200E
:108A3000A0720020F8BD0520F8BD0A20F8BD000096
:108A40003832002018B10323002204F05BBC05205B
:108A500070470223002204F055BC0000084910B5FD
:108A60000A69042A0AD0074A096942F82100044821
:108A70000121103001F0DBF9002010BD0C2010BDE9
:108A80008C2B00209C31002043F6FE71A0F5404065
:108A9000884201D8012070470020704710B5044675
:108AA0000078182802D1FEF7CDFC207010BD10B55B
:108AB00004460078182802D1FEF7C4FC207010BDCF
:108AC00070B5134600220546112900D10122074C3A
:108AD00033B12179FEF7DAFC00226178284600E004
:108AE0006178BDE87040FEF7D1BC0000242B002067
:108AF000F7B517460E0011D00098002560B100248C
:108B00002146684601F07BF918B1A0B23946B0475A
:108B10006D1C641C142CF3D32846FEBD0020FEBD42
:108B2000406803F00FB900000EB516A19DF80800CB
:108B300020F00F00401C20F0F00010308DF80800ED
:108B40000D2202A87CDF20B1124A4FF4BA71FDF762
:108B500061FB0020009001900621ADF80400ADF803
:108B600000104FF4C8700921ADF80600ADF80210EE
:108B700068467ADF002804D0064A4FF4BF71FDF73B
:108B800049FB0EBD416375706F696E745F54454D4E
:108B900050000000906D020070B508B1012070BD5A
:108BA0001B4C0025207B08B1257301E000F0A4F8E0
:108BB000207808282AD2DFE800F02904080C1029C0
:108BC0001422BDE8704000F025B8BDE8704000F008
:108BD00081B8BDE8704000F063B8BDE8704000F0B7
:108BE0003FB8062020706088094900EB80002839D2
:108BF00001EB80004068BDE8704002F02BBA07200E
:108C000020706560BDE8704002F032BA0F2070BD80
:108C1000603200201149F0B48A1C00200346A1F103
:108C200028050C18A67A4EB1A37200EB800405EB60
:108C30008404E66816B9247C012C0AD0401C80B25A
:108C40000228EED30B704B804B60F0BC41F61D50F8
:108C500070471080F0BC00F03DB80000603200208A
:108C60000C48418801EB8102A0F1280101EB82014F
:108C7000CA6852B10521017007480221818001684C
:108C800000230122054801F0A3BA042202704968BA
:108C9000F6E7000060320020B42B0020D02B00202B
:108CA00038B50A49084803240B684268898803EBF1
:108CB000810153880470DB1C00201B0400909B0B77
:108CC000034801F023FB38BD60320020B42B0020A4
:108CD000D02B0020074910B54888091D03F0E8F99A
:108CE00018B1BDE81040FFF7DBBFBDE81040FFF74B
:108CF000B7BF000060320020F0B51F481F490125B2
:108D0000067802248B88A0F12802082E19D2DFE809
:108D100006F00418181B222F2F170189491C018106
:108D20000021418080F80C1001EB810312F8233000
:108D300043B100234418491C89B2A3720229F3D31A
:108D40000570F0BD0123F5E742685288D21C1A4431
:108D50008A800470F0BD46880D6806EB860602EB3B
:108D6000860256680E60556013818C80062100E0F3
:108D700007210170F0BD000060320020B42B0020FC
:108D8000F0B50446808821882E4D87B006463529E7
:108D900037D0502923D0522902D0542947D102E09C
:108DA00000F0FEFD43E0182227496846FDF737FB37
:108DB000ADF80260304600F063FBADF8040000F04F
:108DC00019F9002229793046FEF760FB0022E97884
:108DD0003046FEF75BFB6846FFF77AFC27E0207B16
:108DE000012824D1A07A012821D12089A0F524517D
:108DF00002391CD10121304600F006FE04F0CAF809
:108E000015E000273A466979FEF740FBE088B0F5A7
:108E1000857F08D038B9A089012804D1A07B08B18A
:108E2000012700E000273946304603F04DFF0022BD
:108E30000649A878FEF7DEFA07B0BDE8F04003F077
:108E40007BBB0000E02A0020F4D50200F170020094
:108E500070B504460078002814D1608800F0A0FDA9
:108E60006588284600F060F928B107480122C178DA
:108E70002846FEF70BFB6088FEF7DCFFBDE870407C
:108E800004F088B870BD0000E02A002070B5154CD1
:108E900000252570FEF7D6FA6070FEF7D3FAA070B1
:108EA000FEF7D0FAE070FEF7CDFA2071FEF7CAFAAD
:108EB00060716178182913D0A178182910D0E17851
:108EC00018290DD0217918290AD0182808D004F1C2
:108ED0000C000560BFF35F8F01202070002070BD83
:108EE000032070BDE02A00207CB5044600780828E5
:108EF00037D1607A58BB207A1C4E4FF6FF75012897
:108F000011D0072802D008282BD121E0A08800F03A
:108F100001FA0446A84224D0012100F075FD204644
:108F2000FEF788FF1DE0A0886A46012102F0E6F9FD
:108F300068B90198007850B1A08800F0EBF9A84218
:108F40000FD00122F178FEF7A1FA03F0F5FA08E05C
:108F5000F068012805D1BFF35F8F044900200C3170
:108F60000860BDE87C4004F015B80000E02A00204D
:108F70002DE9F0418046024601200021FDF740FA2C
:108F80001A4F05460E467868FEF764F800280CD1A3
:108F9000174CD4E9062110462A4001EA06031A4379
:108FA00005D0A843B143C4E90601BDE8F0814046BD
:108FB00001F0AEFD30B1D4E9040128433143C4E9E6
:108FC000040105E0D4E90410A943B043C4E9041046
:108FD000D4E9060128433143C4E90601A168786851
:108FE000BDE8F0410022FDF7F1BF000018D70200F4
:108FF000502B00201CB5054AD2E90212CDE900121F
:109000000022694602F0CBFA1CBD000010D6020017
:1090100003484FF6FF7181800121017000207047E5
:10902000F02A00202DE9FC41804600F029FA0024B6
:1090300003250127A0F57F412646FF3908D06A465F
:10904000082102F05BF918B90198841D868805682B
:1090500032462B4621464046B1DF042804D008287A
:1090600004D00B2808D002E0112000E00020002FDF
:1090700000D10B20BDE8FC810027A80701D5012500
:10908000E6E73443F5D0002426460325E0E72DE942
:10909000FC41804600F0F4F90646A0F57F40FF3819
:1090A0000ED001252A466D1C0027ADB26B46082163
:1090B000304602F043F9040006D0072C25D025E005
:1090C00043F20200BDE8FC81019903230A1D0B60F5
:1090D0004046891DB2DF040004D00C2C09D0052CB9
:1090E00009D009E032460821104602F08DF9044605
:1090F0000CE0012700E000240821304602F07AF954
:1091000000B10324002FCDD100E00C242046D9E784
:1091100004488088A0F57F41FF3901D003F016BADA
:1091200070470000F02A00200EB502A9019100F05E
:10913000A7F96A46012102F0E1F808B100200EBD4E
:10914000019800780EBD00002DE9F04107464FF66A
:10915000FF760A48B3DF10B10320BDE8F081074C69
:1091600043F20305A41E324661883846AFDFA842A9
:10917000F3D16088401C6080F5E70000F22A0020EF
:10918000428800EB82020C328A4201D902207047E9
:109190008188A1F57F42FF3A03D0008808B1002002
:1091A000704701207047884204D20068401C01D0FB
:1091B00001207047002070473EB5027802230C461C
:1091C000B3EB520F17D1B0F80110ADF80010C17811
:1091D0008DF802108188ADF8041080798DF80600B2
:1091E00002AA01A92046FDF7DDFD032202A9684677
:1091F000FDF739F908B100203EBD01203EBD000059
:1092000070B50D460446142810D2FEF75FF968B118
:10921000084904EB840001EB4000D0F802102960FB
:10922000C188A980007AA871002070BD43F20200B5
:1092300070BD0000442D002070B5018892B0102947
:1092400061D1011D2C226846FDF7E9F89DF8040064
:109250004FF6FF7603213446B1EB500F2BD002F0CE
:109260005DF99DF804006D4640080ED001280CD031
:10927000022820D118E00D99281D1131FDF7E6FCD8
:1092800018B100BFBDF82C4015E00CAA0BA90720AF
:1092900002F018F90028EED10DE00D99281D491CA7
:1092A000FFF78AFF0028EDD10CAA0BA9072002F0D6
:1092B00009F90028F1D1BDF80000B44200EB8001AB
:1092C000124820F8114000EB41000199C0F802104B
:1092D000BDF80810C1809DF80A10017213D0BDF8C6
:1092E0000000ADF82E000020ADF83040084E8DF89B
:1092F0002C000BAD044600BF56F8241028468847C2
:10930000641C022CF8D312B070BD0000442D002064
:1093100024D602002DE9F0414FF6FF760546B04213
:1093200013D00B4F002400BF04EB840037F810006B
:10933000A84206D12046FEF7C9F810B12046BDE884
:10934000F081641CA4B2142CEED33046F7E7000081
:10935000442D00203EB50C46054602F0DFF80BE038
:10936000BDF80000A04207D02846029900F00EF890
:1093700010B1BDF800003EBD01AA6946072002F009
:10938000A1F80028ECD14FF6FF703EBD2DE9F04169
:109390000C46054600F1110701F111061022491C87
:1093A000401CFDF760F848B9681C00F04BF928B183
:1093B000601C00F047F908B1012400E000243146A8
:1093C0003846FDF743FC3B780222B2EB530F0CD03A
:1093D0000321B1EB530F08D03378B2EB530F04D015
:1093E000B1EB530F01D0012100E00021084201D16F
:1093F0008C4302D00120BDE8F0810020FBE701880A
:1094000011B9421892780AB101207047491C082905
:10941000F7D30020704710B50C460346FFF7EFFF67
:1094200000280AD018882188884205D10822A11C6A
:10943000981CFDF718F808B1002010BD012010BDE0
:10944000142804D2024A00EB800022F81010704762
:10945000442D002070B50546FFF75CFF0446284602
:1094600001F04FFF002808D1142C06D2034B04EB67
:1094700084024FF6FF7123F8121070BD442D0020B6
:1094800010B50446142808D2FEF720F828B1044984
:1094900004EB840031F8100010BD4FF6FF7010BDD2
:1094A000442D00203EB5044602F038F80EE0019944
:1094B00020464631FFF7AFFF28B9019920462A31EF
:1094C000FFF7A9FF10B1BDF808003EBD6A4602A92A
:1094D000072001F0F7FF0028E9D14FF6FF703EBDED
:1094E00010B50A4941600A4800F09EFC58B901F0E5
:1094F00069F907491C238C22087404488C39001F21
:10950000006800F0FDFB002010BD000068D70200DD
:109510000C3300202DE9F0412D4F002518B17D605E
:109520000120BDE8F0810879012258B1294E0128B7
:109530000CD0274C4FF002080834022821D0032811
:1095400042D128E00A7101F093FD3BE05FF000009A
:1095500000EB800116F82110022908D0401C80B2CF
:109560000228F5D33A707D6041F61D50D9E700EB33
:10957000800006F8205006EB8000406801F06AFD8C
:1095800020E00D71A4F80480002301221248216814
:1095900000F01EFE16E00D71206801F05BFD0D4924
:1095A00023682831498801EB810206EB8201D1F85A
:1095B00004C0C4F800C04B60A3880B81A4F80480E9
:1095C00006F822500028ACD07D600E20A9E70000EC
:1095D000AC2B002038320020D02B0020014603485D
:1095E00002888A4200D00020704700009C2C002096
:1095F0000248007A002800D0012070470C33002078
:10960000F0B58488A518944200D82246A41AC288CE
:10961000D6189A4200D81346D21A4B880788BB4204
:109620000CD34088834209D88888A04206D3A84238
:1096300004D8C888904201D3B04201D90020F0BDBF
:109640000120F0BD0021425C0AB101207047491C95
:109650001029F8D300207047800701D00020704700
:10966000012070474FF002000AB1FEF7AFBBFEF7D2
:10967000A5BBF721018017214180002101714171B3
:10968000FB2181711B21C171704700002DE9FE4F44
:10969000254F984691460D00824601D000260DE0E8
:1096A000684600F003FB6A460021504601F0A0FD29
:1096B0003878009E10B99DF8090098B14A463146A5
:1096C000504603F0D7F90446014600225046FFF702
:1096D000F7F90D2C26D008DC24B3082C22D00B2C53
:1096E00009D11FE00520BDE8FE8F112C0ED0A4F596
:1096F0004050023816D00325B8F1000F04D032468E
:1097000021465046FEF7AEFF2846ECE72A46F97898
:109710005046FDF7BBFE4A46B9785046FDF7B6FE07
:109720000025E9E72546E7E7242B00207EDF042813
:1097300000D111207047000070B50D001446064698
:1097400017D01648C1783046FDF7A0FE3046FFF727
:1097500097FE0146A0F57F40FF3800D074B129463E
:109760003046FFF7E3FF04462878C0070BD00122FC
:109770000AE0BDE870400021FFF7D8BF304600F096
:109780000FF8044605E002222CB10021304602F019
:1097900045FE204670BD0121F8E700001C2B00208B
:1097A0007CB50B4605466A460721184601F0A6FD22
:1097B000040005D0052C0FD0112C1DD003241BE074
:1097C000019C94F84400183410F0010001D0019C71
:1097D00034340CB110B106E011240DE004F1120094
:1097E000FFF70DFE38B1224604F11201284685DF4D
:1097F000040008D000E00B2400210022284602F0DB
:109800000DFE20467CBD0121F7E700002DE9F04167
:10981000194F0E46154604463978FDF71FFE0028FD
:1098200027D0204601F0C4FCE0B12046B978FDF70E
:1098300015FE08B1012700E0022704F5807080B210
:10984000072101F0D7FD010004D0052902D02046F0
:1098500002F05EFE2B46324639462046BDE8F04116
:10986000FEF740BD2A4631462046BDE8F041FEF7EE
:1098700059BEBDE8F08100001C2B002070B5094DD9
:109880000646A978FDF7EAFD0446E9783046FDF77B
:10989000E5FD014622463046BDE870400123FFF752
:1098A000F5BE0000242B00202DE9F047394E00279B
:1098B00080463D46DFF8E090D6F804A057E003D09C
:1098C0000446D0F81C8035E099F8002002EB4201F4
:1098D000521CD2B289F8002009EBC10199F802307C
:1098E000091D9A4201D189F8005048680A78044657
:1098F000012A12D0022A02D0032A3BD108E003F049
:10990000A5FA00B10127257434E00574C06900E0B0
:1099100070680028F9D170602CE0207C50BB88680A
:109920006060C868A0600869E0604869A061F0787C
:1099300000B165606268B168184B501A20F07F4032
:10994000984202D2A168084406E0881AA16820F073
:109950007F40814202D9081A206000E025606560DE
:109960000120A56020742046E56103F051FAB8F1AA
:109970000000A4D199F8001099F801008142A3D108
:1099800017B97168514502D00120BDE8F087002069
:10999000FBE70000702B00205C300020FFFF7F0001
:1099A00030B587B00546002418216846FCF750FD05
:1099B000A5F57F40ADF80250FF3815D02846FFF7D7
:1099C00031FB98B10B2815D0112811D0A0F54051CA
:1099D000023903D00146284602F086FD0948224696
:1099E00081782846FDF752FD07B030BD0E2002E019
:1099F0000124F3E70F208DF800006846FEF768FEAB
:109A0000ECE70000E02A00200A4602494978FDF709
:109A10003DBD0000E02A002088B000240120FEF7B0
:109A2000A3F9FDF7A9FA20B1544A40F26111FCF7FD
:109A3000F1FB40F2666201215148FDF70DFA20B1B9
:109A40004E4A40F22731FCF7E5FB00F007FD20B15C
:109A50004A4A4FF44E71FCF7DDFBFEF763F901F063
:109A6000C1FEFFF761F80021464800F019FA20B165
:109A7000424A4FF4C371FCF7CDFB082000F09DFC77
:109A8000062000F09AFC062000F0B0FC082000F050
:109A9000ADFC1F2000F091FC1F2000F0A7FC02F09D
:109AA0007BFB39490326394AD1E90401CDE900019C
:109AB00035488DF802606946083001F0C3F920B1DD
:109AC0002E4A40F2AD31FCF7A5FB02F0EBFDFDF7AD
:109AD000E3F81C216846FCF7BBFC00254FF420305E
:109AE000CDE900504FF47020029029480590294894
:109AF0008DF80C600690ADF80E508DF81050684649
:109B0000FDF734FC20B11D4A40F27E21FCF782FBB8
:109B10002046FDF725F91A4C183C6178A0780142DF
:109B200019D04FF0A0420121C807C2F80805164815
:109B300008300068D0F810054FF4FA42C2401248CD
:109B4000009104230221083001F066F90E48083024
:109B500001F054F90EE088430DD01F2000F046FCC0
:109B60000948083001F03CF9062000F03FFC0820CD
:109B700000F03CFCA57000F085FCCEE7906D020083
:109B8000C02A0020FC2B002054D5020085CD020005
:109B900005AF02008182020070B5144682880E462D
:109BA00005462088111D0144921C994201D8FE2AC5
:109BB00001D90C2070BD521C32542088FF21401C5A
:109BC00080B2208031542088401C80B220808119CE
:109BD000288803F0C9F92188084480B22080AA8827
:109BE00042B1A96841B13044FCF719FC2088A9882A
:109BF00008442080002070BD072070BDBFF35F8F38
:109C000000F0FDB8F8B50F46017814460546012965
:109C100001D1687830B12088821C9A4232D801295B
:109C200002D006E00720F8BD69780144891C9942FA
:109C300028D8181A801E86B2ADF800602188B81C9A
:109C4000084469467DDF0028EDD12978022904D037
:109C50006878BDF80020904205D3BDF80000B042FE
:109C600001D809200AE00820012905D16978B1420C
:109C700002D8ADF8001001E0ADF80060BDF80010AA
:109C8000FE2901D90C20F8BD2288491CB95421882D
:109C9000491C89B2218078542088401C2080BDF85E
:109CA0000010084420800020F8BD0000034A002175
:109CB0009268C0E90021816070470000242B0020D9
:109CC00070B54FF6FF750E46A84201D1002000E0A6
:109CD000401C84B208E02146304600F090F808B1FC
:109CE000204670BD641CA4B2FF2CF4D9284670BD78
:109CF00010B5FCF7E8FA08B1002010BD112010BD26
:109D000010B531B1B2FBF3F403FB14241CB10920EC
:109D100010BD0E2010BD0160002141608160828174
:109D2000C381084610BD70B50C460546FCF780FAA5
:109D3000002802D021882868084470BD10B50A8820
:109D400049888A4203D1FCF7B5FA012010BD0020F2
:109D500010BD70B50C460546FCF78FFA002802D0FE
:109D600061882868084470BD10B50A8849888A420D
:109D700003D1FCF779FA012010BD002010BD01F0DD
:109D80001F0301229A40D243490900EB810011468A
:109D900000F053B80A4601F01F030121994010B5A5
:109DA00052090C4600EB820000F052F8204000D02F
:109DB000012010BD2DE9F04180460D460024481ECB
:109DC000012101EB501716E058F82400C04390FA27
:109DD000A0F0B0FA80F020280CD200EB4416AE427E
:109DE00008D231464046FFF7D5FF0028ECD1304677
:109DF000BDE8F081641CA742E6D82846F8E74A0986
:109E000050F8220001F01F0201219140084000D0CB
:109E10000120704701F01F0301229A40490900EB1D
:109E20008100114600F01EB8012100F011B808B5FC
:109E30006A46FCF794FA009808BD08B56A46FCF734
:109E400074FA009808BD08B56A46FCF788FA08BDA0
:109E500008B56A46FCF75CFA08BD08B56A46FCF727
:109E60004BFA08BD08B56A46FCF752FA009808BDDF
:109E700008B56A46FCF780FA009808BDC20800F0F1
:109E800007030120895C98400840704710B5C2085C
:109E900000F00703885C01249C402043885410BDD7
:109EA00010B560B10161F72120F8021B20F8021BF8
:109EB000FB2100F8021BFFF7DCFB002010BD0E2089
:109EC00010BD00002DE9F047B0F804A08EB00C469C
:109ED0005FEA0A0957D10188564E01270025242937
:109EE0007BD006DC102909D0112929D0232926D1BD
:109EF00099E03A2928D0552921D147E021792173C9
:109F0000C07BA61D012802D0022804D101E02088D0
:109F100000E06088308031887088814208D94846E6
:109F2000A5DF10B1112802D002E0777100E037718F
:109F3000B179F07981426BD94846FEF7F5F967E0CF
:109F4000A01DFFF796FB63E02246408934F8061F08
:109F5000814200D808466080172800D21720608010
:109F6000106970B1607960B1D6E90001CDE90001F6
:109F7000ADF802906088ADF8040013696946104698
:109F80009847657125710EB0BDE8F087C08804F16F
:109F90000608172800D21720B8F80010814200D810
:109FA0000846A8F8020088F804502846B8F80010BF
:109FB000B5DF98F8050058BB206948B3D6E902011F
:109FC000CDE90001ADF80290B8F80200ADF8040048
:109FD0002046694622691AE0FFE7011D2C226846E7
:109FE000FCF71DFABDF80000BDF8042004EBC00129
:109FF0004A73226962B1D6E90423CDE90B23ADF897
:10A000002E00487B8DF83000226920460BA990472E
:10A01000A07A0028B7D0E1885046A5DF0028B2D149
:10A02000A572E772AFE7017A207B884284D20146AD
:10A0300082E7000080D5020020B10278DE2A03D03A
:10A04000082070470E20704741800020704760B1A3
:10A0500059B10278DE2A0AD009684160DE21017018
:10A060004FF6FF714180002070470E207047082096
:10A0700070477FB5054600294DD0002D4BD008789C
:10A080000C46DE2847D1A8886188884202D1204644
:10A0900002F0D2FF2888012825D002283BD01128C1
:10A0A0003AD0512837D135F8040F6188884232D12F
:10A0B000A978A81C02292ED1017A042903D00629E7
:10A0C00001D0052927D10021009102228DF800201E
:10A0D00001914FF4C07202910391ADF80420007A0F
:10A0E00005280FD010E0297A2046012913D1A9882C
:10A0F000428891420FD10121017204B0BDE8704045
:10A1000002F09ABFADF8041028886946B0DF002835
:10A1100001D0616888477FBDA88861888842FAD1EC
:10A120004FF6FF7060807FBD00F18040006800281E
:10A1300000D00120704708B500F180400021016087
:10A140000068009008BD4FF010204169491C02D002
:10A15000406913DF7047042070470000014813DF97
:10A16000704700000060020070B50B4C207808B109
:10A1700085250FE00020A06060602061E060074856
:10A1800000F0BAFB054600F01DFB08B900F09CFB8F
:10A1900001202070284670BD702F0020F180020041
:10A1A00038B500258DF800506846FCF763FF074C72
:10A1B000E068401EE060E06810B900F0ADFBA570FB
:10A1C0009DF80000FCF77AFF38BD0000702F0020DA
:10A1D0002DE9F0411F46164604000D4616D02068B2
:10A1E000B8B1C6B160680268501E284215D17243EA
:10A1F0002046FCF744FD80B120683B463246D0F84B
:10A2000010C029462046BDE8F04160470E20BDE859
:10A21000F0810820FBE70920F9E71020F7E720B1DB
:10A2200019B101600B68114618470E2070470000F5
:10A23000044801214174007A08B1002070470120D0
:10A24000704700000C330020012801D0032808D1FA
:10A250000449002201284A7400D00020087401F04B
:10A26000C1BD70470C33002070B50246022801D0F2
:10A27000032A45D1234C207A002841D0012833D02D
:10A28000022831D120480023022A006802D0032A84
:10A290002AD11BE0E360017911B1012924D10DE03D
:10A2A000D0E90565711B4FF48056B14200D33146A9
:10A2B000294481614569A9420ED015E00169491C14
:10A2C0000161426991420FD1237213E0E168491C98
:10A2D000E160082908D9E3602372022A0AD00D211F
:10A2E000FEF796F901F024FD607C28B1BDE87040CE
:10A2F00000F06EBA0021F3E7BDE8704001F072BDD6
:10A3000070BD00000C330020BC2B00202DE9F84369
:10A310001D46089F1646884604000DD066B1206889
:10A3200060B135B160684068B5FBF0F100FB1150D9
:10A3300030B10920BDE8F8830E20FBE70820F9E7DB
:10A340004046FCF796FC90B13046FCF792FC70B1A9
:10A350002A4641462046FCF792FC40B1009720680F
:10A360002B463246C76841462046B847E2E71020F0
:10A37000E0E770B541EA4201DDE904564FF0A04440
:10A3800041EA830141EA052104EB800041EA0641EC
:10A39000C0F8001770BD70B541EA4201DDE904560E
:10A3A0004FF0A04441EA830141EA052104EB80001B
:10A3B00041EA0641C0F8001770BD4FF0A04202EB21
:10A3C00080000321C0F8001770474FF0A04202EB55
:10A3D0008000D0F8002722F44032C0F80027D0F8DF
:10A3E000002742EA0141C0F8001770474FF0A04231
:10A3F00001218140C2F80C15704701224FF0A043A3
:10A40000824011B1C3F808257047C3F80C25704786
:10A4100018B5084B6C4601441B68009306E000BF6A
:10A4200054F82030D3F81035401C08C28142F7D8C8
:10A4300018BD000000D70200034908B508440021F8
:10A4400001600068009008BD00600040024940586B
:10A45000012800D00020704700600040064910B578
:10A4600000204870091D0860BFF35F8F034904484E
:10A4700000F0FCF9002010BD842B002040D7020022
:10A480007431002008B500208DF800006846FCF704
:10A49000F1FDF1EE100A20F09F00E1EE100ABFF38B
:10A4A0005F8F08494020C1F880029DF80000FCF74A
:10A4B00005FE00F087F908B141DF08BD20BF40BFAD
:10A4C00020BF08BD04E000E070B504460C4801213F
:10A4D000FFF7C3FCBFF35F8F0025002809D10120DF
:10A4E000074E042C08D0311F4A781AB1BFF35F8F92
:10A4F000356070BD0C70487002F028F9F6E7000076
:10A50000882B002002A24FF4E071FBF783BE00000D
:10A510002E2E5C2E2E5C2E2E5C6D61696E2E6300DD
:10A52000024A1060101D0160704700002C76004048
:10A53000030103481844C0F81425C0F810157047EB
:10A540000070004002494058002800D001207047A8
:10A5500000700040034908B508440022026000680A
:10A56000009008BD0070004020B1034909680160F7
:10A57000002070470E2070470CD80200FEB506463A
:10A580000C460846FFF7F0FF002845D1002500954E
:10A590000195012706208DF80060ADF804000295B2
:10A5A0008DF8027069462020226869DF00958DF8D9
:10A5B00001708DF80250019502958DF8035069469F
:10A5C0004020226869DF00958DF80060F720ADF823
:10A5D00002000195029569462320226869DF0095F3
:10A5E00002208DF80000019502956946012022683D
:10A5F00069DF4FF4B0600090019502956946A12093
:10A60000226869DF0095019502958DF80070694612
:10A61000A020226869DF0020FEBD000060DF002866
:10A6200002D1024A0121117070470000C72B00209F
:10A6300030B51748ADF5017D0078002825D04FF4DE
:10A64000FA7400BFADF8004280A9684661DF50B1DE
:10A6500005281AD00DF5017D0EA2BDE8304040F26C
:10A660003911FBF7D7BD6D461A497DA800F0FEF8F9
:10A6700007E000BFD0E90021284690477DA800F000
:10A680000CF97F980028DDD0F4E70DF5017D30BD91
:10A69000C72B00202E2E5C2E2E5C2E2E5C2E2E5CC8
:10A6A0002E2E5C2E2E5C636F6D706F6E656E7473F4
:10A6B0005C736F66746465766963655C636F6D6D0A
:10A6C0006F6E5C6E72665F7364685F626C652E634A
:10A6D0000000000010D80200F8B5134C2078C0B17B
:10A6E0000120A07001F0BAFD112814D0022001F061
:10A6F000CDFD00258DF800506846FCF7BBFC11DF4E
:10A70000064625709DF80000FCF7D8FC2EB13046B7
:10A71000F8BD0820F8BD0020F8BDA57002F04CFA85
:10A72000032001F0B3FDF6E7C42B00207CB5194CE3
:10A73000207808B108207CBD0120A070002001F025
:10A740008DFD112819D0002001F0A0FD124800262F
:10A75000006801908DF800606846FCF78BFC0F499B
:10A7600001A810DF05000AD0002020709DF800002D
:10A77000FCF7A4FC2DB128467CBD00207CBD012047
:10A78000F3E7A670667002F053FA012001F07EFD37
:10A79000F3E70000C42B0020A4D70200D16E020012
:10A7A0000EB50749684600F061F805E0D0E90010F1
:10A7B0008847684600F071F802980028F6D10EBD6F
:10A7C000C0D702000148007870470000C42B002069
:10A7D0000548817819B1007818B1FFF77DBF0820CE
:10A7E0007047FFF7A3BF0000C42B00201FB56846C9
:10A7F0004BDF40B1052816D004B00BA2BDE81040D5
:10A800006B21FBF707BD184901A800F02FF806E0FF
:10A81000D0E900210098904701A800F03EF8039885
:10A820000028E4D0F4E71FBD2E2E5C2E2E5C2E2EC9
:10A830005C2E2E5C2E2E5C2E2E5C636F6D706F6E08
:10A84000656E74735C736F66746465766963655C6A
:10A85000636F6D6D6F6E5C6E72665F7364685F735D
:10A860006F632E63000000002CD8020001600968AD
:10A870004160AFF3008010B5D0E9002153689942E0
:10A8800001D1002104E0D1E90034A34202D01946ED
:10A89000816010BD08314160F0E7816800290BD06C
:10A8A000026892680A44826041684B689A4203D108
:10A8B00008314160FFF7DFBF704708B50022425002
:10A8C0004058009008BD000009480068012110F0C0
:10A8D000010F08D14FF0E020C02280F80024C0F81A
:10A8E0008012C0F800110349012008607047000081
:10A8F00000E100E0180500400649024600200B79FF
:10A900000BB1852070470A6001220A7100224A714A
:10A91000704700003C2B00200449012008600448D7
:10A920000168C1F300410029FAD170470C000040D2
:10A9300018040040002802D00149800108477047F0
:10A9400011D70200002802D0014980010847704752
:10A9500021D7020010B5044600F084FF28B120463C
:10A96000BDE810400021FFF730BD204600F086FF13
:10A9700000280FD02046FDF7B7FA074A02EB800106
:10A98000D1F8103523F00103C1F8103501218140C1
:10A99000C2F8081310BD0000006000402DE9F0412E
:10A9A0008846054600F05EFF234E002828461AD050
:10A9B000FDF79AFA304490F848008009032802D045
:10A9C00001280ED007E04FF0A040D0F81005E84075
:10A9D00010F0010F05D003212846BDE8F041FFF734
:10A9E000F4BC0221F8E700F049FF002822D02846F5
:10A9F000FDF77AFA04464FF4807000EB84000F4FA5
:10AA000081B207EB8400D0F8102542F00102C0F8B3
:10AA100010250846FFF710FDB8F1000F0AD02846B0
:10AA2000FDF762FA56F82000002803D00120A0406C
:10AA3000C7F80403BDE8F081842F002000600040C7
:10AA40002DE9FC41DFF8BC80044608EB0400002738
:10AA500090F930001346C0170E46401C01D008275D
:10AA60004CE0B0781946C0F340022046FDF718FAD2
:10AA70000546401C41D0B078410719D4C0070AD020
:10AA80004FF0A04000EB8401D1F8000720F0020055
:10AA9000C1F8000707E000217378204600910A46BC
:10AAA0000191FFF778FC174920465431FFF7EEF982
:10AAB000B078800718D51448317800EB8500D0F8BD
:10AAC0001025124B1A40C0F810254FF4F8524FF4DD
:10AAD000403302EA042203EA01410A43D0F8101588
:10AAE0000A43C0F8102509E008EB0500327810F899
:10AAF000481F41EA8211017000E004273846BDE892
:10AB0000FC810000842F002000600040FFE0FCFF7B
:10AB10004FF0A041D1F81015C14011F0010000D054
:10AB20000120704770B5184D95F8580008B10820FD
:10AB300070BD0020411E2A18401CC0B282F830109F
:10AB40002028F8D300242046FDF79CF9641CE4B2C9
:10AB50000C2CF8D300240D49C0206C6581F800044A
:10AB600001264020891FC1F88002C1F800014FF47E
:10AB7000BE70FFF761FC0649F007C1F8040385F8D1
:10AB80005860204670BD0000842F002006E000E0E1
:10AB900000600040034890F85800002800D00120D1
:10ABA00070470000842F002070B50C4626490A7CAF
:10ABB0000AB1112070BD2279244D0AB1012A01D1B8
:10ABC00000222A6001EB4002137F1BB911F82D3FD0
:10ABD0005B1C0B70E1791177217A517721786278CB
:10ABE000302301F0030103EA02121143A2784FF46B
:10ABF000E06303EA02221143E2784FF4805303EA50
:10AC00000232114322794FF4E02303EA0242114356
:10AC100062794FF4801303EA02521143A2791B01B7
:10AC200003EA02620A4B114303EB0012C2F8181543
:10AC3000227AE179FFF77CFC207908B1012801D163
:10AC400001202860002070BDEC2F0020007500401E
:10AC5000007000402DE9F0411E4C054694F82C0090
:10AC600010B10820BDE8F08144F8101B1A4928787B
:10AC70000860091D68780860E878A07701272777C1
:10AC80000020207060776060144EE0776FF0004025
:10AC9000C6F808034FF48270FFF75CFCB015FFF7AD
:10ACA00059FCA8780E49400181F800048020C91F92
:10ACB000C1F88002C1F800010220C6F80403A07F99
:10ACC00010B10120C6F804030348F03807600020E3
:10ACD000C8E70000EC2F0020F07500400070004035
:10ACE00007E000E02DE9F0412C4D80460B46287C22
:10ACF00010B11120BDE8F08101242C74284E0322EC
:10AD0000C6F8082321461846FFF70AFC95F82D00DF
:10AD1000012808D900270022F8B21146FFF708FCE5
:10AD20007F1C082FF7D305EB4800427F017F404688
:10AD3000FFF7FEFB002734601948001D046042F253
:10AD400010744FF482784046FFF7FCFB20B90020D6
:10AD5000FFF7F0FD641EF6D14FF48070FFF7FAFBA9
:10AD60004046FFF7F7FB95F82D0001280AD900248B
:10AD700005EB4400427F017FE0B2FFF7D9FB641C82
:10AD8000082CF5D395F82E0008B1032000E002202E
:10AD9000C6F8040338462F74ACE70000EC2F0020FF
:10ADA000007000402DE9F04106460D464FF4803416
:10ADB00000681746AC404BB14FF4A07101EB850120
:10ADC000FFF77BFD3068C0F8044301E0C0F808439A
:10ADD000306800EB8500C0F84075BDE8F0810000E8
:10ADE0000268012111610079034A00EB400002EB87
:10ADF0008000017270470000E02F002001680122EE
:10AE00000A600079034A00EB400002EB8000022157
:10AE100001727047E02F0020F0B40468049E40F2F5
:10AE20000115D4F800728D40AF43C4F80072046875
:10AE3000D4F800521D43C4F800523346F0BCFFF76B
:10AE4000B1BF00002DE9F04104460E4600792C49BF
:10AE500000EB400001EB8007387A10B10820BDE814
:10AE6000F0813A60706800254FF4A078786006E0C1
:10AE700008EB85012068FFF720FD6D1CEDB26079BD
:10AE8000A842F5D82068F17840F3073000284FEA4F
:10AE9000411106DA00F00F0000F1E02080F8141DE7
:10AEA00003E000F1E02080F800142068012240F364
:10AEB000073000F01F0302FA03F14009800000F19F
:10AEC000E020C0F88012C0F8001120687178D0F836
:10AED000043561F30103C0F804352068B178D0F877
:10AEE000083561F30103C0F8083520683178D0F8DF
:10AEF000103561F30303C0F810353A720020AEE755
:10AF0000E02F0020007800280AD106483B218088E5
:10AF100076DF002804D004A240F25E21FBF77AB964
:10AF200070470000A82A00202E2E5C2E2E5C2E2EAC
:10AF30005C6D61696E2E63007FB51A4D8188AA88A9
:10AF400091422DD110F8061F022929D14188EA88A3
:10AF5000914225D1017A042922D0062920D0052941
:10AF60001ED0841C002000900221019002900390CA
:10AF70008DF80010297E19B101218DF8061001E02D
:10AF800040F2FD10ADF80400A8886946B0DF112832
:10AF9000FAD0BDF80400002802D12046FCF7ACFB33
:10AFA0007FBD00002033002048B1064A016891426D
:10AFB00005D140680449401802D0012800D0032080
:10AFC00070470000DEC0ADDE02FEE10E8A7D022A7F
:10AFD00004D90289CB881A44D21C02814289C988CB
:10AFE000511AC91E418170472DE9F0410D460221D9
:10AFF000904600F58056298000F10804144F1BE0AC
:10B0000031462046FEF7BCF840B1B8F1000F02D03F
:10B01000012288F80020022816D004E0A06879698F
:10B02000884200D97861288861880844C01C28803B
:10B03000608804EB80040C3431462046FEF7B3F8F8
:10B040000028DDD1BDE8F0814FF480602880F9E769
:10B050008C2B002008B50021009101460823024AEC
:10B060000248FFF753F908BD5CD70200D02B00203F
:10B0700008B50020009004480823044A01680448E9
:10B08000FFF744F908BD0000B42B002054D702009C
:10B09000D02B00202DE9F05F0025DFF80891DFF8C4
:10B0A00008B12C464FF00308AA462F46D9F80C00E9
:10B0B00000EB07363046FFF777FF78B3012847D01B
:10B0C000032862D100204FF4806200BF56F82010A0
:10B0D000491C0ED004EB84010BEB8102A8F10100A6
:10B0E000566003221FFA80F80BF82120641CA4B2DA
:10B0F0004BE0401C9042E9D32C48016879B104EB45
:10B10000840102200BF821000BEB81014E600881C5
:10B11000254828304480641CA4B205E007E00221E1
:10B12000066081804FF0010A45F001052DE004EB37
:10B13000840100220BF821200BEB810101F11002A8
:10B140004E6030460831FFF74FFF45F00205CDE76E
:10B15000BAF1000F0CD0022004EB8401134A0BF863
:10B1600021000BEB810112684A60641C0881A4B2C3
:10B170000E480022011D06603046FFF735FF0B48E0
:10B18000808802280CD0082005437F1CBFB2032F03
:10B190008CD3B8F1020F00D20025E8B2BDE8F09FD1
:10B1A0000420F1E7D02B002038320020B42B0020FF
:10B1B00001494978FCF752B91C2B002000B587B033
:10B1C00002228DF800200288ADF802204079400765
:10B1D00001D5012000E002208DF808008DF809104B
:10B1E0006846FDF799FA07B000BD002101F0B8BC30
:10B1F00030B587B00C4605218DF800101546ADF826
:10B200000200FEF73DF9ADF804006846CDE90245BD
:10B21000FDF790FA07B030BD70B5054D0646002425
:10B22000304655F824108847641C042CF8D370BDB0
:10B2300048D602007CB5104D002400BF04EB44004A
:10B2400005EB800002F03AF8641C022CF6D3502182
:10B250000220CDE900010849084BB039A02201F1D4
:10B26000A00000F049FB08B103207CBD0349012088
:10B27000091F487000207CBDCC2E0020082B002028
:10B2800070B504460025C1681A4A284600EB400301
:10B2900002EB83035B688B4204D100EB400002EBBE
:10B2A000800003E0401C0228F0DB00202178082900
:10B2B00004D0092908D0132914D112E0617A89B980
:10B2C00080B102F009F80DE0617A59B950B100215E
:10B2D0004160817A41F002018172074901200870C2
:10B2E00003E001252046FFF797FF2846BDE87040A0
:10B2F00000F004BECC2E0020042B0020002300F020
:10B3000015B938B50446002008E08178204600F0E1
:10B3100071F808B105280FD10098401C00906946CB
:10B32000204601F0B3FF0028EFD1204600F078F965
:10B33000002802D0072800D0032038BD2DE9F047AF
:10B340001F00154681460E4604D0072E05D0082E54
:10B3500006D102E00E20BDE8F0870DB1022D01D923
:10B360000720F8E74FF00008484601F075FF041E7B
:10B3700004D0207AA8420BD00F20ECE7FF214FF633
:10B38000FF7001F069FF041E06D0A0F80090A670BF
:10B39000607AFF2802D00AE01120DCE72946144831
:10B3A00000F078FA6072FF2813D04FF00108257280
:10B3B000617A0F4800F0B2FA02000ED0ABB231460B
:10B3C000384600F0A3F9B8F1000F0FD0082E06D0D0
:10B3D0000CE0204601F072FFDEE70320BBE738886F
:10B3E0006FF0050101EB8000796888800020B2E7EA
:10B3F000BC2E002010B501F02FFF18B101F06CFF3A
:10B40000002010BD052010BD70B50C46064615463F
:10B41000072901D0082C0ED1104600F00CF950B1CC
:10B420002146304601F018FF38B105808470BDE830
:10B43000704001F0BDBE072070BD052070BD00004A
:10B440004FF6FF7141800149096808472CD6020078
:10B4500030B587B01748FDF701FB10B1032007B0E6
:10B4600030BDFDF723FA08B18620F8E700F0A0F917
:10B47000002002904CF2070403900EE0694604A8F5
:10B48000FDF7BCFA00988088A0F5404085B204A87A
:10B49000FDF774FA284600F047F902AA04A92046ED
:10B4A000FDF793FA0028E9D0034901200870002035
:10B4B000D5E7000041870200F82A002000F05AB9C1
:10B4C00000F05EB970B586B014460E46054600F031
:10B4D0000BF940B105F5404080B20F4A6946FDF7CF
:10B4E00074FA40B902E0012006B070BD03A96846B5
:10B4F000FDF784FA08B10020F6E7A57003984088AC
:10B5000020800498606003988088A0F540403080D7
:10B510006846FDF733FAE6E7FC2A002002480021DE
:10B520004160816070470000F82A0020F0B587B0C4
:10B530001F46154606460C46FF280AD8084600F066
:10B54000D3F830B104AA2146304600F0B5F840B92E
:10B5500002E0072007B0F0BD02A904A8FDF74EFAEB
:10B5600008B10520F6E7AC700298408828807FB1CA
:10B57000840039882646B1EB800F00D20C4603992F
:10B5800022466868FAF74BFFB44203D20C20E1E789
:10B590000398686004A8FDF7F1F90020DAE770B5B8
:10B5A00086B016460C460546FF2825D8A07800F040
:10B5B0009BF808B305F54040ADF80000A07803AA59
:10B5C00000F54040ADF802006068019020880290CC
:10B5D000A178284600F070F80528694603A80DD028
:10B5E000FDF730FA68B1072814D0082810D00E28CB
:10B5F0000ED0032006B070BD0720FBE7FDF729FA47
:10B60000F0E71EB1314603A8FDF7EFF90020F1E79E
:10B610001120EFE78620EDE74FF6FF7000F084B8C9
:10B6200010B5FF2801D9072010BD00F083F800F005
:10B6300005F8002010BD00F0C1B8000070B51C4D29
:10B640008CB00020687006904FF6FF760790304669
:10B6500003E0204600F080F8204600F08BF8044616
:10B66000B04220D004F5404080B206AA08A9FDF7F8
:10B67000B4F90A28EDD004F5404080B2FDF7D6F8C1
:10B68000082812D000280ED00646012518220949A4
:10B690006846FAF7C4FEADF8044002968DF80C50E7
:10B6A0006846FFF7CDFE0CB070BD01206870FAE768
:10B6B000F82A002030D602007CB5054616460C4616
:10B6C000084600F011F80020009005F54045019073
:10B6D00004F54044A8B2A1B26B463246FDF76EF9BC
:10B6E000002800D005207CBD07280DD001280BD0F4
:10B6F000082809D0052807D0062805D0092803D036
:10B70000042801D0002070470120704710B503EBDA
:10B7100083034FF6FF7404EA03138170DB1C99085E
:10B720004260018010BD00000149FCF7ADBC000083
:10B73000E42E002010B50446A0F57F40FF3807D066
:10B7400004492046FCF7A0FCA04201D1012010BD15
:10B75000002010BD042F002010B50446044900F05D
:10B76000F1FC03492046BDE81040203100F0EABC5E
:10B77000E42E00200149FEF7A3BA0000042F0020A8
:10B7800070B50A49FEF79CFA04464FF6FF7507E0CC
:10B7900000F01EF838B105492046FEF791FA04463C
:10B7A000AC42F5D170BD204670BD0000E42E0020F3
:10B7B00001484021FAF74CBEE42E0020FF2803D8B0
:10B7C00001460248FEF71BBB00207047E42E002014
:10B7D000FF2803D801460248FEF711BB002070473E
:10B7E000042F00201CB500F015F918B11B4AF621F2
:10B7F000FAF710FD0020009001909DF8000020F065
:10B800007E0040F00100303020F080008DF8000014
:10B8100007208DF8010010208DF802009DF803002C
:10B8200040F003008DF803009DF8040040F0030091
:10B830008DF80400684600F055FA20B1074A40F23E
:10B840000911FAF7E7FC064800F036FA002804D0A0
:10B85000024A4FF48671FAF7DDFC1CBD906D0200C0
:10B8600081B902000449084490F93000082801DB3E
:10B870000120704700207047842F002004490844AD
:10B8800090F93000082801D201207047002070474D
:10B89000842F00202DE9F0410F4606002AD03068A1
:10B8A00040B3706830B3FF24002520E0294670685B
:10B8B000FEF770FA80F00100BFF35F8F48B1FF2CF4
:10B8C00000D12C46281B401CB8420ED12046BDE8B2
:10B8D000F081FF2C06D108E02146304600F032F816
:10B8E000641CE4B2AC42F7D3FF246D1CEDB2B06827
:10B8F000A842DBD8FF20EAE770B5DDE9044558B17E
:10B9000051B14BB104FB05F6964205D824B11DB1E7
:10B9100080E83A00002070BD072070BD70B50400BB
:10B920000D460DD0206858B1606848B1FF2D07D092
:10B93000FEF764F920B1E168206805FB010070BDE5
:10B94000002070BD70B504000D4613D0206800289B
:10B9500010D0606800280DD0FF2D0BD0FEF74EF9F7
:10B96000002807D060682946BFF35F8FBDE87040AC
:10B97000FEF705BA70BD002901D000F035BF704751
:10B9800008B501780E290ED2DFE801F00D0D0D0D7E
:10B99000070D0E2E0D1C0D22172800210091408846
:10B9A0006946FFF7E8FF08BDFCF762FF0828FAD0F8
:10B9B0000028F8D011A2C2211BE0BDE808400020F9
:10B9C000FBF7CEB900690028EDD00CA2CE2110E023
:10B9D00080680028E7D009A2D4210AE08068002806
:10B9E000E1D006A2DA2104E080680028DBD003A2BF
:10B9F000E021BDE80840FAF70DBC00002E2E5C2EB9
:10BA00002E5C2E2E5C6D61696E2E6300FCF76EBE9F
:10BA1000FCF76CBE10B5FFF71BFD70B9FFF70AFC11
:10BA200058B900F0E3FE40B900F0FEFF28B9FDF779
:10BA30002DFA10B9FDF7ECFA08B1032010BD054846
:10BA40004FF6FF71818000218160417001210170FA
:10BA5000002010BD0C2B00202DE9F041044686B0DB
:10BA600001278088FDF756FC608020780026414D34
:10BA7000082808D0092820D04FF6FF780A2829D0B6
:10BA80000B2853D158E0607A10B1012809D04DE05D
:10BA9000A86830B1E168814203D1AE60A088A88077
:10BAA00016E06878E8B3A088A98888423ED1207A59
:10BAB00006283BD100F006FA38E0607A88BBA86817
:10BAC00078B3E168814231D1AE60E868401EE86039
:10BAD000E6602BE0A878E8B14046FFF7F1FC41466C
